{
    "abi": [
        {
            "inputs": [
                {
                    "internalType": "uint256",
                    "name": "min",
                    "type": "uint256"
                },
                {
                    "internalType": "address",
                    "name": "creator",
                    "type": "address"
                }
            ],
            "stateMutability": "nonpayable",
            "type": "constructor"
        },
        {
            "inputs": [
                {
                    "internalType": "uint256",
                    "name": "index",
                    "type": "uint256"
                }
            ],
            "name": "approveRequest",
            "outputs": [],
            "stateMutability": "nonpayable",
            "type": "function"
        },
        {
            "inputs": [],
            "name": "contribute",
            "outputs": [],
            "stateMutability": "payable",
            "type": "function"
        },
        {
            "inputs": [
                {
                    "internalType": "string",
                    "name": "desc",
                    "type": "string"
                },
                {
                    "internalType": "uint256",
                    "name": "val",
                    "type": "uint256"
                },
                {
                    "internalType": "address payable",
                    "name": "rec",
                    "type": "address"
                }
            ],
            "name": "createRequest",
            "outputs": [],
            "stateMutability": "nonpayable",
            "type": "function"
        },
        {
            "inputs": [
                {
                    "internalType": "uint256",
                    "name": "index",
                    "type": "uint256"
                }
            ],
            "name": "finalizeRequest",
            "outputs": [],
            "stateMutability": "payable",
            "type": "function"
        },
        {
            "inputs": [],
            "name": "manager",
            "outputs": [
                {
                    "internalType": "address",
                    "name": "",
                    "type": "address"
                }
            ],
            "stateMutability": "view",
            "type": "function"
        }
    ],
    "devdoc": {
        "kind": "dev",
        "methods": {},
        "version": 1
    },
    "evm": {
        "assembly": "    /* \"Campaigns.sol\":558:2353  contract Campaign{... */\n  mstore(0x40, 0x80)\n    /* \"Campaigns.sol\":994:1123  constructor(uint min, address creator){... */\n  callvalue\n  dup1\n  iszero\n  tag_1\n  jumpi\n  0x00\n  dup1\n  revert\ntag_1:\n  pop\n  mload(0x40)\n  sub(codesize, bytecodeSize)\n  dup1\n  bytecodeSize\n  dup4\n  codecopy\n  dup2\n  dup2\n  add\n  0x40\n  mstore\n  dup2\n  add\n  swap1\n  tag_2\n  swap2\n  swap1\n  tag_3\n  jump\t// in\ntag_2:\n    /* \"Campaigns.sol\":1059:1062  min */\n  dup2\n    /* \"Campaigns.sol\":1043:1058  minContribution */\n  0x04\n    /* \"Campaigns.sol\":1043:1062  minContribution=min */\n  dup2\n  swap1\n  sstore\n  pop\n    /* \"Campaigns.sol\":1081:1088  creator */\n  dup1\n    /* \"Campaigns.sol\":1073:1080  manager */\n  0x03\n  0x00\n    /* \"Campaigns.sol\":1073:1088  manager=creator */\n  0x0100\n  exp\n  dup2\n  sload\n  dup2\n  0xffffffffffffffffffffffffffffffffffffffff\n  mul\n  not\n  and\n  swap1\n  dup4\n  0xffffffffffffffffffffffffffffffffffffffff\n  and\n  mul\n  or\n  swap1\n  sstore\n  pop\n    /* \"Campaigns.sol\":1114:1115  0 */\n  0x00\n    /* \"Campaigns.sol\":1099:1113  Numofapprovers */\n  dup1\n    /* \"Campaigns.sol\":1099:1115  Numofapprovers=0 */\n  dup2\n  swap1\n  sstore\n  pop\n    /* \"Campaigns.sol\":994:1123  constructor(uint min, address creator){... */\n  pop\n  pop\n    /* \"Campaigns.sol\":558:2353  contract Campaign{... */\n  jump(tag_6)\n    /* \"#utility.yul\":88:205   */\ntag_8:\n    /* \"#utility.yul\":197:198   */\n  0x00\n    /* \"#utility.yul\":194:195   */\n  dup1\n    /* \"#utility.yul\":187:199   */\n  revert\n    /* \"#utility.yul\":334:411   */\ntag_10:\n    /* \"#utility.yul\":371:378   */\n  0x00\n    /* \"#utility.yul\":400:405   */\n  dup2\n    /* \"#utility.yul\":389:405   */\n  swap1\n  pop\n    /* \"#utility.yul\":334:411   */\n  swap2\n  swap1\n  pop\n  jump\t// out\n    /* \"#utility.yul\":417:539   */\ntag_11:\n    /* \"#utility.yul\":490:514   */\n  tag_23\n    /* \"#utility.yul\":508:513   */\n  dup2\n    /* \"#utility.yul\":490:514   */\n  tag_10\n  jump\t// in\ntag_23:\n    /* \"#utility.yul\":483:488   */\n  dup2\n    /* \"#utility.yul\":480:515   */\n  eq\n    /* \"#utility.yul\":470:533   */\n  tag_24\n  jumpi\n    /* \"#utility.yul\":529:530   */\n  0x00\n    /* \"#utility.yul\":526:527   */\n  dup1\n    /* \"#utility.yul\":519:531   */\n  revert\n    /* \"#utility.yul\":470:533   */\ntag_24:\n    /* \"#utility.yul\":417:539   */\n  pop\n  jump\t// out\n    /* \"#utility.yul\":545:688   */\ntag_12:\n    /* \"#utility.yul\":602:607   */\n  0x00\n    /* \"#utility.yul\":633:639   */\n  dup2\n    /* \"#utility.yul\":627:640   */\n  mload\n    /* \"#utility.yul\":618:640   */\n  swap1\n  pop\n    /* \"#utility.yul\":649:682   */\n  tag_26\n    /* \"#utility.yul\":676:681   */\n  dup2\n    /* \"#utility.yul\":649:682   */\n  tag_11\n  jump\t// in\ntag_26:\n    /* \"#utility.yul\":545:688   */\n  swap3\n  swap2\n  pop\n  pop\n  jump\t// out\n    /* \"#utility.yul\":694:820   */\ntag_13:\n    /* \"#utility.yul\":731:738   */\n  0x00\n    /* \"#utility.yul\":771:813   */\n  0xffffffffffffffffffffffffffffffffffffffff\n    /* \"#utility.yul\":764:769   */\n  dup3\n    /* \"#utility.yul\":760:814   */\n  and\n    /* \"#utility.yul\":749:814   */\n  swap1\n  pop\n    /* \"#utility.yul\":694:820   */\n  swap2\n  swap1\n  pop\n  jump\t// out\n    /* \"#utility.yul\":826:922   */\ntag_14:\n    /* \"#utility.yul\":863:870   */\n  0x00\n    /* \"#utility.yul\":892:916   */\n  tag_29\n    /* \"#utility.yul\":910:915   */\n  dup3\n    /* \"#utility.yul\":892:916   */\n  tag_13\n  jump\t// in\ntag_29:\n    /* \"#utility.yul\":881:916   */\n  swap1\n  pop\n    /* \"#utility.yul\":826:922   */\n  swap2\n  swap1\n  pop\n  jump\t// out\n    /* \"#utility.yul\":928:1050   */\ntag_15:\n    /* \"#utility.yul\":1001:1025   */\n  tag_31\n    /* \"#utility.yul\":1019:1024   */\n  dup2\n    /* \"#utility.yul\":1001:1025   */\n  tag_14\n  jump\t// in\ntag_31:\n    /* \"#utility.yul\":994:999   */\n  dup2\n    /* \"#utility.yul\":991:1026   */\n  eq\n    /* \"#utility.yul\":981:1044   */\n  tag_32\n  jumpi\n    /* \"#utility.yul\":1040:1041   */\n  0x00\n    /* \"#utility.yul\":1037:1038   */\n  dup1\n    /* \"#utility.yul\":1030:1042   */\n  revert\n    /* \"#utility.yul\":981:1044   */\ntag_32:\n    /* \"#utility.yul\":928:1050   */\n  pop\n  jump\t// out\n    /* \"#utility.yul\":1056:1199   */\ntag_16:\n    /* \"#utility.yul\":1113:1118   */\n  0x00\n    /* \"#utility.yul\":1144:1150   */\n  dup2\n    /* \"#utility.yul\":1138:1151   */\n  mload\n    /* \"#utility.yul\":1129:1151   */\n  swap1\n  pop\n    /* \"#utility.yul\":1160:1193   */\n  tag_34\n    /* \"#utility.yul\":1187:1192   */\n  dup2\n    /* \"#utility.yul\":1160:1193   */\n  tag_15\n  jump\t// in\ntag_34:\n    /* \"#utility.yul\":1056:1199   */\n  swap3\n  swap2\n  pop\n  pop\n  jump\t// out\n    /* \"#utility.yul\":1205:1712   */\ntag_3:\n    /* \"#utility.yul\":1284:1290   */\n  0x00\n    /* \"#utility.yul\":1292:1298   */\n  dup1\n    /* \"#utility.yul\":1341:1343   */\n  0x40\n    /* \"#utility.yul\":1329:1338   */\n  dup4\n    /* \"#utility.yul\":1320:1327   */\n  dup6\n    /* \"#utility.yul\":1316:1339   */\n  sub\n    /* \"#utility.yul\":1312:1344   */\n  slt\n    /* \"#utility.yul\":1309:1428   */\n  iszero\n  tag_36\n  jumpi\n    /* \"#utility.yul\":1347:1426   */\n  tag_37\n  tag_8\n  jump\t// in\ntag_37:\n    /* \"#utility.yul\":1309:1428   */\ntag_36:\n    /* \"#utility.yul\":1467:1468   */\n  0x00\n    /* \"#utility.yul\":1492:1556   */\n  tag_38\n    /* \"#utility.yul\":1548:1555   */\n  dup6\n    /* \"#utility.yul\":1539:1545   */\n  dup3\n    /* \"#utility.yul\":1528:1537   */\n  dup7\n    /* \"#utility.yul\":1524:1546   */\n  add\n    /* \"#utility.yul\":1492:1556   */\n  tag_12\n  jump\t// in\ntag_38:\n    /* \"#utility.yul\":1482:1556   */\n  swap3\n  pop\n    /* \"#utility.yul\":1438:1566   */\n  pop\n    /* \"#utility.yul\":1605:1607   */\n  0x20\n    /* \"#utility.yul\":1631:1695   */\n  tag_39\n    /* \"#utility.yul\":1687:1694   */\n  dup6\n    /* \"#utility.yul\":1678:1684   */\n  dup3\n    /* \"#utility.yul\":1667:1676   */\n  dup7\n    /* \"#utility.yul\":1663:1685   */\n  add\n    /* \"#utility.yul\":1631:1695   */\n  tag_16\n  jump\t// in\ntag_39:\n    /* \"#utility.yul\":1621:1695   */\n  swap2\n  pop\n    /* \"#utility.yul\":1576:1705   */\n  pop\n    /* \"#utility.yul\":1205:1712   */\n  swap3\n  pop\n  swap3\n  swap1\n  pop\n  jump\t// out\n    /* \"Campaigns.sol\":558:2353  contract Campaign{... */\ntag_6:\n  dataSize(sub_0)\n  dup1\n  dataOffset(sub_0)\n  0x00\n  codecopy\n  0x00\n  return\nstop\n\nsub_0: assembly {\n        /* \"Campaigns.sol\":558:2353  contract Campaign{... */\n      mstore(0x40, 0x80)\n      jumpi(tag_1, lt(calldatasize, 0x04))\n      shr(0xe0, calldataload(0x00))\n      dup1\n      0x03441006\n      eq\n      tag_2\n      jumpi\n      dup1\n      0x481c6a75\n      eq\n      tag_3\n      jumpi\n      dup1\n      0x8a9cfd55\n      eq\n      tag_4\n      jumpi\n      dup1\n      0xd7bb99ba\n      eq\n      tag_5\n      jumpi\n      dup1\n      0xd7d1bbdb\n      eq\n      tag_6\n      jumpi\n    tag_1:\n      0x00\n      dup1\n      revert\n        /* \"Campaigns.sol\":2071:2350  function finalizeRequest(uint index)public payable isManager{... */\n    tag_2:\n      tag_7\n      0x04\n      dup1\n      calldatasize\n      sub\n      dup2\n      add\n      swap1\n      tag_8\n      swap2\n      swap1\n      tag_9\n      jump\t// in\n    tag_8:\n      tag_10\n      jump\t// in\n    tag_7:\n      stop\n        /* \"Campaigns.sol\":889:911  address public manager */\n    tag_3:\n      callvalue\n      dup1\n      iszero\n      tag_11\n      jumpi\n      0x00\n      dup1\n      revert\n    tag_11:\n      pop\n      tag_12\n      tag_13\n      jump\t// in\n    tag_12:\n      mload(0x40)\n      tag_14\n      swap2\n      swap1\n      tag_15\n      jump\t// in\n    tag_14:\n      mload(0x40)\n      dup1\n      swap2\n      sub\n      swap1\n      return\n        /* \"Campaigns.sol\":1421:1717  function createRequest (string memory desc,uint val,address payable rec)public isManager{... */\n    tag_4:\n      callvalue\n      dup1\n      iszero\n      tag_16\n      jumpi\n      0x00\n      dup1\n      revert\n    tag_16:\n      pop\n      tag_17\n      0x04\n      dup1\n      calldatasize\n      sub\n      dup2\n      add\n      swap1\n      tag_18\n      swap2\n      swap1\n      tag_19\n      jump\t// in\n    tag_18:\n      tag_20\n      jump\t// in\n    tag_17:\n      stop\n        /* \"Campaigns.sol\":1294:1415  function contribute () public payable restriction{... */\n    tag_5:\n      tag_21\n      tag_22\n      jump\t// in\n    tag_21:\n      stop\n        /* \"Campaigns.sol\":1723:2065  function approveRequest(uint index) public {... */\n    tag_6:\n      callvalue\n      dup1\n      iszero\n      tag_23\n      jumpi\n      0x00\n      dup1\n      revert\n    tag_23:\n      pop\n      tag_24\n      0x04\n      dup1\n      calldatasize\n      sub\n      dup2\n      add\n      swap1\n      tag_25\n      swap2\n      swap1\n      tag_9\n      jump\t// in\n    tag_25:\n      tag_26\n      jump\t// in\n    tag_24:\n      stop\n        /* \"Campaigns.sol\":2071:2350  function finalizeRequest(uint index)public payable isManager{... */\n    tag_10:\n        /* \"Campaigns.sol\":1260:1267  manager */\n      0x03\n      0x00\n      swap1\n      sload\n      swap1\n      0x0100\n      exp\n      swap1\n      div\n      0xffffffffffffffffffffffffffffffffffffffff\n      and\n        /* \"Campaigns.sol\":1248:1267  msg.sender==manager */\n      0xffffffffffffffffffffffffffffffffffffffff\n      and\n        /* \"Campaigns.sol\":1248:1258  msg.sender */\n      caller\n        /* \"Campaigns.sol\":1248:1267  msg.sender==manager */\n      0xffffffffffffffffffffffffffffffffffffffff\n      and\n      eq\n        /* \"Campaigns.sol\":1240:1268  require(msg.sender==manager) */\n      tag_28\n      jumpi\n      0x00\n      dup1\n      revert\n    tag_28:\n        /* \"Campaigns.sol\":2142:2161  Request storage req */\n      0x00\n        /* \"Campaigns.sol\":2162:2170  requests */\n      0x02\n        /* \"Campaigns.sol\":2162:2177  requests[index] */\n      0x00\n        /* \"Campaigns.sol\":2171:2176  index */\n      dup4\n        /* \"Campaigns.sol\":2162:2177  requests[index] */\n      dup2\n      mstore\n      0x20\n      add\n      swap1\n      dup2\n      mstore\n      0x20\n      add\n      0x00\n      keccak256\n        /* \"Campaigns.sol\":2142:2177  Request storage req=requests[index] */\n      swap1\n      pop\n        /* \"Campaigns.sol\":2197:2200  req */\n      dup1\n        /* \"Campaigns.sol\":2197:2209  req.complete */\n      0x02\n      add\n      0x14\n      swap1\n      sload\n      swap1\n      0x0100\n      exp\n      swap1\n      div\n      0xff\n      and\n        /* \"Campaigns.sol\":2196:2209  !req.complete */\n      iszero\n        /* \"Campaigns.sol\":2188:2210  require(!req.complete) */\n      tag_30\n      jumpi\n      0x00\n      dup1\n      revert\n    tag_30:\n        /* \"Campaigns.sol\":2267:2268  2 */\n      0x02\n        /* \"Campaigns.sol\":2252:2266  Numofapprovers */\n      sload(0x00)\n        /* \"Campaigns.sol\":2252:2268  Numofapprovers/2 */\n      tag_31\n      swap2\n      swap1\n      tag_32\n      jump\t// in\n    tag_31:\n        /* \"Campaigns.sol\":2229:2232  req */\n      dup2\n        /* \"Campaigns.sol\":2229:2250  req.Numberofapprovals */\n      0x03\n      add\n      sload\n        /* \"Campaigns.sol\":2229:2269  req.Numberofapprovals>(Numofapprovers/2) */\n      gt\n        /* \"Campaigns.sol\":2221:2270  require(req.Numberofapprovals>(Numofapprovers/2)) */\n      tag_33\n      jumpi\n      0x00\n      dup1\n      revert\n    tag_33:\n        /* \"Campaigns.sol\":2294:2298  true */\n      0x01\n        /* \"Campaigns.sol\":2281:2284  req */\n      dup2\n        /* \"Campaigns.sol\":2281:2293  req.complete */\n      0x02\n      add\n      0x14\n        /* \"Campaigns.sol\":2281:2298  req.complete=true */\n      0x0100\n      exp\n      dup2\n      sload\n      dup2\n      0xff\n      mul\n      not\n      and\n      swap1\n      dup4\n      iszero\n      iszero\n      mul\n      or\n      swap1\n      sstore\n      pop\n        /* \"Campaigns.sol\":2309:2312  req */\n      dup1\n        /* \"Campaigns.sol\":2309:2322  req.recipient */\n      0x02\n      add\n      0x00\n      swap1\n      sload\n      swap1\n      0x0100\n      exp\n      swap1\n      div\n      0xffffffffffffffffffffffffffffffffffffffff\n      and\n        /* \"Campaigns.sol\":2309:2331  req.recipient.transfer */\n      0xffffffffffffffffffffffffffffffffffffffff\n      and\n        /* \"Campaigns.sol\":2309:2342  req.recipient.transfer(req.value) */\n      0x08fc\n        /* \"Campaigns.sol\":2332:2335  req */\n      dup3\n        /* \"Campaigns.sol\":2332:2341  req.value */\n      0x01\n      add\n      sload\n        /* \"Campaigns.sol\":2309:2342  req.recipient.transfer(req.value) */\n      swap1\n      dup2\n      iszero\n      mul\n      swap1\n      mload(0x40)\n      0x00\n      mload(0x40)\n      dup1\n      dup4\n      sub\n      dup2\n      dup6\n      dup9\n      dup9\n      call\n      swap4\n      pop\n      pop\n      pop\n      pop\n      iszero\n      dup1\n      iszero\n      tag_35\n      jumpi\n      returndatasize\n      0x00\n      dup1\n      returndatacopy\n      revert(0x00, returndatasize)\n    tag_35:\n      pop\n        /* \"Campaigns.sol\":2131:2350  {... */\n      pop\n        /* \"Campaigns.sol\":2071:2350  function finalizeRequest(uint index)public payable isManager{... */\n      pop\n      jump\t// out\n        /* \"Campaigns.sol\":889:911  address public manager */\n    tag_13:\n      0x03\n      0x00\n      swap1\n      sload\n      swap1\n      0x0100\n      exp\n      swap1\n      div\n      0xffffffffffffffffffffffffffffffffffffffff\n      and\n      dup2\n      jump\t// out\n        /* \"Campaigns.sol\":1421:1717  function createRequest (string memory desc,uint val,address payable rec)public isManager{... */\n    tag_20:\n        /* \"Campaigns.sol\":1260:1267  manager */\n      0x03\n      0x00\n      swap1\n      sload\n      swap1\n      0x0100\n      exp\n      swap1\n      div\n      0xffffffffffffffffffffffffffffffffffffffff\n      and\n        /* \"Campaigns.sol\":1248:1267  msg.sender==manager */\n      0xffffffffffffffffffffffffffffffffffffffff\n      and\n        /* \"Campaigns.sol\":1248:1258  msg.sender */\n      caller\n        /* \"Campaigns.sol\":1248:1267  msg.sender==manager */\n      0xffffffffffffffffffffffffffffffffffffffff\n      and\n      eq\n        /* \"Campaigns.sol\":1240:1268  require(msg.sender==manager) */\n      tag_37\n      jumpi\n      0x00\n      dup1\n      revert\n    tag_37:\n        /* \"Campaigns.sol\":1520:1537  Request storage r */\n      0x00\n        /* \"Campaigns.sol\":1540:1548  requests */\n      0x02\n        /* \"Campaigns.sol\":1540:1563  requests[numRequests++] */\n      0x00\n        /* \"Campaigns.sol\":1549:1560  numRequests */\n      0x01\n      0x00\n        /* \"Campaigns.sol\":1549:1562  numRequests++ */\n      dup2\n      sload\n      dup1\n      swap3\n      swap2\n      swap1\n      tag_39\n      swap1\n      tag_40\n      jump\t// in\n    tag_39:\n      swap2\n      swap1\n      pop\n      sstore\n        /* \"Campaigns.sol\":1540:1563  requests[numRequests++] */\n      dup2\n      mstore\n      0x20\n      add\n      swap1\n      dup2\n      mstore\n      0x20\n      add\n      0x00\n      keccak256\n        /* \"Campaigns.sol\":1520:1563  Request storage r = requests[numRequests++] */\n      swap1\n      pop\n        /* \"Campaigns.sol\":1590:1594  desc */\n      dup4\n        /* \"Campaigns.sol\":1574:1575  r */\n      dup2\n        /* \"Campaigns.sol\":1574:1587  r.description */\n      0x00\n      add\n        /* \"Campaigns.sol\":1574:1594  r.description = desc */\n      swap1\n      dup2\n      tag_41\n      swap2\n      swap1\n      tag_42\n      jump\t// in\n    tag_41:\n      pop\n        /* \"Campaigns.sol\":1615:1618  val */\n      dup3\n        /* \"Campaigns.sol\":1605:1606  r */\n      dup2\n        /* \"Campaigns.sol\":1605:1612  r.value */\n      0x01\n      add\n        /* \"Campaigns.sol\":1605:1618  r.value = val */\n      dup2\n      swap1\n      sstore\n      pop\n        /* \"Campaigns.sol\":1643:1646  rec */\n      dup2\n        /* \"Campaigns.sol\":1629:1630  r */\n      dup2\n        /* \"Campaigns.sol\":1629:1640  r.recipient */\n      0x02\n      add\n      0x00\n        /* \"Campaigns.sol\":1629:1646  r.recipient = rec */\n      0x0100\n      exp\n      dup2\n      sload\n      dup2\n      0xffffffffffffffffffffffffffffffffffffffff\n      mul\n      not\n      and\n      swap1\n      dup4\n      0xffffffffffffffffffffffffffffffffffffffff\n      and\n      mul\n      or\n      swap1\n      sstore\n      pop\n        /* \"Campaigns.sol\":1670:1675  false */\n      0x00\n        /* \"Campaigns.sol\":1657:1658  r */\n      dup2\n        /* \"Campaigns.sol\":1657:1667  r.complete */\n      0x02\n      add\n      0x14\n        /* \"Campaigns.sol\":1657:1675  r.complete = false */\n      0x0100\n      exp\n      dup2\n      sload\n      dup2\n      0xff\n      mul\n      not\n      and\n      swap1\n      dup4\n      iszero\n      iszero\n      mul\n      or\n      swap1\n      sstore\n      pop\n        /* \"Campaigns.sol\":1708:1709  0 */\n      0x00\n        /* \"Campaigns.sol\":1686:1687  r */\n      dup2\n        /* \"Campaigns.sol\":1686:1705  r.Numberofapprovals */\n      0x03\n      add\n        /* \"Campaigns.sol\":1686:1709  r.Numberofapprovals = 0 */\n      dup2\n      swap1\n      sstore\n      pop\n        /* \"Campaigns.sol\":1509:1717  {... */\n      pop\n        /* \"Campaigns.sol\":1421:1717  function createRequest (string memory desc,uint val,address payable rec)public isManager{... */\n      pop\n      pop\n      pop\n      jump\t// out\n        /* \"Campaigns.sol\":1294:1415  function contribute () public payable restriction{... */\n    tag_22:\n        /* \"Campaigns.sol\":1181:1182  0 */\n      0x00\n        /* \"Campaigns.sol\":1171:1180  msg.value */\n      callvalue\n        /* \"Campaigns.sol\":1171:1182  msg.value>0 */\n      gt\n        /* \"Campaigns.sol\":1163:1183  require(msg.value>0) */\n      tag_44\n      jumpi\n      0x00\n      dup1\n      revert\n    tag_44:\n        /* \"Campaigns.sol\":1376:1380  true */\n      0x01\n        /* \"Campaigns.sol\":1354:1363  approvers */\n      0x05\n        /* \"Campaigns.sol\":1354:1375  approvers[msg.sender] */\n      0x00\n        /* \"Campaigns.sol\":1364:1374  msg.sender */\n      caller\n        /* \"Campaigns.sol\":1354:1375  approvers[msg.sender] */\n      0xffffffffffffffffffffffffffffffffffffffff\n      and\n      0xffffffffffffffffffffffffffffffffffffffff\n      and\n      dup2\n      mstore\n      0x20\n      add\n      swap1\n      dup2\n      mstore\n      0x20\n      add\n      0x00\n      keccak256\n      0x00\n        /* \"Campaigns.sol\":1354:1380  approvers[msg.sender]=true */\n      0x0100\n      exp\n      dup2\n      sload\n      dup2\n      0xff\n      mul\n      not\n      and\n      swap1\n      dup4\n      iszero\n      iszero\n      mul\n      or\n      swap1\n      sstore\n      pop\n        /* \"Campaigns.sol\":1391:1405  Numofapprovers */\n      0x00\n      dup1\n        /* \"Campaigns.sol\":1391:1407  Numofapprovers++ */\n      dup2\n      sload\n      dup1\n      swap3\n      swap2\n      swap1\n      tag_46\n      swap1\n      tag_40\n      jump\t// in\n    tag_46:\n      swap2\n      swap1\n      pop\n      sstore\n      pop\n        /* \"Campaigns.sol\":1294:1415  function contribute () public payable restriction{... */\n      jump\t// out\n        /* \"Campaigns.sol\":1723:2065  function approveRequest(uint index) public {... */\n    tag_26:\n        /* \"Campaigns.sol\":1777:1796  Request storage req */\n      0x00\n        /* \"Campaigns.sol\":1798:1806  requests */\n      0x02\n        /* \"Campaigns.sol\":1798:1813  requests[index] */\n      0x00\n        /* \"Campaigns.sol\":1807:1812  index */\n      dup4\n        /* \"Campaigns.sol\":1798:1813  requests[index] */\n      dup2\n      mstore\n      0x20\n      add\n      swap1\n      dup2\n      mstore\n      0x20\n      add\n      0x00\n      keccak256\n        /* \"Campaigns.sol\":1777:1813  Request storage req= requests[index] */\n      swap1\n      pop\n        /* \"Campaigns.sol\":1834:1843  approvers */\n      0x05\n        /* \"Campaigns.sol\":1834:1855  approvers[msg.sender] */\n      0x00\n        /* \"Campaigns.sol\":1844:1854  msg.sender */\n      caller\n        /* \"Campaigns.sol\":1834:1855  approvers[msg.sender] */\n      0xffffffffffffffffffffffffffffffffffffffff\n      and\n      0xffffffffffffffffffffffffffffffffffffffff\n      and\n      dup2\n      mstore\n      0x20\n      add\n      swap1\n      dup2\n      mstore\n      0x20\n      add\n      0x00\n      keccak256\n      0x00\n      swap1\n      sload\n      swap1\n      0x0100\n      exp\n      swap1\n      div\n      0xff\n      and\n        /* \"Campaigns.sol\":1826:1856  require(approvers[msg.sender]) */\n      tag_48\n      jumpi\n      0x00\n      dup1\n      revert\n    tag_48:\n        /* \"Campaigns.sol\":1912:1915  req */\n      dup1\n        /* \"Campaigns.sol\":1912:1925  req.approvals */\n      0x04\n      add\n        /* \"Campaigns.sol\":1912:1937  req.approvals[msg.sender] */\n      0x00\n        /* \"Campaigns.sol\":1926:1936  msg.sender */\n      caller\n        /* \"Campaigns.sol\":1912:1937  req.approvals[msg.sender] */\n      0xffffffffffffffffffffffffffffffffffffffff\n      and\n      0xffffffffffffffffffffffffffffffffffffffff\n      and\n      dup2\n      mstore\n      0x20\n      add\n      swap1\n      dup2\n      mstore\n      0x20\n      add\n      0x00\n      keccak256\n      0x00\n      swap1\n      sload\n      swap1\n      0x0100\n      exp\n      swap1\n      div\n      0xff\n      and\n        /* \"Campaigns.sol\":1911:1937  !req.approvals[msg.sender] */\n      iszero\n        /* \"Campaigns.sol\":1903:1938  require(!req.approvals[msg.sender]) */\n      tag_49\n      jumpi\n      0x00\n      dup1\n      revert\n    tag_49:\n        /* \"Campaigns.sol\":2019:2023  true */\n      0x01\n        /* \"Campaigns.sol\":1993:1996  req */\n      dup2\n        /* \"Campaigns.sol\":1993:2006  req.approvals */\n      0x04\n      add\n        /* \"Campaigns.sol\":1993:2018  req.approvals[msg.sender] */\n      0x00\n        /* \"Campaigns.sol\":2007:2017  msg.sender */\n      caller\n        /* \"Campaigns.sol\":1993:2018  req.approvals[msg.sender] */\n      0xffffffffffffffffffffffffffffffffffffffff\n      and\n      0xffffffffffffffffffffffffffffffffffffffff\n      and\n      dup2\n      mstore\n      0x20\n      add\n      swap1\n      dup2\n      mstore\n      0x20\n      add\n      0x00\n      keccak256\n      0x00\n        /* \"Campaigns.sol\":1993:2023  req.approvals[msg.sender]=true */\n      0x0100\n      exp\n      dup2\n      sload\n      dup2\n      0xff\n      mul\n      not\n      and\n      swap1\n      dup4\n      iszero\n      iszero\n      mul\n      or\n      swap1\n      sstore\n      pop\n        /* \"Campaigns.sol\":2034:2037  req */\n      dup1\n        /* \"Campaigns.sol\":2034:2055  req.Numberofapprovals */\n      0x03\n      add\n      0x00\n        /* \"Campaigns.sol\":2034:2057  req.Numberofapprovals++ */\n      dup2\n      sload\n      dup1\n      swap3\n      swap2\n      swap1\n      tag_50\n      swap1\n      tag_40\n      jump\t// in\n    tag_50:\n      swap2\n      swap1\n      pop\n      sstore\n      pop\n        /* \"Campaigns.sol\":1766:2065  {... */\n      pop\n        /* \"Campaigns.sol\":1723:2065  function approveRequest(uint index) public {... */\n      pop\n      jump\t// out\n        /* \"#utility.yul\":7:82   */\n    tag_51:\n        /* \"#utility.yul\":40:46   */\n      0x00\n        /* \"#utility.yul\":73:75   */\n      0x40\n        /* \"#utility.yul\":67:76   */\n      mload\n        /* \"#utility.yul\":57:76   */\n      swap1\n      pop\n        /* \"#utility.yul\":7:82   */\n      swap1\n      jump\t// out\n        /* \"#utility.yul\":88:205   */\n    tag_52:\n        /* \"#utility.yul\":197:198   */\n      0x00\n        /* \"#utility.yul\":194:195   */\n      dup1\n        /* \"#utility.yul\":187:199   */\n      revert\n        /* \"#utility.yul\":211:328   */\n    tag_53:\n        /* \"#utility.yul\":320:321   */\n      0x00\n        /* \"#utility.yul\":317:318   */\n      dup1\n        /* \"#utility.yul\":310:322   */\n      revert\n        /* \"#utility.yul\":334:411   */\n    tag_54:\n        /* \"#utility.yul\":371:378   */\n      0x00\n        /* \"#utility.yul\":400:405   */\n      dup2\n        /* \"#utility.yul\":389:405   */\n      swap1\n      pop\n        /* \"#utility.yul\":334:411   */\n      swap2\n      swap1\n      pop\n      jump\t// out\n        /* \"#utility.yul\":417:539   */\n    tag_55:\n        /* \"#utility.yul\":490:514   */\n      tag_99\n        /* \"#utility.yul\":508:513   */\n      dup2\n        /* \"#utility.yul\":490:514   */\n      tag_54\n      jump\t// in\n    tag_99:\n        /* \"#utility.yul\":483:488   */\n      dup2\n        /* \"#utility.yul\":480:515   */\n      eq\n        /* \"#utility.yul\":470:533   */\n      tag_100\n      jumpi\n        /* \"#utility.yul\":529:530   */\n      0x00\n        /* \"#utility.yul\":526:527   */\n      dup1\n        /* \"#utility.yul\":519:531   */\n      revert\n        /* \"#utility.yul\":470:533   */\n    tag_100:\n        /* \"#utility.yul\":417:539   */\n      pop\n      jump\t// out\n        /* \"#utility.yul\":545:684   */\n    tag_56:\n        /* \"#utility.yul\":591:596   */\n      0x00\n        /* \"#utility.yul\":629:635   */\n      dup2\n        /* \"#utility.yul\":616:636   */\n      calldataload\n        /* \"#utility.yul\":607:636   */\n      swap1\n      pop\n        /* \"#utility.yul\":645:678   */\n      tag_102\n        /* \"#utility.yul\":672:677   */\n      dup2\n        /* \"#utility.yul\":645:678   */\n      tag_55\n      jump\t// in\n    tag_102:\n        /* \"#utility.yul\":545:684   */\n      swap3\n      swap2\n      pop\n      pop\n      jump\t// out\n        /* \"#utility.yul\":690:1019   */\n    tag_9:\n        /* \"#utility.yul\":749:755   */\n      0x00\n        /* \"#utility.yul\":798:800   */\n      0x20\n        /* \"#utility.yul\":786:795   */\n      dup3\n        /* \"#utility.yul\":777:784   */\n      dup5\n        /* \"#utility.yul\":773:796   */\n      sub\n        /* \"#utility.yul\":769:801   */\n      slt\n        /* \"#utility.yul\":766:885   */\n      iszero\n      tag_104\n      jumpi\n        /* \"#utility.yul\":804:883   */\n      tag_105\n      tag_52\n      jump\t// in\n    tag_105:\n        /* \"#utility.yul\":766:885   */\n    tag_104:\n        /* \"#utility.yul\":924:925   */\n      0x00\n        /* \"#utility.yul\":949:1002   */\n      tag_106\n        /* \"#utility.yul\":994:1001   */\n      dup5\n        /* \"#utility.yul\":985:991   */\n      dup3\n        /* \"#utility.yul\":974:983   */\n      dup6\n        /* \"#utility.yul\":970:992   */\n      add\n        /* \"#utility.yul\":949:1002   */\n      tag_56\n      jump\t// in\n    tag_106:\n        /* \"#utility.yul\":939:1002   */\n      swap2\n      pop\n        /* \"#utility.yul\":895:1012   */\n      pop\n        /* \"#utility.yul\":690:1019   */\n      swap3\n      swap2\n      pop\n      pop\n      jump\t// out\n        /* \"#utility.yul\":1025:1151   */\n    tag_57:\n        /* \"#utility.yul\":1062:1069   */\n      0x00\n        /* \"#utility.yul\":1102:1144   */\n      0xffffffffffffffffffffffffffffffffffffffff\n        /* \"#utility.yul\":1095:1100   */\n      dup3\n        /* \"#utility.yul\":1091:1145   */\n      and\n        /* \"#utility.yul\":1080:1145   */\n      swap1\n      pop\n        /* \"#utility.yul\":1025:1151   */\n      swap2\n      swap1\n      pop\n      jump\t// out\n        /* \"#utility.yul\":1157:1253   */\n    tag_58:\n        /* \"#utility.yul\":1194:1201   */\n      0x00\n        /* \"#utility.yul\":1223:1247   */\n      tag_109\n        /* \"#utility.yul\":1241:1246   */\n      dup3\n        /* \"#utility.yul\":1223:1247   */\n      tag_57\n      jump\t// in\n    tag_109:\n        /* \"#utility.yul\":1212:1247   */\n      swap1\n      pop\n        /* \"#utility.yul\":1157:1253   */\n      swap2\n      swap1\n      pop\n      jump\t// out\n        /* \"#utility.yul\":1259:1377   */\n    tag_59:\n        /* \"#utility.yul\":1346:1370   */\n      tag_111\n        /* \"#utility.yul\":1364:1369   */\n      dup2\n        /* \"#utility.yul\":1346:1370   */\n      tag_58\n      jump\t// in\n    tag_111:\n        /* \"#utility.yul\":1341:1344   */\n      dup3\n        /* \"#utility.yul\":1334:1371   */\n      mstore\n        /* \"#utility.yul\":1259:1377   */\n      pop\n      pop\n      jump\t// out\n        /* \"#utility.yul\":1383:1605   */\n    tag_15:\n        /* \"#utility.yul\":1476:1480   */\n      0x00\n        /* \"#utility.yul\":1514:1516   */\n      0x20\n        /* \"#utility.yul\":1503:1512   */\n      dup3\n        /* \"#utility.yul\":1499:1517   */\n      add\n        /* \"#utility.yul\":1491:1517   */\n      swap1\n      pop\n        /* \"#utility.yul\":1527:1598   */\n      tag_113\n        /* \"#utility.yul\":1595:1596   */\n      0x00\n        /* \"#utility.yul\":1584:1593   */\n      dup4\n        /* \"#utility.yul\":1580:1597   */\n      add\n        /* \"#utility.yul\":1571:1577   */\n      dup5\n        /* \"#utility.yul\":1527:1598   */\n      tag_59\n      jump\t// in\n    tag_113:\n        /* \"#utility.yul\":1383:1605   */\n      swap3\n      swap2\n      pop\n      pop\n      jump\t// out\n        /* \"#utility.yul\":1611:1728   */\n    tag_60:\n        /* \"#utility.yul\":1720:1721   */\n      0x00\n        /* \"#utility.yul\":1717:1718   */\n      dup1\n        /* \"#utility.yul\":1710:1722   */\n      revert\n        /* \"#utility.yul\":1734:1851   */\n    tag_61:\n        /* \"#utility.yul\":1843:1844   */\n      0x00\n        /* \"#utility.yul\":1840:1841   */\n      dup1\n        /* \"#utility.yul\":1833:1845   */\n      revert\n        /* \"#utility.yul\":1857:1959   */\n    tag_62:\n        /* \"#utility.yul\":1898:1904   */\n      0x00\n        /* \"#utility.yul\":1949:1951   */\n      0x1f\n        /* \"#utility.yul\":1945:1952   */\n      not\n        /* \"#utility.yul\":1940:1942   */\n      0x1f\n        /* \"#utility.yul\":1933:1938   */\n      dup4\n        /* \"#utility.yul\":1929:1943   */\n      add\n        /* \"#utility.yul\":1925:1953   */\n      and\n        /* \"#utility.yul\":1915:1953   */\n      swap1\n      pop\n        /* \"#utility.yul\":1857:1959   */\n      swap2\n      swap1\n      pop\n      jump\t// out\n        /* \"#utility.yul\":1965:2145   */\n    tag_63:\n        /* \"#utility.yul\":2013:2090   */\n      0x4e487b7100000000000000000000000000000000000000000000000000000000\n        /* \"#utility.yul\":2010:2011   */\n      0x00\n        /* \"#utility.yul\":2003:2091   */\n      mstore\n        /* \"#utility.yul\":2110:2114   */\n      0x41\n        /* \"#utility.yul\":2107:2108   */\n      0x04\n        /* \"#utility.yul\":2100:2115   */\n      mstore\n        /* \"#utility.yul\":2134:2138   */\n      0x24\n        /* \"#utility.yul\":2131:2132   */\n      0x00\n        /* \"#utility.yul\":2124:2139   */\n      revert\n        /* \"#utility.yul\":2151:2432   */\n    tag_64:\n        /* \"#utility.yul\":2234:2261   */\n      tag_119\n        /* \"#utility.yul\":2256:2260   */\n      dup3\n        /* \"#utility.yul\":2234:2261   */\n      tag_62\n      jump\t// in\n    tag_119:\n        /* \"#utility.yul\":2226:2232   */\n      dup2\n        /* \"#utility.yul\":2222:2262   */\n      add\n        /* \"#utility.yul\":2364:2370   */\n      dup2\n        /* \"#utility.yul\":2352:2362   */\n      dup2\n        /* \"#utility.yul\":2349:2371   */\n      lt\n        /* \"#utility.yul\":2328:2346   */\n      0xffffffffffffffff\n        /* \"#utility.yul\":2316:2326   */\n      dup3\n        /* \"#utility.yul\":2313:2347   */\n      gt\n        /* \"#utility.yul\":2310:2372   */\n      or\n        /* \"#utility.yul\":2307:2395   */\n      iszero\n      tag_120\n      jumpi\n        /* \"#utility.yul\":2375:2393   */\n      tag_121\n      tag_63\n      jump\t// in\n    tag_121:\n        /* \"#utility.yul\":2307:2395   */\n    tag_120:\n        /* \"#utility.yul\":2415:2425   */\n      dup1\n        /* \"#utility.yul\":2411:2413   */\n      0x40\n        /* \"#utility.yul\":2404:2426   */\n      mstore\n        /* \"#utility.yul\":2194:2432   */\n      pop\n        /* \"#utility.yul\":2151:2432   */\n      pop\n      pop\n      jump\t// out\n        /* \"#utility.yul\":2438:2567   */\n    tag_65:\n        /* \"#utility.yul\":2472:2478   */\n      0x00\n        /* \"#utility.yul\":2499:2519   */\n      tag_123\n      tag_51\n      jump\t// in\n    tag_123:\n        /* \"#utility.yul\":2489:2519   */\n      swap1\n      pop\n        /* \"#utility.yul\":2528:2561   */\n      tag_124\n        /* \"#utility.yul\":2556:2560   */\n      dup3\n        /* \"#utility.yul\":2548:2554   */\n      dup3\n        /* \"#utility.yul\":2528:2561   */\n      tag_64\n      jump\t// in\n    tag_124:\n        /* \"#utility.yul\":2438:2567   */\n      swap2\n      swap1\n      pop\n      jump\t// out\n        /* \"#utility.yul\":2573:2881   */\n    tag_66:\n        /* \"#utility.yul\":2635:2639   */\n      0x00\n        /* \"#utility.yul\":2725:2743   */\n      0xffffffffffffffff\n        /* \"#utility.yul\":2717:2723   */\n      dup3\n        /* \"#utility.yul\":2714:2744   */\n      gt\n        /* \"#utility.yul\":2711:2767   */\n      iszero\n      tag_126\n      jumpi\n        /* \"#utility.yul\":2747:2765   */\n      tag_127\n      tag_63\n      jump\t// in\n    tag_127:\n        /* \"#utility.yul\":2711:2767   */\n    tag_126:\n        /* \"#utility.yul\":2785:2814   */\n      tag_128\n        /* \"#utility.yul\":2807:2813   */\n      dup3\n        /* \"#utility.yul\":2785:2814   */\n      tag_62\n      jump\t// in\n    tag_128:\n        /* \"#utility.yul\":2777:2814   */\n      swap1\n      pop\n        /* \"#utility.yul\":2869:2873   */\n      0x20\n        /* \"#utility.yul\":2863:2867   */\n      dup2\n        /* \"#utility.yul\":2859:2874   */\n      add\n        /* \"#utility.yul\":2851:2874   */\n      swap1\n      pop\n        /* \"#utility.yul\":2573:2881   */\n      swap2\n      swap1\n      pop\n      jump\t// out\n        /* \"#utility.yul\":2887:3033   */\n    tag_67:\n        /* \"#utility.yul\":2984:2990   */\n      dup3\n        /* \"#utility.yul\":2979:2982   */\n      dup2\n        /* \"#utility.yul\":2974:2977   */\n      dup4\n        /* \"#utility.yul\":2961:2991   */\n      calldatacopy\n        /* \"#utility.yul\":3025:3026   */\n      0x00\n        /* \"#utility.yul\":3016:3022   */\n      dup4\n        /* \"#utility.yul\":3011:3014   */\n      dup4\n        /* \"#utility.yul\":3007:3023   */\n      add\n        /* \"#utility.yul\":3000:3027   */\n      mstore\n        /* \"#utility.yul\":2887:3033   */\n      pop\n      pop\n      pop\n      jump\t// out\n        /* \"#utility.yul\":3039:3464   */\n    tag_68:\n        /* \"#utility.yul\":3117:3122   */\n      0x00\n        /* \"#utility.yul\":3142:3208   */\n      tag_131\n        /* \"#utility.yul\":3158:3207   */\n      tag_132\n        /* \"#utility.yul\":3200:3206   */\n      dup5\n        /* \"#utility.yul\":3158:3207   */\n      tag_66\n      jump\t// in\n    tag_132:\n        /* \"#utility.yul\":3142:3208   */\n      tag_65\n      jump\t// in\n    tag_131:\n        /* \"#utility.yul\":3133:3208   */\n      swap1\n      pop\n        /* \"#utility.yul\":3231:3237   */\n      dup3\n        /* \"#utility.yul\":3224:3229   */\n      dup2\n        /* \"#utility.yul\":3217:3238   */\n      mstore\n        /* \"#utility.yul\":3269:3273   */\n      0x20\n        /* \"#utility.yul\":3262:3267   */\n      dup2\n        /* \"#utility.yul\":3258:3274   */\n      add\n        /* \"#utility.yul\":3307:3310   */\n      dup5\n        /* \"#utility.yul\":3298:3304   */\n      dup5\n        /* \"#utility.yul\":3293:3296   */\n      dup5\n        /* \"#utility.yul\":3289:3305   */\n      add\n        /* \"#utility.yul\":3286:3311   */\n      gt\n        /* \"#utility.yul\":3283:3395   */\n      iszero\n      tag_133\n      jumpi\n        /* \"#utility.yul\":3314:3393   */\n      tag_134\n      tag_61\n      jump\t// in\n    tag_134:\n        /* \"#utility.yul\":3283:3395   */\n    tag_133:\n        /* \"#utility.yul\":3404:3458   */\n      tag_135\n        /* \"#utility.yul\":3451:3457   */\n      dup5\n        /* \"#utility.yul\":3446:3449   */\n      dup3\n        /* \"#utility.yul\":3441:3444   */\n      dup6\n        /* \"#utility.yul\":3404:3458   */\n      tag_67\n      jump\t// in\n    tag_135:\n        /* \"#utility.yul\":3123:3464   */\n      pop\n        /* \"#utility.yul\":3039:3464   */\n      swap4\n      swap3\n      pop\n      pop\n      pop\n      jump\t// out\n        /* \"#utility.yul\":3484:3824   */\n    tag_69:\n        /* \"#utility.yul\":3540:3545   */\n      0x00\n        /* \"#utility.yul\":3589:3592   */\n      dup3\n        /* \"#utility.yul\":3582:3586   */\n      0x1f\n        /* \"#utility.yul\":3574:3580   */\n      dup4\n        /* \"#utility.yul\":3570:3587   */\n      add\n        /* \"#utility.yul\":3566:3593   */\n      slt\n        /* \"#utility.yul\":3556:3678   */\n      tag_137\n      jumpi\n        /* \"#utility.yul\":3597:3676   */\n      tag_138\n      tag_60\n      jump\t// in\n    tag_138:\n        /* \"#utility.yul\":3556:3678   */\n    tag_137:\n        /* \"#utility.yul\":3714:3720   */\n      dup2\n        /* \"#utility.yul\":3701:3721   */\n      calldataload\n        /* \"#utility.yul\":3739:3818   */\n      tag_139\n        /* \"#utility.yul\":3814:3817   */\n      dup5\n        /* \"#utility.yul\":3806:3812   */\n      dup3\n        /* \"#utility.yul\":3799:3803   */\n      0x20\n        /* \"#utility.yul\":3791:3797   */\n      dup7\n        /* \"#utility.yul\":3787:3804   */\n      add\n        /* \"#utility.yul\":3739:3818   */\n      tag_68\n      jump\t// in\n    tag_139:\n        /* \"#utility.yul\":3730:3818   */\n      swap2\n      pop\n        /* \"#utility.yul\":3546:3824   */\n      pop\n        /* \"#utility.yul\":3484:3824   */\n      swap3\n      swap2\n      pop\n      pop\n      jump\t// out\n        /* \"#utility.yul\":3830:3934   */\n    tag_70:\n        /* \"#utility.yul\":3875:3882   */\n      0x00\n        /* \"#utility.yul\":3904:3928   */\n      tag_141\n        /* \"#utility.yul\":3922:3927   */\n      dup3\n        /* \"#utility.yul\":3904:3928   */\n      tag_57\n      jump\t// in\n    tag_141:\n        /* \"#utility.yul\":3893:3928   */\n      swap1\n      pop\n        /* \"#utility.yul\":3830:3934   */\n      swap2\n      swap1\n      pop\n      jump\t// out\n        /* \"#utility.yul\":3940:4078   */\n    tag_71:\n        /* \"#utility.yul\":4021:4053   */\n      tag_143\n        /* \"#utility.yul\":4047:4052   */\n      dup2\n        /* \"#utility.yul\":4021:4053   */\n      tag_70\n      jump\t// in\n    tag_143:\n        /* \"#utility.yul\":4014:4019   */\n      dup2\n        /* \"#utility.yul\":4011:4054   */\n      eq\n        /* \"#utility.yul\":4001:4072   */\n      tag_144\n      jumpi\n        /* \"#utility.yul\":4068:4069   */\n      0x00\n        /* \"#utility.yul\":4065:4066   */\n      dup1\n        /* \"#utility.yul\":4058:4070   */\n      revert\n        /* \"#utility.yul\":4001:4072   */\n    tag_144:\n        /* \"#utility.yul\":3940:4078   */\n      pop\n      jump\t// out\n        /* \"#utility.yul\":4084:4239   */\n    tag_72:\n        /* \"#utility.yul\":4138:4143   */\n      0x00\n        /* \"#utility.yul\":4176:4182   */\n      dup2\n        /* \"#utility.yul\":4163:4183   */\n      calldataload\n        /* \"#utility.yul\":4154:4183   */\n      swap1\n      pop\n        /* \"#utility.yul\":4192:4233   */\n      tag_146\n        /* \"#utility.yul\":4227:4232   */\n      dup2\n        /* \"#utility.yul\":4192:4233   */\n      tag_71\n      jump\t// in\n    tag_146:\n        /* \"#utility.yul\":4084:4239   */\n      swap3\n      swap2\n      pop\n      pop\n      jump\t// out\n        /* \"#utility.yul\":4245:5060   */\n    tag_19:\n        /* \"#utility.yul\":4340:4346   */\n      0x00\n        /* \"#utility.yul\":4348:4354   */\n      dup1\n        /* \"#utility.yul\":4356:4362   */\n      0x00\n        /* \"#utility.yul\":4405:4407   */\n      0x60\n        /* \"#utility.yul\":4393:4402   */\n      dup5\n        /* \"#utility.yul\":4384:4391   */\n      dup7\n        /* \"#utility.yul\":4380:4403   */\n      sub\n        /* \"#utility.yul\":4376:4408   */\n      slt\n        /* \"#utility.yul\":4373:4492   */\n      iszero\n      tag_148\n      jumpi\n        /* \"#utility.yul\":4411:4490   */\n      tag_149\n      tag_52\n      jump\t// in\n    tag_149:\n        /* \"#utility.yul\":4373:4492   */\n    tag_148:\n        /* \"#utility.yul\":4559:4560   */\n      0x00\n        /* \"#utility.yul\":4548:4557   */\n      dup5\n        /* \"#utility.yul\":4544:4561   */\n      add\n        /* \"#utility.yul\":4531:4562   */\n      calldataload\n        /* \"#utility.yul\":4589:4607   */\n      0xffffffffffffffff\n        /* \"#utility.yul\":4581:4587   */\n      dup2\n        /* \"#utility.yul\":4578:4608   */\n      gt\n        /* \"#utility.yul\":4575:4692   */\n      iszero\n      tag_150\n      jumpi\n        /* \"#utility.yul\":4611:4690   */\n      tag_151\n      tag_53\n      jump\t// in\n    tag_151:\n        /* \"#utility.yul\":4575:4692   */\n    tag_150:\n        /* \"#utility.yul\":4716:4779   */\n      tag_152\n        /* \"#utility.yul\":4771:4778   */\n      dup7\n        /* \"#utility.yul\":4762:4768   */\n      dup3\n        /* \"#utility.yul\":4751:4760   */\n      dup8\n        /* \"#utility.yul\":4747:4769   */\n      add\n        /* \"#utility.yul\":4716:4779   */\n      tag_69\n      jump\t// in\n    tag_152:\n        /* \"#utility.yul\":4706:4779   */\n      swap4\n      pop\n        /* \"#utility.yul\":4502:4789   */\n      pop\n        /* \"#utility.yul\":4828:4830   */\n      0x20\n        /* \"#utility.yul\":4854:4907   */\n      tag_153\n        /* \"#utility.yul\":4899:4906   */\n      dup7\n        /* \"#utility.yul\":4890:4896   */\n      dup3\n        /* \"#utility.yul\":4879:4888   */\n      dup8\n        /* \"#utility.yul\":4875:4897   */\n      add\n        /* \"#utility.yul\":4854:4907   */\n      tag_56\n      jump\t// in\n    tag_153:\n        /* \"#utility.yul\":4844:4907   */\n      swap3\n      pop\n        /* \"#utility.yul\":4799:4917   */\n      pop\n        /* \"#utility.yul\":4956:4958   */\n      0x40\n        /* \"#utility.yul\":4982:5043   */\n      tag_154\n        /* \"#utility.yul\":5035:5042   */\n      dup7\n        /* \"#utility.yul\":5026:5032   */\n      dup3\n        /* \"#utility.yul\":5015:5024   */\n      dup8\n        /* \"#utility.yul\":5011:5033   */\n      add\n        /* \"#utility.yul\":4982:5043   */\n      tag_72\n      jump\t// in\n    tag_154:\n        /* \"#utility.yul\":4972:5043   */\n      swap2\n      pop\n        /* \"#utility.yul\":4927:5053   */\n      pop\n        /* \"#utility.yul\":4245:5060   */\n      swap3\n      pop\n      swap3\n      pop\n      swap3\n      jump\t// out\n        /* \"#utility.yul\":5066:5246   */\n    tag_73:\n        /* \"#utility.yul\":5114:5191   */\n      0x4e487b7100000000000000000000000000000000000000000000000000000000\n        /* \"#utility.yul\":5111:5112   */\n      0x00\n        /* \"#utility.yul\":5104:5192   */\n      mstore\n        /* \"#utility.yul\":5211:5215   */\n      0x12\n        /* \"#utility.yul\":5208:5209   */\n      0x04\n        /* \"#utility.yul\":5201:5216   */\n      mstore\n        /* \"#utility.yul\":5235:5239   */\n      0x24\n        /* \"#utility.yul\":5232:5233   */\n      0x00\n        /* \"#utility.yul\":5225:5240   */\n      revert\n        /* \"#utility.yul\":5252:5432   */\n    tag_74:\n        /* \"#utility.yul\":5300:5377   */\n      0x4e487b7100000000000000000000000000000000000000000000000000000000\n        /* \"#utility.yul\":5297:5298   */\n      0x00\n        /* \"#utility.yul\":5290:5378   */\n      mstore\n        /* \"#utility.yul\":5397:5401   */\n      0x11\n        /* \"#utility.yul\":5394:5395   */\n      0x04\n        /* \"#utility.yul\":5387:5402   */\n      mstore\n        /* \"#utility.yul\":5421:5425   */\n      0x24\n        /* \"#utility.yul\":5418:5419   */\n      0x00\n        /* \"#utility.yul\":5411:5426   */\n      revert\n        /* \"#utility.yul\":5438:5623   */\n    tag_32:\n        /* \"#utility.yul\":5478:5479   */\n      0x00\n        /* \"#utility.yul\":5495:5515   */\n      tag_158\n        /* \"#utility.yul\":5513:5514   */\n      dup3\n        /* \"#utility.yul\":5495:5515   */\n      tag_54\n      jump\t// in\n    tag_158:\n        /* \"#utility.yul\":5490:5515   */\n      swap2\n      pop\n        /* \"#utility.yul\":5529:5549   */\n      tag_159\n        /* \"#utility.yul\":5547:5548   */\n      dup4\n        /* \"#utility.yul\":5529:5549   */\n      tag_54\n      jump\t// in\n    tag_159:\n        /* \"#utility.yul\":5524:5549   */\n      swap3\n      pop\n        /* \"#utility.yul\":5568:5569   */\n      dup3\n        /* \"#utility.yul\":5558:5593   */\n      tag_160\n      jumpi\n        /* \"#utility.yul\":5573:5591   */\n      tag_161\n      tag_73\n      jump\t// in\n    tag_161:\n        /* \"#utility.yul\":5558:5593   */\n    tag_160:\n        /* \"#utility.yul\":5615:5616   */\n      dup3\n        /* \"#utility.yul\":5612:5613   */\n      dup3\n        /* \"#utility.yul\":5608:5617   */\n      div\n        /* \"#utility.yul\":5603:5617   */\n      swap1\n      pop\n        /* \"#utility.yul\":5438:5623   */\n      swap3\n      swap2\n      pop\n      pop\n      jump\t// out\n        /* \"#utility.yul\":5629:5862   */\n    tag_40:\n        /* \"#utility.yul\":5668:5671   */\n      0x00\n        /* \"#utility.yul\":5691:5715   */\n      tag_163\n        /* \"#utility.yul\":5709:5714   */\n      dup3\n        /* \"#utility.yul\":5691:5715   */\n      tag_54\n      jump\t// in\n    tag_163:\n        /* \"#utility.yul\":5682:5715   */\n      swap2\n      pop\n        /* \"#utility.yul\":5737:5803   */\n      0xffffffffffffffffffffffffffffffffffffffffffffffffffffffffffffffff\n        /* \"#utility.yul\":5730:5735   */\n      dup3\n        /* \"#utility.yul\":5727:5804   */\n      sub\n        /* \"#utility.yul\":5724:5827   */\n      tag_164\n      jumpi\n        /* \"#utility.yul\":5807:5825   */\n      tag_165\n      tag_74\n      jump\t// in\n    tag_165:\n        /* \"#utility.yul\":5724:5827   */\n    tag_164:\n        /* \"#utility.yul\":5854:5855   */\n      0x01\n        /* \"#utility.yul\":5847:5852   */\n      dup3\n        /* \"#utility.yul\":5843:5856   */\n      add\n        /* \"#utility.yul\":5836:5856   */\n      swap1\n      pop\n        /* \"#utility.yul\":5629:5862   */\n      swap2\n      swap1\n      pop\n      jump\t// out\n        /* \"#utility.yul\":5868:5967   */\n    tag_75:\n        /* \"#utility.yul\":5920:5926   */\n      0x00\n        /* \"#utility.yul\":5954:5959   */\n      dup2\n        /* \"#utility.yul\":5948:5960   */\n      mload\n        /* \"#utility.yul\":5938:5960   */\n      swap1\n      pop\n        /* \"#utility.yul\":5868:5967   */\n      swap2\n      swap1\n      pop\n      jump\t// out\n        /* \"#utility.yul\":5973:6153   */\n    tag_76:\n        /* \"#utility.yul\":6021:6098   */\n      0x4e487b7100000000000000000000000000000000000000000000000000000000\n        /* \"#utility.yul\":6018:6019   */\n      0x00\n        /* \"#utility.yul\":6011:6099   */\n      mstore\n        /* \"#utility.yul\":6118:6122   */\n      0x22\n        /* \"#utility.yul\":6115:6116   */\n      0x04\n        /* \"#utility.yul\":6108:6123   */\n      mstore\n        /* \"#utility.yul\":6142:6146   */\n      0x24\n        /* \"#utility.yul\":6139:6140   */\n      0x00\n        /* \"#utility.yul\":6132:6147   */\n      revert\n        /* \"#utility.yul\":6159:6479   */\n    tag_77:\n        /* \"#utility.yul\":6203:6209   */\n      0x00\n        /* \"#utility.yul\":6240:6241   */\n      0x02\n        /* \"#utility.yul\":6234:6238   */\n      dup3\n        /* \"#utility.yul\":6230:6242   */\n      div\n        /* \"#utility.yul\":6220:6242   */\n      swap1\n      pop\n        /* \"#utility.yul\":6287:6288   */\n      0x01\n        /* \"#utility.yul\":6281:6285   */\n      dup3\n        /* \"#utility.yul\":6277:6289   */\n      and\n        /* \"#utility.yul\":6308:6326   */\n      dup1\n        /* \"#utility.yul\":6298:6379   */\n      tag_169\n      jumpi\n        /* \"#utility.yul\":6364:6368   */\n      0x7f\n        /* \"#utility.yul\":6356:6362   */\n      dup3\n        /* \"#utility.yul\":6352:6369   */\n      and\n        /* \"#utility.yul\":6342:6369   */\n      swap2\n      pop\n        /* \"#utility.yul\":6298:6379   */\n    tag_169:\n        /* \"#utility.yul\":6426:6428   */\n      0x20\n        /* \"#utility.yul\":6418:6424   */\n      dup3\n        /* \"#utility.yul\":6415:6429   */\n      lt\n        /* \"#utility.yul\":6395:6413   */\n      dup2\n        /* \"#utility.yul\":6392:6430   */\n      sub\n        /* \"#utility.yul\":6389:6473   */\n      tag_170\n      jumpi\n        /* \"#utility.yul\":6445:6463   */\n      tag_171\n      tag_76\n      jump\t// in\n    tag_171:\n        /* \"#utility.yul\":6389:6473   */\n    tag_170:\n        /* \"#utility.yul\":6210:6479   */\n      pop\n        /* \"#utility.yul\":6159:6479   */\n      swap2\n      swap1\n      pop\n      jump\t// out\n        /* \"#utility.yul\":6485:6626   */\n    tag_78:\n        /* \"#utility.yul\":6534:6538   */\n      0x00\n        /* \"#utility.yul\":6557:6560   */\n      dup2\n        /* \"#utility.yul\":6549:6560   */\n      swap1\n      pop\n        /* \"#utility.yul\":6580:6583   */\n      dup2\n        /* \"#utility.yul\":6577:6578   */\n      0x00\n        /* \"#utility.yul\":6570:6584   */\n      mstore\n        /* \"#utility.yul\":6614:6618   */\n      0x20\n        /* \"#utility.yul\":6611:6612   */\n      0x00\n        /* \"#utility.yul\":6601:6619   */\n      keccak256\n        /* \"#utility.yul\":6593:6619   */\n      swap1\n      pop\n        /* \"#utility.yul\":6485:6626   */\n      swap2\n      swap1\n      pop\n      jump\t// out\n        /* \"#utility.yul\":6632:6725   */\n    tag_79:\n        /* \"#utility.yul\":6669:6675   */\n      0x00\n        /* \"#utility.yul\":6716:6718   */\n      0x20\n        /* \"#utility.yul\":6711:6713   */\n      0x1f\n        /* \"#utility.yul\":6704:6709   */\n      dup4\n        /* \"#utility.yul\":6700:6714   */\n      add\n        /* \"#utility.yul\":6696:6719   */\n      div\n        /* \"#utility.yul\":6686:6719   */\n      swap1\n      pop\n        /* \"#utility.yul\":6632:6725   */\n      swap2\n      swap1\n      pop\n      jump\t// out\n        /* \"#utility.yul\":6731:6838   */\n    tag_80:\n        /* \"#utility.yul\":6775:6783   */\n      0x00\n        /* \"#utility.yul\":6825:6830   */\n      dup3\n        /* \"#utility.yul\":6819:6823   */\n      dup3\n        /* \"#utility.yul\":6815:6831   */\n      shl\n        /* \"#utility.yul\":6794:6831   */\n      swap1\n      pop\n        /* \"#utility.yul\":6731:6838   */\n      swap3\n      swap2\n      pop\n      pop\n      jump\t// out\n        /* \"#utility.yul\":6844:7237   */\n    tag_81:\n        /* \"#utility.yul\":6913:6919   */\n      0x00\n        /* \"#utility.yul\":6963:6964   */\n      0x08\n        /* \"#utility.yul\":6951:6961   */\n      dup4\n        /* \"#utility.yul\":6947:6965   */\n      mul\n        /* \"#utility.yul\":6986:7083   */\n      tag_176\n        /* \"#utility.yul\":7016:7082   */\n      0xffffffffffffffffffffffffffffffffffffffffffffffffffffffffffffffff\n        /* \"#utility.yul\":7005:7014   */\n      dup3\n        /* \"#utility.yul\":6986:7083   */\n      tag_80\n      jump\t// in\n    tag_176:\n        /* \"#utility.yul\":7104:7143   */\n      tag_177\n        /* \"#utility.yul\":7134:7142   */\n      dup7\n        /* \"#utility.yul\":7123:7132   */\n      dup4\n        /* \"#utility.yul\":7104:7143   */\n      tag_80\n      jump\t// in\n    tag_177:\n        /* \"#utility.yul\":7092:7143   */\n      swap6\n      pop\n        /* \"#utility.yul\":7176:7180   */\n      dup1\n        /* \"#utility.yul\":7172:7181   */\n      not\n        /* \"#utility.yul\":7165:7170   */\n      dup5\n        /* \"#utility.yul\":7161:7182   */\n      and\n        /* \"#utility.yul\":7152:7182   */\n      swap4\n      pop\n        /* \"#utility.yul\":7225:7229   */\n      dup1\n        /* \"#utility.yul\":7215:7223   */\n      dup7\n        /* \"#utility.yul\":7211:7230   */\n      and\n        /* \"#utility.yul\":7204:7209   */\n      dup5\n        /* \"#utility.yul\":7201:7231   */\n      or\n        /* \"#utility.yul\":7191:7231   */\n      swap3\n      pop\n        /* \"#utility.yul\":6920:7237   */\n      pop\n      pop\n        /* \"#utility.yul\":6844:7237   */\n      swap4\n      swap3\n      pop\n      pop\n      pop\n      jump\t// out\n        /* \"#utility.yul\":7243:7303   */\n    tag_82:\n        /* \"#utility.yul\":7271:7274   */\n      0x00\n        /* \"#utility.yul\":7292:7297   */\n      dup2\n        /* \"#utility.yul\":7285:7297   */\n      swap1\n      pop\n        /* \"#utility.yul\":7243:7303   */\n      swap2\n      swap1\n      pop\n      jump\t// out\n        /* \"#utility.yul\":7309:7451   */\n    tag_83:\n        /* \"#utility.yul\":7359:7368   */\n      0x00\n        /* \"#utility.yul\":7392:7445   */\n      tag_180\n        /* \"#utility.yul\":7410:7444   */\n      tag_181\n        /* \"#utility.yul\":7419:7443   */\n      tag_182\n        /* \"#utility.yul\":7437:7442   */\n      dup5\n        /* \"#utility.yul\":7419:7443   */\n      tag_54\n      jump\t// in\n    tag_182:\n        /* \"#utility.yul\":7410:7444   */\n      tag_82\n      jump\t// in\n    tag_181:\n        /* \"#utility.yul\":7392:7445   */\n      tag_54\n      jump\t// in\n    tag_180:\n        /* \"#utility.yul\":7379:7445   */\n      swap1\n      pop\n        /* \"#utility.yul\":7309:7451   */\n      swap2\n      swap1\n      pop\n      jump\t// out\n        /* \"#utility.yul\":7457:7532   */\n    tag_84:\n        /* \"#utility.yul\":7500:7503   */\n      0x00\n        /* \"#utility.yul\":7521:7526   */\n      dup2\n        /* \"#utility.yul\":7514:7526   */\n      swap1\n      pop\n        /* \"#utility.yul\":7457:7532   */\n      swap2\n      swap1\n      pop\n      jump\t// out\n        /* \"#utility.yul\":7538:7807   */\n    tag_85:\n        /* \"#utility.yul\":7648:7687   */\n      tag_185\n        /* \"#utility.yul\":7679:7686   */\n      dup4\n        /* \"#utility.yul\":7648:7687   */\n      tag_83\n      jump\t// in\n    tag_185:\n        /* \"#utility.yul\":7709:7800   */\n      tag_186\n        /* \"#utility.yul\":7758:7799   */\n      tag_187\n        /* \"#utility.yul\":7782:7798   */\n      dup3\n        /* \"#utility.yul\":7758:7799   */\n      tag_84\n      jump\t// in\n    tag_187:\n        /* \"#utility.yul\":7750:7756   */\n      dup5\n        /* \"#utility.yul\":7743:7747   */\n      dup5\n        /* \"#utility.yul\":7737:7748   */\n      sload\n        /* \"#utility.yul\":7709:7800   */\n      tag_81\n      jump\t// in\n    tag_186:\n        /* \"#utility.yul\":7703:7707   */\n      dup3\n        /* \"#utility.yul\":7696:7801   */\n      sstore\n        /* \"#utility.yul\":7614:7807   */\n      pop\n        /* \"#utility.yul\":7538:7807   */\n      pop\n      pop\n      pop\n      jump\t// out\n        /* \"#utility.yul\":7813:7886   */\n    tag_86:\n        /* \"#utility.yul\":7858:7861   */\n      0x00\n        /* \"#utility.yul\":7813:7886   */\n      swap1\n      jump\t// out\n        /* \"#utility.yul\":7892:8081   */\n    tag_87:\n        /* \"#utility.yul\":7969:8001   */\n      tag_190\n      tag_86\n      jump\t// in\n    tag_190:\n        /* \"#utility.yul\":8010:8075   */\n      tag_191\n        /* \"#utility.yul\":8068:8074   */\n      dup2\n        /* \"#utility.yul\":8060:8066   */\n      dup5\n        /* \"#utility.yul\":8054:8058   */\n      dup5\n        /* \"#utility.yul\":8010:8075   */\n      tag_85\n      jump\t// in\n    tag_191:\n        /* \"#utility.yul\":7945:8081   */\n      pop\n        /* \"#utility.yul\":7892:8081   */\n      pop\n      pop\n      jump\t// out\n        /* \"#utility.yul\":8087:8273   */\n    tag_88:\n        /* \"#utility.yul\":8147:8267   */\n    tag_193:\n        /* \"#utility.yul\":8164:8167   */\n      dup2\n        /* \"#utility.yul\":8157:8162   */\n      dup2\n        /* \"#utility.yul\":8154:8168   */\n      lt\n        /* \"#utility.yul\":8147:8267   */\n      iszero\n      tag_195\n      jumpi\n        /* \"#utility.yul\":8218:8257   */\n      tag_196\n        /* \"#utility.yul\":8255:8256   */\n      0x00\n        /* \"#utility.yul\":8248:8253   */\n      dup3\n        /* \"#utility.yul\":8218:8257   */\n      tag_87\n      jump\t// in\n    tag_196:\n        /* \"#utility.yul\":8191:8192   */\n      0x01\n        /* \"#utility.yul\":8184:8189   */\n      dup2\n        /* \"#utility.yul\":8180:8193   */\n      add\n        /* \"#utility.yul\":8171:8193   */\n      swap1\n      pop\n        /* \"#utility.yul\":8147:8267   */\n      jump(tag_193)\n    tag_195:\n        /* \"#utility.yul\":8087:8273   */\n      pop\n      pop\n      jump\t// out\n        /* \"#utility.yul\":8279:8822   */\n    tag_89:\n        /* \"#utility.yul\":8380:8382   */\n      0x1f\n        /* \"#utility.yul\":8375:8378   */\n      dup3\n        /* \"#utility.yul\":8372:8383   */\n      gt\n        /* \"#utility.yul\":8369:8815   */\n      iszero\n      tag_198\n      jumpi\n        /* \"#utility.yul\":8414:8452   */\n      tag_199\n        /* \"#utility.yul\":8446:8451   */\n      dup2\n        /* \"#utility.yul\":8414:8452   */\n      tag_78\n      jump\t// in\n    tag_199:\n        /* \"#utility.yul\":8498:8527   */\n      tag_200\n        /* \"#utility.yul\":8516:8526   */\n      dup5\n        /* \"#utility.yul\":8498:8527   */\n      tag_79\n      jump\t// in\n    tag_200:\n        /* \"#utility.yul\":8488:8496   */\n      dup2\n        /* \"#utility.yul\":8484:8528   */\n      add\n        /* \"#utility.yul\":8681:8683   */\n      0x20\n        /* \"#utility.yul\":8669:8679   */\n      dup6\n        /* \"#utility.yul\":8666:8684   */\n      lt\n        /* \"#utility.yul\":8663:8712   */\n      iszero\n      tag_201\n      jumpi\n        /* \"#utility.yul\":8702:8710   */\n      dup2\n        /* \"#utility.yul\":8687:8710   */\n      swap1\n      pop\n        /* \"#utility.yul\":8663:8712   */\n    tag_201:\n        /* \"#utility.yul\":8725:8805   */\n      tag_202\n        /* \"#utility.yul\":8781:8803   */\n      tag_203\n        /* \"#utility.yul\":8799:8802   */\n      dup6\n        /* \"#utility.yul\":8781:8803   */\n      tag_79\n      jump\t// in\n    tag_203:\n        /* \"#utility.yul\":8771:8779   */\n      dup4\n        /* \"#utility.yul\":8767:8804   */\n      add\n        /* \"#utility.yul\":8754:8765   */\n      dup3\n        /* \"#utility.yul\":8725:8805   */\n      tag_88\n      jump\t// in\n    tag_202:\n        /* \"#utility.yul\":8384:8815   */\n      pop\n      pop\n        /* \"#utility.yul\":8369:8815   */\n    tag_198:\n        /* \"#utility.yul\":8279:8822   */\n      pop\n      pop\n      pop\n      jump\t// out\n        /* \"#utility.yul\":8828:8945   */\n    tag_90:\n        /* \"#utility.yul\":8882:8890   */\n      0x00\n        /* \"#utility.yul\":8932:8937   */\n      dup3\n        /* \"#utility.yul\":8926:8930   */\n      dup3\n        /* \"#utility.yul\":8922:8938   */\n      shr\n        /* \"#utility.yul\":8901:8938   */\n      swap1\n      pop\n        /* \"#utility.yul\":8828:8945   */\n      swap3\n      swap2\n      pop\n      pop\n      jump\t// out\n        /* \"#utility.yul\":8951:9120   */\n    tag_91:\n        /* \"#utility.yul\":8995:9001   */\n      0x00\n        /* \"#utility.yul\":9028:9079   */\n      tag_206\n        /* \"#utility.yul\":9076:9077   */\n      0x00\n        /* \"#utility.yul\":9072:9078   */\n      not\n        /* \"#utility.yul\":9064:9069   */\n      dup5\n        /* \"#utility.yul\":9061:9062   */\n      0x08\n        /* \"#utility.yul\":9057:9070   */\n      mul\n        /* \"#utility.yul\":9028:9079   */\n      tag_90\n      jump\t// in\n    tag_206:\n        /* \"#utility.yul\":9024:9080   */\n      not\n        /* \"#utility.yul\":9109:9113   */\n      dup1\n        /* \"#utility.yul\":9103:9107   */\n      dup4\n        /* \"#utility.yul\":9099:9114   */\n      and\n        /* \"#utility.yul\":9089:9114   */\n      swap2\n      pop\n        /* \"#utility.yul\":9002:9120   */\n      pop\n        /* \"#utility.yul\":8951:9120   */\n      swap3\n      swap2\n      pop\n      pop\n      jump\t// out\n        /* \"#utility.yul\":9125:9420   */\n    tag_92:\n        /* \"#utility.yul\":9201:9205   */\n      0x00\n        /* \"#utility.yul\":9347:9376   */\n      tag_208\n        /* \"#utility.yul\":9372:9375   */\n      dup4\n        /* \"#utility.yul\":9366:9370   */\n      dup4\n        /* \"#utility.yul\":9347:9376   */\n      tag_91\n      jump\t// in\n    tag_208:\n        /* \"#utility.yul\":9339:9376   */\n      swap2\n      pop\n        /* \"#utility.yul\":9409:9412   */\n      dup3\n        /* \"#utility.yul\":9406:9407   */\n      0x02\n        /* \"#utility.yul\":9402:9413   */\n      mul\n        /* \"#utility.yul\":9396:9400   */\n      dup3\n        /* \"#utility.yul\":9393:9414   */\n      or\n        /* \"#utility.yul\":9385:9414   */\n      swap1\n      pop\n        /* \"#utility.yul\":9125:9420   */\n      swap3\n      swap2\n      pop\n      pop\n      jump\t// out\n        /* \"#utility.yul\":9425:10820   */\n    tag_42:\n        /* \"#utility.yul\":9542:9579   */\n      tag_210\n        /* \"#utility.yul\":9575:9578   */\n      dup3\n        /* \"#utility.yul\":9542:9579   */\n      tag_75\n      jump\t// in\n    tag_210:\n        /* \"#utility.yul\":9644:9662   */\n      0xffffffffffffffff\n        /* \"#utility.yul\":9636:9642   */\n      dup2\n        /* \"#utility.yul\":9633:9663   */\n      gt\n        /* \"#utility.yul\":9630:9686   */\n      iszero\n      tag_211\n      jumpi\n        /* \"#utility.yul\":9666:9684   */\n      tag_212\n      tag_63\n      jump\t// in\n    tag_212:\n        /* \"#utility.yul\":9630:9686   */\n    tag_211:\n        /* \"#utility.yul\":9710:9748   */\n      tag_213\n        /* \"#utility.yul\":9742:9746   */\n      dup3\n        /* \"#utility.yul\":9736:9747   */\n      sload\n        /* \"#utility.yul\":9710:9748   */\n      tag_77\n      jump\t// in\n    tag_213:\n        /* \"#utility.yul\":9795:9862   */\n      tag_214\n        /* \"#utility.yul\":9855:9861   */\n      dup3\n        /* \"#utility.yul\":9847:9853   */\n      dup3\n        /* \"#utility.yul\":9841:9845   */\n      dup6\n        /* \"#utility.yul\":9795:9862   */\n      tag_89\n      jump\t// in\n    tag_214:\n        /* \"#utility.yul\":9889:9890   */\n      0x00\n        /* \"#utility.yul\":9913:9917   */\n      0x20\n        /* \"#utility.yul\":9900:9917   */\n      swap1\n      pop\n        /* \"#utility.yul\":9945:9947   */\n      0x1f\n        /* \"#utility.yul\":9937:9943   */\n      dup4\n        /* \"#utility.yul\":9934:9948   */\n      gt\n        /* \"#utility.yul\":9962:9963   */\n      0x01\n        /* \"#utility.yul\":9957:10575   */\n      dup2\n      eq\n      tag_216\n      jumpi\n        /* \"#utility.yul\":10619:10620   */\n      0x00\n        /* \"#utility.yul\":10636:10642   */\n      dup5\n        /* \"#utility.yul\":10633:10710   */\n      iszero\n      tag_217\n      jumpi\n        /* \"#utility.yul\":10685:10694   */\n      dup3\n        /* \"#utility.yul\":10680:10683   */\n      dup8\n        /* \"#utility.yul\":10676:10695   */\n      add\n        /* \"#utility.yul\":10670:10696   */\n      mload\n        /* \"#utility.yul\":10661:10696   */\n      swap1\n      pop\n        /* \"#utility.yul\":10633:10710   */\n    tag_217:\n        /* \"#utility.yul\":10736:10803   */\n      tag_218\n        /* \"#utility.yul\":10796:10802   */\n      dup6\n        /* \"#utility.yul\":10789:10794   */\n      dup3\n        /* \"#utility.yul\":10736:10803   */\n      tag_92\n      jump\t// in\n    tag_218:\n        /* \"#utility.yul\":10730:10734   */\n      dup7\n        /* \"#utility.yul\":10723:10804   */\n      sstore\n        /* \"#utility.yul\":10592:10814   */\n      pop\n        /* \"#utility.yul\":9927:10814   */\n      jump(tag_215)\n        /* \"#utility.yul\":9957:10575   */\n    tag_216:\n        /* \"#utility.yul\":10009:10013   */\n      0x1f\n        /* \"#utility.yul\":10005:10014   */\n      not\n        /* \"#utility.yul\":9997:10003   */\n      dup5\n        /* \"#utility.yul\":9993:10015   */\n      and\n        /* \"#utility.yul\":10043:10080   */\n      tag_219\n        /* \"#utility.yul\":10075:10079   */\n      dup7\n        /* \"#utility.yul\":10043:10080   */\n      tag_78\n      jump\t// in\n    tag_219:\n        /* \"#utility.yul\":10102:10103   */\n      0x00\n        /* \"#utility.yul\":10116:10324   */\n    tag_220:\n        /* \"#utility.yul\":10130:10137   */\n      dup3\n        /* \"#utility.yul\":10127:10128   */\n      dup2\n        /* \"#utility.yul\":10124:10138   */\n      lt\n        /* \"#utility.yul\":10116:10324   */\n      iszero\n      tag_222\n      jumpi\n        /* \"#utility.yul\":10209:10218   */\n      dup5\n        /* \"#utility.yul\":10204:10207   */\n      dup10\n        /* \"#utility.yul\":10200:10219   */\n      add\n        /* \"#utility.yul\":10194:10220   */\n      mload\n        /* \"#utility.yul\":10186:10192   */\n      dup3\n        /* \"#utility.yul\":10179:10221   */\n      sstore\n        /* \"#utility.yul\":10260:10261   */\n      0x01\n        /* \"#utility.yul\":10252:10258   */\n      dup3\n        /* \"#utility.yul\":10248:10262   */\n      add\n        /* \"#utility.yul\":10238:10262   */\n      swap2\n      pop\n        /* \"#utility.yul\":10307:10309   */\n      0x20\n        /* \"#utility.yul\":10296:10305   */\n      dup6\n        /* \"#utility.yul\":10292:10310   */\n      add\n        /* \"#utility.yul\":10279:10310   */\n      swap5\n      pop\n        /* \"#utility.yul\":10153:10157   */\n      0x20\n        /* \"#utility.yul\":10150:10151   */\n      dup2\n        /* \"#utility.yul\":10146:10158   */\n      add\n        /* \"#utility.yul\":10141:10158   */\n      swap1\n      pop\n        /* \"#utility.yul\":10116:10324   */\n      jump(tag_220)\n    tag_222:\n        /* \"#utility.yul\":10352:10358   */\n      dup7\n        /* \"#utility.yul\":10343:10350   */\n      dup4\n        /* \"#utility.yul\":10340:10359   */\n      lt\n        /* \"#utility.yul\":10337:10516   */\n      iszero\n      tag_223\n      jumpi\n        /* \"#utility.yul\":10410:10419   */\n      dup5\n        /* \"#utility.yul\":10405:10408   */\n      dup10\n        /* \"#utility.yul\":10401:10420   */\n      add\n        /* \"#utility.yul\":10395:10421   */\n      mload\n        /* \"#utility.yul\":10453:10501   */\n      tag_224\n        /* \"#utility.yul\":10495:10499   */\n      0x1f\n        /* \"#utility.yul\":10487:10493   */\n      dup10\n        /* \"#utility.yul\":10483:10500   */\n      and\n        /* \"#utility.yul\":10472:10481   */\n      dup3\n        /* \"#utility.yul\":10453:10501   */\n      tag_91\n      jump\t// in\n    tag_224:\n        /* \"#utility.yul\":10445:10451   */\n      dup4\n        /* \"#utility.yul\":10438:10502   */\n      sstore\n        /* \"#utility.yul\":10360:10516   */\n      pop\n        /* \"#utility.yul\":10337:10516   */\n    tag_223:\n        /* \"#utility.yul\":10562:10563   */\n      0x01\n        /* \"#utility.yul\":10558:10559   */\n      0x02\n        /* \"#utility.yul\":10550:10556   */\n      dup9\n        /* \"#utility.yul\":10546:10560   */\n      mul\n        /* \"#utility.yul\":10542:10564   */\n      add\n        /* \"#utility.yul\":10536:10540   */\n      dup9\n        /* \"#utility.yul\":10529:10565   */\n      sstore\n        /* \"#utility.yul\":9964:10575   */\n      pop\n      pop\n      pop\n        /* \"#utility.yul\":9927:10814   */\n    tag_215:\n      pop\n        /* \"#utility.yul\":9517:10820   */\n      pop\n      pop\n      pop\n        /* \"#utility.yul\":9425:10820   */\n      pop\n      pop\n      jump\t// out\n\n    auxdata: 0xa26469706673582212202709d0d83b249d2b509c8390b55d9504e17692dfc30d896ef43bdd40486e62ec64736f6c63430008110033\n}\n",
        "bytecode": {
            "linkReferences": {},
            "object": "60806040523480156200001157600080fd5b5060405162000d6738038062000d67833981810160405281019062000037919062000133565b8160048190555080600360006101000a81548173ffffffffffffffffffffffffffffffffffffffff021916908373ffffffffffffffffffffffffffffffffffffffff1602179055506000808190555050506200017a565b600080fd5b6000819050919050565b620000a88162000093565b8114620000b457600080fd5b50565b600081519050620000c8816200009d565b92915050565b600073ffffffffffffffffffffffffffffffffffffffff82169050919050565b6000620000fb82620000ce565b9050919050565b6200010d81620000ee565b81146200011957600080fd5b50565b6000815190506200012d8162000102565b92915050565b600080604083850312156200014d576200014c6200008e565b5b60006200015d85828601620000b7565b925050602062000170858286016200011c565b9150509250929050565b610bdd806200018a6000396000f3fe60806040526004361061004a5760003560e01c8063034410061461004f578063481c6a751461006b5780638a9cfd5514610096578063d7bb99ba146100bf578063d7d1bbdb146100c9575b600080fd5b6100696004803603810190610064919061056b565b6100f2565b005b34801561007757600080fd5b5061008061022d565b60405161008d91906105d9565b60405180910390f35b3480156100a257600080fd5b506100bd60048036038101906100b89190610778565b610253565b005b6100c7610365565b005b3480156100d557600080fd5b506100f060048036038101906100eb919061056b565b6103e3565b005b600360009054906101000a900473ffffffffffffffffffffffffffffffffffffffff1673ffffffffffffffffffffffffffffffffffffffff163373ffffffffffffffffffffffffffffffffffffffff161461014c57600080fd5b60006002600083815260200190815260200160002090508060020160149054906101000a900460ff161561017f57600080fd5b600260005461018e9190610845565b81600301541161019d57600080fd5b60018160020160146101000a81548160ff0219169083151502179055508060020160009054906101000a900473ffffffffffffffffffffffffffffffffffffffff1673ffffffffffffffffffffffffffffffffffffffff166108fc82600101549081150290604051600060405180830381858888f19350505050158015610228573d6000803e3d6000fd5b505050565b600360009054906101000a900473ffffffffffffffffffffffffffffffffffffffff1681565b600360009054906101000a900473ffffffffffffffffffffffffffffffffffffffff1673ffffffffffffffffffffffffffffffffffffffff163373ffffffffffffffffffffffffffffffffffffffff16146102ad57600080fd5b600060026000600160008154809291906102c690610876565b9190505581526020019081526020016000209050838160000190816102eb9190610ad5565b50828160010181905550818160020160006101000a81548173ffffffffffffffffffffffffffffffffffffffff021916908373ffffffffffffffffffffffffffffffffffffffff16021790555060008160020160146101000a81548160ff0219169083151502179055506000816003018190555050505050565b6000341161037257600080fd5b6001600560003373ffffffffffffffffffffffffffffffffffffffff1673ffffffffffffffffffffffffffffffffffffffff16815260200190815260200160002060006101000a81548160ff0219169083151502179055506000808154809291906103dc90610876565b9190505550565b6000600260008381526020019081526020016000209050600560003373ffffffffffffffffffffffffffffffffffffffff1673ffffffffffffffffffffffffffffffffffffffff16815260200190815260200160002060009054906101000a900460ff1661045057600080fd5b8060040160003373ffffffffffffffffffffffffffffffffffffffff1673ffffffffffffffffffffffffffffffffffffffff16815260200190815260200160002060009054906101000a900460ff16156104a957600080fd5b60018160040160003373ffffffffffffffffffffffffffffffffffffffff1673ffffffffffffffffffffffffffffffffffffffff16815260200190815260200160002060006101000a81548160ff02191690831515021790555080600301600081548092919061051890610876565b91905055505050565b6000604051905090565b600080fd5b600080fd5b6000819050919050565b61054881610535565b811461055357600080fd5b50565b6000813590506105658161053f565b92915050565b6000602082840312156105815761058061052b565b5b600061058f84828501610556565b91505092915050565b600073ffffffffffffffffffffffffffffffffffffffff82169050919050565b60006105c382610598565b9050919050565b6105d3816105b8565b82525050565b60006020820190506105ee60008301846105ca565b92915050565b600080fd5b600080fd5b6000601f19601f8301169050919050565b7f4e487b7100000000000000000000000000000000000000000000000000000000600052604160045260246000fd5b610647826105fe565b810181811067ffffffffffffffff821117156106665761066561060f565b5b80604052505050565b6000610679610521565b9050610685828261063e565b919050565b600067ffffffffffffffff8211156106a5576106a461060f565b5b6106ae826105fe565b9050602081019050919050565b82818337600083830152505050565b60006106dd6106d88461068a565b61066f565b9050828152602081018484840111156106f9576106f86105f9565b5b6107048482856106bb565b509392505050565b600082601f830112610721576107206105f4565b5b81356107318482602086016106ca565b91505092915050565b600061074582610598565b9050919050565b6107558161073a565b811461076057600080fd5b50565b6000813590506107728161074c565b92915050565b6000806000606084860312156107915761079061052b565b5b600084013567ffffffffffffffff8111156107af576107ae610530565b5b6107bb8682870161070c565b93505060206107cc86828701610556565b92505060406107dd86828701610763565b9150509250925092565b7f4e487b7100000000000000000000000000000000000000000000000000000000600052601260045260246000fd5b7f4e487b7100000000000000000000000000000000000000000000000000000000600052601160045260246000fd5b600061085082610535565b915061085b83610535565b92508261086b5761086a6107e7565b5b828204905092915050565b600061088182610535565b91507fffffffffffffffffffffffffffffffffffffffffffffffffffffffffffffffff82036108b3576108b2610816565b5b600182019050919050565b600081519050919050565b7f4e487b7100000000000000000000000000000000000000000000000000000000600052602260045260246000fd5b6000600282049050600182168061091057607f821691505b602082108103610923576109226108c9565b5b50919050565b60008190508160005260206000209050919050565b60006020601f8301049050919050565b600082821b905092915050565b60006008830261098b7fffffffffffffffffffffffffffffffffffffffffffffffffffffffffffffffff8261094e565b610995868361094e565b95508019841693508086168417925050509392505050565b6000819050919050565b60006109d26109cd6109c884610535565b6109ad565b610535565b9050919050565b6000819050919050565b6109ec836109b7565b610a006109f8826109d9565b84845461095b565b825550505050565b600090565b610a15610a08565b610a208184846109e3565b505050565b5b81811015610a4457610a39600082610a0d565b600181019050610a26565b5050565b601f821115610a8957610a5a81610929565b610a638461093e565b81016020851015610a72578190505b610a86610a7e8561093e565b830182610a25565b50505b505050565b600082821c905092915050565b6000610aac60001984600802610a8e565b1980831691505092915050565b6000610ac58383610a9b565b9150826002028217905092915050565b610ade826108be565b67ffffffffffffffff811115610af757610af661060f565b5b610b0182546108f8565b610b0c828285610a48565b600060209050601f831160018114610b3f5760008415610b2d578287015190505b610b378582610ab9565b865550610b9f565b601f198416610b4d86610929565b60005b82811015610b7557848901518255600182019150602085019450602081019050610b50565b86831015610b925784890151610b8e601f891682610a9b565b8355505b6001600288020188555050505b50505050505056fea26469706673582212202709d0d83b249d2b509c8390b55d9504e17692dfc30d896ef43bdd40486e62ec64736f6c63430008110033",
            "opcodes": "PUSH1 0x80 PUSH1 0x40 MSTORE CALLVALUE DUP1 ISZERO PUSH3 0x11 JUMPI PUSH1 0x0 DUP1 REVERT JUMPDEST POP PUSH1 0x40 MLOAD PUSH3 0xD67 CODESIZE SUB DUP1 PUSH3 0xD67 DUP4 CODECOPY DUP2 DUP2 ADD PUSH1 0x40 MSTORE DUP2 ADD SWAP1 PUSH3 0x37 SWAP2 SWAP1 PUSH3 0x133 JUMP JUMPDEST DUP2 PUSH1 0x4 DUP2 SWAP1 SSTORE POP DUP1 PUSH1 0x3 PUSH1 0x0 PUSH2 0x100 EXP DUP2 SLOAD DUP2 PUSH20 0xFFFFFFFFFFFFFFFFFFFFFFFFFFFFFFFFFFFFFFFF MUL NOT AND SWAP1 DUP4 PUSH20 0xFFFFFFFFFFFFFFFFFFFFFFFFFFFFFFFFFFFFFFFF AND MUL OR SWAP1 SSTORE POP PUSH1 0x0 DUP1 DUP2 SWAP1 SSTORE POP POP POP PUSH3 0x17A JUMP JUMPDEST PUSH1 0x0 DUP1 REVERT JUMPDEST PUSH1 0x0 DUP2 SWAP1 POP SWAP2 SWAP1 POP JUMP JUMPDEST PUSH3 0xA8 DUP2 PUSH3 0x93 JUMP JUMPDEST DUP2 EQ PUSH3 0xB4 JUMPI PUSH1 0x0 DUP1 REVERT JUMPDEST POP JUMP JUMPDEST PUSH1 0x0 DUP2 MLOAD SWAP1 POP PUSH3 0xC8 DUP2 PUSH3 0x9D JUMP JUMPDEST SWAP3 SWAP2 POP POP JUMP JUMPDEST PUSH1 0x0 PUSH20 0xFFFFFFFFFFFFFFFFFFFFFFFFFFFFFFFFFFFFFFFF DUP3 AND SWAP1 POP SWAP2 SWAP1 POP JUMP JUMPDEST PUSH1 0x0 PUSH3 0xFB DUP3 PUSH3 0xCE JUMP JUMPDEST SWAP1 POP SWAP2 SWAP1 POP JUMP JUMPDEST PUSH3 0x10D DUP2 PUSH3 0xEE JUMP JUMPDEST DUP2 EQ PUSH3 0x119 JUMPI PUSH1 0x0 DUP1 REVERT JUMPDEST POP JUMP JUMPDEST PUSH1 0x0 DUP2 MLOAD SWAP1 POP PUSH3 0x12D DUP2 PUSH3 0x102 JUMP JUMPDEST SWAP3 SWAP2 POP POP JUMP JUMPDEST PUSH1 0x0 DUP1 PUSH1 0x40 DUP4 DUP6 SUB SLT ISZERO PUSH3 0x14D JUMPI PUSH3 0x14C PUSH3 0x8E JUMP JUMPDEST JUMPDEST PUSH1 0x0 PUSH3 0x15D DUP6 DUP3 DUP7 ADD PUSH3 0xB7 JUMP JUMPDEST SWAP3 POP POP PUSH1 0x20 PUSH3 0x170 DUP6 DUP3 DUP7 ADD PUSH3 0x11C JUMP JUMPDEST SWAP2 POP POP SWAP3 POP SWAP3 SWAP1 POP JUMP JUMPDEST PUSH2 0xBDD DUP1 PUSH3 0x18A PUSH1 0x0 CODECOPY PUSH1 0x0 RETURN INVALID PUSH1 0x80 PUSH1 0x40 MSTORE PUSH1 0x4 CALLDATASIZE LT PUSH2 0x4A JUMPI PUSH1 0x0 CALLDATALOAD PUSH1 0xE0 SHR DUP1 PUSH4 0x3441006 EQ PUSH2 0x4F JUMPI DUP1 PUSH4 0x481C6A75 EQ PUSH2 0x6B JUMPI DUP1 PUSH4 0x8A9CFD55 EQ PUSH2 0x96 JUMPI DUP1 PUSH4 0xD7BB99BA EQ PUSH2 0xBF JUMPI DUP1 PUSH4 0xD7D1BBDB EQ PUSH2 0xC9 JUMPI JUMPDEST PUSH1 0x0 DUP1 REVERT JUMPDEST PUSH2 0x69 PUSH1 0x4 DUP1 CALLDATASIZE SUB DUP2 ADD SWAP1 PUSH2 0x64 SWAP2 SWAP1 PUSH2 0x56B JUMP JUMPDEST PUSH2 0xF2 JUMP JUMPDEST STOP JUMPDEST CALLVALUE DUP1 ISZERO PUSH2 0x77 JUMPI PUSH1 0x0 DUP1 REVERT JUMPDEST POP PUSH2 0x80 PUSH2 0x22D JUMP JUMPDEST PUSH1 0x40 MLOAD PUSH2 0x8D SWAP2 SWAP1 PUSH2 0x5D9 JUMP JUMPDEST PUSH1 0x40 MLOAD DUP1 SWAP2 SUB SWAP1 RETURN JUMPDEST CALLVALUE DUP1 ISZERO PUSH2 0xA2 JUMPI PUSH1 0x0 DUP1 REVERT JUMPDEST POP PUSH2 0xBD PUSH1 0x4 DUP1 CALLDATASIZE SUB DUP2 ADD SWAP1 PUSH2 0xB8 SWAP2 SWAP1 PUSH2 0x778 JUMP JUMPDEST PUSH2 0x253 JUMP JUMPDEST STOP JUMPDEST PUSH2 0xC7 PUSH2 0x365 JUMP JUMPDEST STOP JUMPDEST CALLVALUE DUP1 ISZERO PUSH2 0xD5 JUMPI PUSH1 0x0 DUP1 REVERT JUMPDEST POP PUSH2 0xF0 PUSH1 0x4 DUP1 CALLDATASIZE SUB DUP2 ADD SWAP1 PUSH2 0xEB SWAP2 SWAP1 PUSH2 0x56B JUMP JUMPDEST PUSH2 0x3E3 JUMP JUMPDEST STOP JUMPDEST PUSH1 0x3 PUSH1 0x0 SWAP1 SLOAD SWAP1 PUSH2 0x100 EXP SWAP1 DIV PUSH20 0xFFFFFFFFFFFFFFFFFFFFFFFFFFFFFFFFFFFFFFFF AND PUSH20 0xFFFFFFFFFFFFFFFFFFFFFFFFFFFFFFFFFFFFFFFF AND CALLER PUSH20 0xFFFFFFFFFFFFFFFFFFFFFFFFFFFFFFFFFFFFFFFF AND EQ PUSH2 0x14C JUMPI PUSH1 0x0 DUP1 REVERT JUMPDEST PUSH1 0x0 PUSH1 0x2 PUSH1 0x0 DUP4 DUP2 MSTORE PUSH1 0x20 ADD SWAP1 DUP2 MSTORE PUSH1 0x20 ADD PUSH1 0x0 KECCAK256 SWAP1 POP DUP1 PUSH1 0x2 ADD PUSH1 0x14 SWAP1 SLOAD SWAP1 PUSH2 0x100 EXP SWAP1 DIV PUSH1 0xFF AND ISZERO PUSH2 0x17F JUMPI PUSH1 0x0 DUP1 REVERT JUMPDEST PUSH1 0x2 PUSH1 0x0 SLOAD PUSH2 0x18E SWAP2 SWAP1 PUSH2 0x845 JUMP JUMPDEST DUP2 PUSH1 0x3 ADD SLOAD GT PUSH2 0x19D JUMPI PUSH1 0x0 DUP1 REVERT JUMPDEST PUSH1 0x1 DUP2 PUSH1 0x2 ADD PUSH1 0x14 PUSH2 0x100 EXP DUP2 SLOAD DUP2 PUSH1 0xFF MUL NOT AND SWAP1 DUP4 ISZERO ISZERO MUL OR SWAP1 SSTORE POP DUP1 PUSH1 0x2 ADD PUSH1 0x0 SWAP1 SLOAD SWAP1 PUSH2 0x100 EXP SWAP1 DIV PUSH20 0xFFFFFFFFFFFFFFFFFFFFFFFFFFFFFFFFFFFFFFFF AND PUSH20 0xFFFFFFFFFFFFFFFFFFFFFFFFFFFFFFFFFFFFFFFF AND PUSH2 0x8FC DUP3 PUSH1 0x1 ADD SLOAD SWAP1 DUP2 ISZERO MUL SWAP1 PUSH1 0x40 MLOAD PUSH1 0x0 PUSH1 0x40 MLOAD DUP1 DUP4 SUB DUP2 DUP6 DUP9 DUP9 CALL SWAP4 POP POP POP POP ISZERO DUP1 ISZERO PUSH2 0x228 JUMPI RETURNDATASIZE PUSH1 0x0 DUP1 RETURNDATACOPY RETURNDATASIZE PUSH1 0x0 REVERT JUMPDEST POP POP POP JUMP JUMPDEST PUSH1 0x3 PUSH1 0x0 SWAP1 SLOAD SWAP1 PUSH2 0x100 EXP SWAP1 DIV PUSH20 0xFFFFFFFFFFFFFFFFFFFFFFFFFFFFFFFFFFFFFFFF AND DUP2 JUMP JUMPDEST PUSH1 0x3 PUSH1 0x0 SWAP1 SLOAD SWAP1 PUSH2 0x100 EXP SWAP1 DIV PUSH20 0xFFFFFFFFFFFFFFFFFFFFFFFFFFFFFFFFFFFFFFFF AND PUSH20 0xFFFFFFFFFFFFFFFFFFFFFFFFFFFFFFFFFFFFFFFF AND CALLER PUSH20 0xFFFFFFFFFFFFFFFFFFFFFFFFFFFFFFFFFFFFFFFF AND EQ PUSH2 0x2AD JUMPI PUSH1 0x0 DUP1 REVERT JUMPDEST PUSH1 0x0 PUSH1 0x2 PUSH1 0x0 PUSH1 0x1 PUSH1 0x0 DUP2 SLOAD DUP1 SWAP3 SWAP2 SWAP1 PUSH2 0x2C6 SWAP1 PUSH2 0x876 JUMP JUMPDEST SWAP2 SWAP1 POP SSTORE DUP2 MSTORE PUSH1 0x20 ADD SWAP1 DUP2 MSTORE PUSH1 0x20 ADD PUSH1 0x0 KECCAK256 SWAP1 POP DUP4 DUP2 PUSH1 0x0 ADD SWAP1 DUP2 PUSH2 0x2EB SWAP2 SWAP1 PUSH2 0xAD5 JUMP JUMPDEST POP DUP3 DUP2 PUSH1 0x1 ADD DUP2 SWAP1 SSTORE POP DUP2 DUP2 PUSH1 0x2 ADD PUSH1 0x0 PUSH2 0x100 EXP DUP2 SLOAD DUP2 PUSH20 0xFFFFFFFFFFFFFFFFFFFFFFFFFFFFFFFFFFFFFFFF MUL NOT AND SWAP1 DUP4 PUSH20 0xFFFFFFFFFFFFFFFFFFFFFFFFFFFFFFFFFFFFFFFF AND MUL OR SWAP1 SSTORE POP PUSH1 0x0 DUP2 PUSH1 0x2 ADD PUSH1 0x14 PUSH2 0x100 EXP DUP2 SLOAD DUP2 PUSH1 0xFF MUL NOT AND SWAP1 DUP4 ISZERO ISZERO MUL OR SWAP1 SSTORE POP PUSH1 0x0 DUP2 PUSH1 0x3 ADD DUP2 SWAP1 SSTORE POP POP POP POP POP JUMP JUMPDEST PUSH1 0x0 CALLVALUE GT PUSH2 0x372 JUMPI PUSH1 0x0 DUP1 REVERT JUMPDEST PUSH1 0x1 PUSH1 0x5 PUSH1 0x0 CALLER PUSH20 0xFFFFFFFFFFFFFFFFFFFFFFFFFFFFFFFFFFFFFFFF AND PUSH20 0xFFFFFFFFFFFFFFFFFFFFFFFFFFFFFFFFFFFFFFFF AND DUP2 MSTORE PUSH1 0x20 ADD SWAP1 DUP2 MSTORE PUSH1 0x20 ADD PUSH1 0x0 KECCAK256 PUSH1 0x0 PUSH2 0x100 EXP DUP2 SLOAD DUP2 PUSH1 0xFF MUL NOT AND SWAP1 DUP4 ISZERO ISZERO MUL OR SWAP1 SSTORE POP PUSH1 0x0 DUP1 DUP2 SLOAD DUP1 SWAP3 SWAP2 SWAP1 PUSH2 0x3DC SWAP1 PUSH2 0x876 JUMP JUMPDEST SWAP2 SWAP1 POP SSTORE POP JUMP JUMPDEST PUSH1 0x0 PUSH1 0x2 PUSH1 0x0 DUP4 DUP2 MSTORE PUSH1 0x20 ADD SWAP1 DUP2 MSTORE PUSH1 0x20 ADD PUSH1 0x0 KECCAK256 SWAP1 POP PUSH1 0x5 PUSH1 0x0 CALLER PUSH20 0xFFFFFFFFFFFFFFFFFFFFFFFFFFFFFFFFFFFFFFFF AND PUSH20 0xFFFFFFFFFFFFFFFFFFFFFFFFFFFFFFFFFFFFFFFF AND DUP2 MSTORE PUSH1 0x20 ADD SWAP1 DUP2 MSTORE PUSH1 0x20 ADD PUSH1 0x0 KECCAK256 PUSH1 0x0 SWAP1 SLOAD SWAP1 PUSH2 0x100 EXP SWAP1 DIV PUSH1 0xFF AND PUSH2 0x450 JUMPI PUSH1 0x0 DUP1 REVERT JUMPDEST DUP1 PUSH1 0x4 ADD PUSH1 0x0 CALLER PUSH20 0xFFFFFFFFFFFFFFFFFFFFFFFFFFFFFFFFFFFFFFFF AND PUSH20 0xFFFFFFFFFFFFFFFFFFFFFFFFFFFFFFFFFFFFFFFF AND DUP2 MSTORE PUSH1 0x20 ADD SWAP1 DUP2 MSTORE PUSH1 0x20 ADD PUSH1 0x0 KECCAK256 PUSH1 0x0 SWAP1 SLOAD SWAP1 PUSH2 0x100 EXP SWAP1 DIV PUSH1 0xFF AND ISZERO PUSH2 0x4A9 JUMPI PUSH1 0x0 DUP1 REVERT JUMPDEST PUSH1 0x1 DUP2 PUSH1 0x4 ADD PUSH1 0x0 CALLER PUSH20 0xFFFFFFFFFFFFFFFFFFFFFFFFFFFFFFFFFFFFFFFF AND PUSH20 0xFFFFFFFFFFFFFFFFFFFFFFFFFFFFFFFFFFFFFFFF AND DUP2 MSTORE PUSH1 0x20 ADD SWAP1 DUP2 MSTORE PUSH1 0x20 ADD PUSH1 0x0 KECCAK256 PUSH1 0x0 PUSH2 0x100 EXP DUP2 SLOAD DUP2 PUSH1 0xFF MUL NOT AND SWAP1 DUP4 ISZERO ISZERO MUL OR SWAP1 SSTORE POP DUP1 PUSH1 0x3 ADD PUSH1 0x0 DUP2 SLOAD DUP1 SWAP3 SWAP2 SWAP1 PUSH2 0x518 SWAP1 PUSH2 0x876 JUMP JUMPDEST SWAP2 SWAP1 POP SSTORE POP POP POP JUMP JUMPDEST PUSH1 0x0 PUSH1 0x40 MLOAD SWAP1 POP SWAP1 JUMP JUMPDEST PUSH1 0x0 DUP1 REVERT JUMPDEST PUSH1 0x0 DUP1 REVERT JUMPDEST PUSH1 0x0 DUP2 SWAP1 POP SWAP2 SWAP1 POP JUMP JUMPDEST PUSH2 0x548 DUP2 PUSH2 0x535 JUMP JUMPDEST DUP2 EQ PUSH2 0x553 JUMPI PUSH1 0x0 DUP1 REVERT JUMPDEST POP JUMP JUMPDEST PUSH1 0x0 DUP2 CALLDATALOAD SWAP1 POP PUSH2 0x565 DUP2 PUSH2 0x53F JUMP JUMPDEST SWAP3 SWAP2 POP POP JUMP JUMPDEST PUSH1 0x0 PUSH1 0x20 DUP3 DUP5 SUB SLT ISZERO PUSH2 0x581 JUMPI PUSH2 0x580 PUSH2 0x52B JUMP JUMPDEST JUMPDEST PUSH1 0x0 PUSH2 0x58F DUP5 DUP3 DUP6 ADD PUSH2 0x556 JUMP JUMPDEST SWAP2 POP POP SWAP3 SWAP2 POP POP JUMP JUMPDEST PUSH1 0x0 PUSH20 0xFFFFFFFFFFFFFFFFFFFFFFFFFFFFFFFFFFFFFFFF DUP3 AND SWAP1 POP SWAP2 SWAP1 POP JUMP JUMPDEST PUSH1 0x0 PUSH2 0x5C3 DUP3 PUSH2 0x598 JUMP JUMPDEST SWAP1 POP SWAP2 SWAP1 POP JUMP JUMPDEST PUSH2 0x5D3 DUP2 PUSH2 0x5B8 JUMP JUMPDEST DUP3 MSTORE POP POP JUMP JUMPDEST PUSH1 0x0 PUSH1 0x20 DUP3 ADD SWAP1 POP PUSH2 0x5EE PUSH1 0x0 DUP4 ADD DUP5 PUSH2 0x5CA JUMP JUMPDEST SWAP3 SWAP2 POP POP JUMP JUMPDEST PUSH1 0x0 DUP1 REVERT JUMPDEST PUSH1 0x0 DUP1 REVERT JUMPDEST PUSH1 0x0 PUSH1 0x1F NOT PUSH1 0x1F DUP4 ADD AND SWAP1 POP SWAP2 SWAP1 POP JUMP JUMPDEST PUSH32 0x4E487B7100000000000000000000000000000000000000000000000000000000 PUSH1 0x0 MSTORE PUSH1 0x41 PUSH1 0x4 MSTORE PUSH1 0x24 PUSH1 0x0 REVERT JUMPDEST PUSH2 0x647 DUP3 PUSH2 0x5FE JUMP JUMPDEST DUP2 ADD DUP2 DUP2 LT PUSH8 0xFFFFFFFFFFFFFFFF DUP3 GT OR ISZERO PUSH2 0x666 JUMPI PUSH2 0x665 PUSH2 0x60F JUMP JUMPDEST JUMPDEST DUP1 PUSH1 0x40 MSTORE POP POP POP JUMP JUMPDEST PUSH1 0x0 PUSH2 0x679 PUSH2 0x521 JUMP JUMPDEST SWAP1 POP PUSH2 0x685 DUP3 DUP3 PUSH2 0x63E JUMP JUMPDEST SWAP2 SWAP1 POP JUMP JUMPDEST PUSH1 0x0 PUSH8 0xFFFFFFFFFFFFFFFF DUP3 GT ISZERO PUSH2 0x6A5 JUMPI PUSH2 0x6A4 PUSH2 0x60F JUMP JUMPDEST JUMPDEST PUSH2 0x6AE DUP3 PUSH2 0x5FE JUMP JUMPDEST SWAP1 POP PUSH1 0x20 DUP2 ADD SWAP1 POP SWAP2 SWAP1 POP JUMP JUMPDEST DUP3 DUP2 DUP4 CALLDATACOPY PUSH1 0x0 DUP4 DUP4 ADD MSTORE POP POP POP JUMP JUMPDEST PUSH1 0x0 PUSH2 0x6DD PUSH2 0x6D8 DUP5 PUSH2 0x68A JUMP JUMPDEST PUSH2 0x66F JUMP JUMPDEST SWAP1 POP DUP3 DUP2 MSTORE PUSH1 0x20 DUP2 ADD DUP5 DUP5 DUP5 ADD GT ISZERO PUSH2 0x6F9 JUMPI PUSH2 0x6F8 PUSH2 0x5F9 JUMP JUMPDEST JUMPDEST PUSH2 0x704 DUP5 DUP3 DUP6 PUSH2 0x6BB JUMP JUMPDEST POP SWAP4 SWAP3 POP POP POP JUMP JUMPDEST PUSH1 0x0 DUP3 PUSH1 0x1F DUP4 ADD SLT PUSH2 0x721 JUMPI PUSH2 0x720 PUSH2 0x5F4 JUMP JUMPDEST JUMPDEST DUP2 CALLDATALOAD PUSH2 0x731 DUP5 DUP3 PUSH1 0x20 DUP7 ADD PUSH2 0x6CA JUMP JUMPDEST SWAP2 POP POP SWAP3 SWAP2 POP POP JUMP JUMPDEST PUSH1 0x0 PUSH2 0x745 DUP3 PUSH2 0x598 JUMP JUMPDEST SWAP1 POP SWAP2 SWAP1 POP JUMP JUMPDEST PUSH2 0x755 DUP2 PUSH2 0x73A JUMP JUMPDEST DUP2 EQ PUSH2 0x760 JUMPI PUSH1 0x0 DUP1 REVERT JUMPDEST POP JUMP JUMPDEST PUSH1 0x0 DUP2 CALLDATALOAD SWAP1 POP PUSH2 0x772 DUP2 PUSH2 0x74C JUMP JUMPDEST SWAP3 SWAP2 POP POP JUMP JUMPDEST PUSH1 0x0 DUP1 PUSH1 0x0 PUSH1 0x60 DUP5 DUP7 SUB SLT ISZERO PUSH2 0x791 JUMPI PUSH2 0x790 PUSH2 0x52B JUMP JUMPDEST JUMPDEST PUSH1 0x0 DUP5 ADD CALLDATALOAD PUSH8 0xFFFFFFFFFFFFFFFF DUP2 GT ISZERO PUSH2 0x7AF JUMPI PUSH2 0x7AE PUSH2 0x530 JUMP JUMPDEST JUMPDEST PUSH2 0x7BB DUP7 DUP3 DUP8 ADD PUSH2 0x70C JUMP JUMPDEST SWAP4 POP POP PUSH1 0x20 PUSH2 0x7CC DUP7 DUP3 DUP8 ADD PUSH2 0x556 JUMP JUMPDEST SWAP3 POP POP PUSH1 0x40 PUSH2 0x7DD DUP7 DUP3 DUP8 ADD PUSH2 0x763 JUMP JUMPDEST SWAP2 POP POP SWAP3 POP SWAP3 POP SWAP3 JUMP JUMPDEST PUSH32 0x4E487B7100000000000000000000000000000000000000000000000000000000 PUSH1 0x0 MSTORE PUSH1 0x12 PUSH1 0x4 MSTORE PUSH1 0x24 PUSH1 0x0 REVERT JUMPDEST PUSH32 0x4E487B7100000000000000000000000000000000000000000000000000000000 PUSH1 0x0 MSTORE PUSH1 0x11 PUSH1 0x4 MSTORE PUSH1 0x24 PUSH1 0x0 REVERT JUMPDEST PUSH1 0x0 PUSH2 0x850 DUP3 PUSH2 0x535 JUMP JUMPDEST SWAP2 POP PUSH2 0x85B DUP4 PUSH2 0x535 JUMP JUMPDEST SWAP3 POP DUP3 PUSH2 0x86B JUMPI PUSH2 0x86A PUSH2 0x7E7 JUMP JUMPDEST JUMPDEST DUP3 DUP3 DIV SWAP1 POP SWAP3 SWAP2 POP POP JUMP JUMPDEST PUSH1 0x0 PUSH2 0x881 DUP3 PUSH2 0x535 JUMP JUMPDEST SWAP2 POP PUSH32 0xFFFFFFFFFFFFFFFFFFFFFFFFFFFFFFFFFFFFFFFFFFFFFFFFFFFFFFFFFFFFFFFF DUP3 SUB PUSH2 0x8B3 JUMPI PUSH2 0x8B2 PUSH2 0x816 JUMP JUMPDEST JUMPDEST PUSH1 0x1 DUP3 ADD SWAP1 POP SWAP2 SWAP1 POP JUMP JUMPDEST PUSH1 0x0 DUP2 MLOAD SWAP1 POP SWAP2 SWAP1 POP JUMP JUMPDEST PUSH32 0x4E487B7100000000000000000000000000000000000000000000000000000000 PUSH1 0x0 MSTORE PUSH1 0x22 PUSH1 0x4 MSTORE PUSH1 0x24 PUSH1 0x0 REVERT JUMPDEST PUSH1 0x0 PUSH1 0x2 DUP3 DIV SWAP1 POP PUSH1 0x1 DUP3 AND DUP1 PUSH2 0x910 JUMPI PUSH1 0x7F DUP3 AND SWAP2 POP JUMPDEST PUSH1 0x20 DUP3 LT DUP2 SUB PUSH2 0x923 JUMPI PUSH2 0x922 PUSH2 0x8C9 JUMP JUMPDEST JUMPDEST POP SWAP2 SWAP1 POP JUMP JUMPDEST PUSH1 0x0 DUP2 SWAP1 POP DUP2 PUSH1 0x0 MSTORE PUSH1 0x20 PUSH1 0x0 KECCAK256 SWAP1 POP SWAP2 SWAP1 POP JUMP JUMPDEST PUSH1 0x0 PUSH1 0x20 PUSH1 0x1F DUP4 ADD DIV SWAP1 POP SWAP2 SWAP1 POP JUMP JUMPDEST PUSH1 0x0 DUP3 DUP3 SHL SWAP1 POP SWAP3 SWAP2 POP POP JUMP JUMPDEST PUSH1 0x0 PUSH1 0x8 DUP4 MUL PUSH2 0x98B PUSH32 0xFFFFFFFFFFFFFFFFFFFFFFFFFFFFFFFFFFFFFFFFFFFFFFFFFFFFFFFFFFFFFFFF DUP3 PUSH2 0x94E JUMP JUMPDEST PUSH2 0x995 DUP7 DUP4 PUSH2 0x94E JUMP JUMPDEST SWAP6 POP DUP1 NOT DUP5 AND SWAP4 POP DUP1 DUP7 AND DUP5 OR SWAP3 POP POP POP SWAP4 SWAP3 POP POP POP JUMP JUMPDEST PUSH1 0x0 DUP2 SWAP1 POP SWAP2 SWAP1 POP JUMP JUMPDEST PUSH1 0x0 PUSH2 0x9D2 PUSH2 0x9CD PUSH2 0x9C8 DUP5 PUSH2 0x535 JUMP JUMPDEST PUSH2 0x9AD JUMP JUMPDEST PUSH2 0x535 JUMP JUMPDEST SWAP1 POP SWAP2 SWAP1 POP JUMP JUMPDEST PUSH1 0x0 DUP2 SWAP1 POP SWAP2 SWAP1 POP JUMP JUMPDEST PUSH2 0x9EC DUP4 PUSH2 0x9B7 JUMP JUMPDEST PUSH2 0xA00 PUSH2 0x9F8 DUP3 PUSH2 0x9D9 JUMP JUMPDEST DUP5 DUP5 SLOAD PUSH2 0x95B JUMP JUMPDEST DUP3 SSTORE POP POP POP POP JUMP JUMPDEST PUSH1 0x0 SWAP1 JUMP JUMPDEST PUSH2 0xA15 PUSH2 0xA08 JUMP JUMPDEST PUSH2 0xA20 DUP2 DUP5 DUP5 PUSH2 0x9E3 JUMP JUMPDEST POP POP POP JUMP JUMPDEST JUMPDEST DUP2 DUP2 LT ISZERO PUSH2 0xA44 JUMPI PUSH2 0xA39 PUSH1 0x0 DUP3 PUSH2 0xA0D JUMP JUMPDEST PUSH1 0x1 DUP2 ADD SWAP1 POP PUSH2 0xA26 JUMP JUMPDEST POP POP JUMP JUMPDEST PUSH1 0x1F DUP3 GT ISZERO PUSH2 0xA89 JUMPI PUSH2 0xA5A DUP2 PUSH2 0x929 JUMP JUMPDEST PUSH2 0xA63 DUP5 PUSH2 0x93E JUMP JUMPDEST DUP2 ADD PUSH1 0x20 DUP6 LT ISZERO PUSH2 0xA72 JUMPI DUP2 SWAP1 POP JUMPDEST PUSH2 0xA86 PUSH2 0xA7E DUP6 PUSH2 0x93E JUMP JUMPDEST DUP4 ADD DUP3 PUSH2 0xA25 JUMP JUMPDEST POP POP JUMPDEST POP POP POP JUMP JUMPDEST PUSH1 0x0 DUP3 DUP3 SHR SWAP1 POP SWAP3 SWAP2 POP POP JUMP JUMPDEST PUSH1 0x0 PUSH2 0xAAC PUSH1 0x0 NOT DUP5 PUSH1 0x8 MUL PUSH2 0xA8E JUMP JUMPDEST NOT DUP1 DUP4 AND SWAP2 POP POP SWAP3 SWAP2 POP POP JUMP JUMPDEST PUSH1 0x0 PUSH2 0xAC5 DUP4 DUP4 PUSH2 0xA9B JUMP JUMPDEST SWAP2 POP DUP3 PUSH1 0x2 MUL DUP3 OR SWAP1 POP SWAP3 SWAP2 POP POP JUMP JUMPDEST PUSH2 0xADE DUP3 PUSH2 0x8BE JUMP JUMPDEST PUSH8 0xFFFFFFFFFFFFFFFF DUP2 GT ISZERO PUSH2 0xAF7 JUMPI PUSH2 0xAF6 PUSH2 0x60F JUMP JUMPDEST JUMPDEST PUSH2 0xB01 DUP3 SLOAD PUSH2 0x8F8 JUMP JUMPDEST PUSH2 0xB0C DUP3 DUP3 DUP6 PUSH2 0xA48 JUMP JUMPDEST PUSH1 0x0 PUSH1 0x20 SWAP1 POP PUSH1 0x1F DUP4 GT PUSH1 0x1 DUP2 EQ PUSH2 0xB3F JUMPI PUSH1 0x0 DUP5 ISZERO PUSH2 0xB2D JUMPI DUP3 DUP8 ADD MLOAD SWAP1 POP JUMPDEST PUSH2 0xB37 DUP6 DUP3 PUSH2 0xAB9 JUMP JUMPDEST DUP7 SSTORE POP PUSH2 0xB9F JUMP JUMPDEST PUSH1 0x1F NOT DUP5 AND PUSH2 0xB4D DUP7 PUSH2 0x929 JUMP JUMPDEST PUSH1 0x0 JUMPDEST DUP3 DUP2 LT ISZERO PUSH2 0xB75 JUMPI DUP5 DUP10 ADD MLOAD DUP3 SSTORE PUSH1 0x1 DUP3 ADD SWAP2 POP PUSH1 0x20 DUP6 ADD SWAP5 POP PUSH1 0x20 DUP2 ADD SWAP1 POP PUSH2 0xB50 JUMP JUMPDEST DUP7 DUP4 LT ISZERO PUSH2 0xB92 JUMPI DUP5 DUP10 ADD MLOAD PUSH2 0xB8E PUSH1 0x1F DUP10 AND DUP3 PUSH2 0xA9B JUMP JUMPDEST DUP4 SSTORE POP JUMPDEST PUSH1 0x1 PUSH1 0x2 DUP9 MUL ADD DUP9 SSTORE POP POP POP JUMPDEST POP POP POP POP POP POP JUMP INVALID LOG2 PUSH5 0x6970667358 0x22 SLT KECCAK256 0x27 MULMOD 0xD0 0xD8 EXTCODESIZE 0x24 SWAP14 0x2B POP SWAP13 DUP4 SWAP1 0xB5 0x5D SWAP6 DIV 0xE1 PUSH23 0x92DFC30D896EF43BDD40486E62EC64736F6C6343000811 STOP CALLER "
        },
        "gasEstimates": {
            "creation": {
                "codeDepositCost": "607400",
                "executionCost": "infinite",
                "totalCost": "infinite"
            },
            "external": {
                "approveRequest(uint256)": "infinite",
                "contribute()": "48899",
                "createRequest(string,uint256,address)": "infinite",
                "finalizeRequest(uint256)": "infinite",
                "manager()": "2514"
            }
        },
        "methodIdentifiers": {
            "approveRequest(uint256)": "d7d1bbdb",
            "contribute()": "d7bb99ba",
            "createRequest(string,uint256,address)": "8a9cfd55",
            "finalizeRequest(uint256)": "03441006",
            "manager()": "481c6a75"
        }
    },
    "storageLayout": {
        "storage": [
            {
                "astId": 57,
                "contract": "Campaigns.sol:Campaign",
                "label": "Numofapprovers",
                "offset": 0,
                "slot": "0",
                "type": "t_uint256"
            },
            {
                "astId": 59,
                "contract": "Campaigns.sol:Campaign",
                "label": "numRequests",
                "offset": 0,
                "slot": "1",
                "type": "t_uint256"
            },
            {
                "astId": 64,
                "contract": "Campaigns.sol:Campaign",
                "label": "requests",
                "offset": 0,
                "slot": "2",
                "type": "t_mapping(t_uint256,t_struct(Request)55_storage)"
            },
            {
                "astId": 66,
                "contract": "Campaigns.sol:Campaign",
                "label": "manager",
                "offset": 0,
                "slot": "3",
                "type": "t_address"
            },
            {
                "astId": 68,
                "contract": "Campaigns.sol:Campaign",
                "label": "minContribution",
                "offset": 0,
                "slot": "4",
                "type": "t_uint256"
            },
            {
                "astId": 72,
                "contract": "Campaigns.sol:Campaign",
                "label": "approvers",
                "offset": 0,
                "slot": "5",
                "type": "t_mapping(t_address,t_bool)"
            }
        ],
        "types": {
            "t_address": {
                "encoding": "inplace",
                "label": "address",
                "numberOfBytes": "20"
            },
            "t_address_payable": {
                "encoding": "inplace",
                "label": "address payable",
                "numberOfBytes": "20"
            },
            "t_bool": {
                "encoding": "inplace",
                "label": "bool",
                "numberOfBytes": "1"
            },
            "t_mapping(t_address,t_bool)": {
                "encoding": "mapping",
                "key": "t_address",
                "label": "mapping(address => bool)",
                "numberOfBytes": "32",
                "value": "t_bool"
            },
            "t_mapping(t_uint256,t_struct(Request)55_storage)": {
                "encoding": "mapping",
                "key": "t_uint256",
                "label": "mapping(uint256 => struct Campaign.Request)",
                "numberOfBytes": "32",
                "value": "t_struct(Request)55_storage"
            },
            "t_string_storage": {
                "encoding": "bytes",
                "label": "string",
                "numberOfBytes": "32"
            },
            "t_struct(Request)55_storage": {
                "encoding": "inplace",
                "label": "struct Campaign.Request",
                "members": [
                    {
                        "astId": 42,
                        "contract": "Campaigns.sol:Campaign",
                        "label": "description",
                        "offset": 0,
                        "slot": "0",
                        "type": "t_string_storage"
                    },
                    {
                        "astId": 44,
                        "contract": "Campaigns.sol:Campaign",
                        "label": "value",
                        "offset": 0,
                        "slot": "1",
                        "type": "t_uint256"
                    },
                    {
                        "astId": 46,
                        "contract": "Campaigns.sol:Campaign",
                        "label": "recipient",
                        "offset": 0,
                        "slot": "2",
                        "type": "t_address_payable"
                    },
                    {
                        "astId": 48,
                        "contract": "Campaigns.sol:Campaign",
                        "label": "complete",
                        "offset": 20,
                        "slot": "2",
                        "type": "t_bool"
                    },
                    {
                        "astId": 50,
                        "contract": "Campaigns.sol:Campaign",
                        "label": "Numberofapprovals",
                        "offset": 0,
                        "slot": "3",
                        "type": "t_uint256"
                    },
                    {
                        "astId": 54,
                        "contract": "Campaigns.sol:Campaign",
                        "label": "approvals",
                        "offset": 0,
                        "slot": "4",
                        "type": "t_mapping(t_address,t_bool)"
                    }
                ],
                "numberOfBytes": "160"
            },
            "t_uint256": {
                "encoding": "inplace",
                "label": "uint256",
                "numberOfBytes": "32"
            }
        }
    },
    "userdoc": {
        "kind": "user",
        "methods": {},
        "version": 1
    }
}