{"abi":[{"inputs":[{"internalType":"uint256","name":"min","type":"uint256"},{"internalType":"address","name":"creator","type":"address"}],"stateMutability":"nonpayable","type":"constructor"},{"inputs":[],"name":"Numofapprovers","outputs":[{"internalType":"uint256","name":"","type":"uint256"}],"stateMutability":"view","type":"function"},{"inputs":[],"name":"SummariseCampaign","outputs":[{"internalType":"uint256","name":"","type":"uint256"},{"internalType":"uint256","name":"","type":"uint256"},{"internalType":"uint256","name":"","type":"uint256"},{"internalType":"uint256","name":"","type":"uint256"},{"internalType":"address","name":"","type":"address"}],"stateMutability":"view","type":"function"},{"inputs":[{"internalType":"address","name":"approver","type":"address"}],"name":"alreadyApproved","outputs":[{"internalType":"bool","name":"","type":"bool"}],"stateMutability":"view","type":"function"},{"inputs":[{"internalType":"uint256","name":"index","type":"uint256"}],"name":"approveRequest","outputs":[],"stateMutability":"nonpayable","type":"function"},{"inputs":[],"name":"contribute","outputs":[],"stateMutability":"payable","type":"function"},{"inputs":[{"internalType":"string","name":"desc","type":"string"},{"internalType":"uint256","name":"val","type":"uint256"},{"internalType":"address payable","name":"rec","type":"address"}],"name":"createRequest","outputs":[],"stateMutability":"nonpayable","type":"function"},{"inputs":[{"internalType":"uint256","name":"index","type":"uint256"}],"name":"finalizeRequest","outputs":[],"stateMutability":"payable","type":"function"},{"inputs":[],"name":"getNumRequests","outputs":[{"internalType":"uint256","name":"","type":"uint256"}],"stateMutability":"view","type":"function"},{"inputs":[],"name":"manager","outputs":[{"internalType":"address","name":"","type":"address"}],"stateMutability":"view","type":"function"},{"inputs":[{"internalType":"uint256","name":"","type":"uint256"}],"name":"requests","outputs":[{"internalType":"string","name":"description","type":"string"},{"internalType":"uint256","name":"value","type":"uint256"},{"internalType":"address payable","name":"recipient","type":"address"},{"internalType":"bool","name":"complete","type":"bool"},{"internalType":"uint256","name":"Numberofapprovals","type":"uint256"}],"stateMutability":"view","type":"function"}],"devdoc":{"kind":"dev","methods":{},"version":1},"evm":{"assembly":"    /* \"Campaigns.sol\":580:3074  contract Campaign {... */\n  mstore(0x40, 0x80)\n    /* \"Campaigns.sol\":1032:1168  constructor(uint min, address creator) {... */\n  callvalue\n  dup1\n  iszero\n  tag_1\n  jumpi\n  0x00\n  dup1\n  revert\ntag_1:\n  pop\n  mload(0x40)\n  sub(codesize, bytecodeSize)\n  dup1\n  bytecodeSize\n  dup4\n  codecopy\n  dup2\n  dup2\n  add\n  0x40\n  mstore\n  dup2\n  add\n  swap1\n  tag_2\n  swap2\n  swap1\n  tag_3\n  jump\t// in\ntag_2:\n    /* \"Campaigns.sol\":1100:1103  min */\n  dup2\n    /* \"Campaigns.sol\":1082:1097  minContribution */\n  0x04\n    /* \"Campaigns.sol\":1082:1103  minContribution = min */\n  dup2\n  swap1\n  sstore\n  pop\n    /* \"Campaigns.sol\":1124:1131  creator */\n  dup1\n    /* \"Campaigns.sol\":1114:1121  manager */\n  0x03\n  0x00\n    /* \"Campaigns.sol\":1114:1131  manager = creator */\n  0x0100\n  exp\n  dup2\n  sload\n  dup2\n  0xffffffffffffffffffffffffffffffffffffffff\n  mul\n  not\n  and\n  swap1\n  dup4\n  0xffffffffffffffffffffffffffffffffffffffff\n  and\n  mul\n  or\n  swap1\n  sstore\n  pop\n    /* \"Campaigns.sol\":1159:1160  0 */\n  0x00\n    /* \"Campaigns.sol\":1142:1156  Numofapprovers */\n  dup1\n    /* \"Campaigns.sol\":1142:1160  Numofapprovers = 0 */\n  dup2\n  swap1\n  sstore\n  pop\n    /* \"Campaigns.sol\":1032:1168  constructor(uint min, address creator) {... */\n  pop\n  pop\n    /* \"Campaigns.sol\":580:3074  contract Campaign {... */\n  jump(tag_6)\n    /* \"#utility.yul\":88:205   */\ntag_8:\n    /* \"#utility.yul\":197:198   */\n  0x00\n    /* \"#utility.yul\":194:195   */\n  dup1\n    /* \"#utility.yul\":187:199   */\n  revert\n    /* \"#utility.yul\":334:411   */\ntag_10:\n    /* \"#utility.yul\":371:378   */\n  0x00\n    /* \"#utility.yul\":400:405   */\n  dup2\n    /* \"#utility.yul\":389:405   */\n  swap1\n  pop\n    /* \"#utility.yul\":334:411   */\n  swap2\n  swap1\n  pop\n  jump\t// out\n    /* \"#utility.yul\":417:539   */\ntag_11:\n    /* \"#utility.yul\":490:514   */\n  tag_23\n    /* \"#utility.yul\":508:513   */\n  dup2\n    /* \"#utility.yul\":490:514   */\n  tag_10\n  jump\t// in\ntag_23:\n    /* \"#utility.yul\":483:488   */\n  dup2\n    /* \"#utility.yul\":480:515   */\n  eq\n    /* \"#utility.yul\":470:533   */\n  tag_24\n  jumpi\n    /* \"#utility.yul\":529:530   */\n  0x00\n    /* \"#utility.yul\":526:527   */\n  dup1\n    /* \"#utility.yul\":519:531   */\n  revert\n    /* \"#utility.yul\":470:533   */\ntag_24:\n    /* \"#utility.yul\":417:539   */\n  pop\n  jump\t// out\n    /* \"#utility.yul\":545:688   */\ntag_12:\n    /* \"#utility.yul\":602:607   */\n  0x00\n    /* \"#utility.yul\":633:639   */\n  dup2\n    /* \"#utility.yul\":627:640   */\n  mload\n    /* \"#utility.yul\":618:640   */\n  swap1\n  pop\n    /* \"#utility.yul\":649:682   */\n  tag_26\n    /* \"#utility.yul\":676:681   */\n  dup2\n    /* \"#utility.yul\":649:682   */\n  tag_11\n  jump\t// in\ntag_26:\n    /* \"#utility.yul\":545:688   */\n  swap3\n  swap2\n  pop\n  pop\n  jump\t// out\n    /* \"#utility.yul\":694:820   */\ntag_13:\n    /* \"#utility.yul\":731:738   */\n  0x00\n    /* \"#utility.yul\":771:813   */\n  0xffffffffffffffffffffffffffffffffffffffff\n    /* \"#utility.yul\":764:769   */\n  dup3\n    /* \"#utility.yul\":760:814   */\n  and\n    /* \"#utility.yul\":749:814   */\n  swap1\n  pop\n    /* \"#utility.yul\":694:820   */\n  swap2\n  swap1\n  pop\n  jump\t// out\n    /* \"#utility.yul\":826:922   */\ntag_14:\n    /* \"#utility.yul\":863:870   */\n  0x00\n    /* \"#utility.yul\":892:916   */\n  tag_29\n    /* \"#utility.yul\":910:915   */\n  dup3\n    /* \"#utility.yul\":892:916   */\n  tag_13\n  jump\t// in\ntag_29:\n    /* \"#utility.yul\":881:916   */\n  swap1\n  pop\n    /* \"#utility.yul\":826:922   */\n  swap2\n  swap1\n  pop\n  jump\t// out\n    /* \"#utility.yul\":928:1050   */\ntag_15:\n    /* \"#utility.yul\":1001:1025   */\n  tag_31\n    /* \"#utility.yul\":1019:1024   */\n  dup2\n    /* \"#utility.yul\":1001:1025   */\n  tag_14\n  jump\t// in\ntag_31:\n    /* \"#utility.yul\":994:999   */\n  dup2\n    /* \"#utility.yul\":991:1026   */\n  eq\n    /* \"#utility.yul\":981:1044   */\n  tag_32\n  jumpi\n    /* \"#utility.yul\":1040:1041   */\n  0x00\n    /* \"#utility.yul\":1037:1038   */\n  dup1\n    /* \"#utility.yul\":1030:1042   */\n  revert\n    /* \"#utility.yul\":981:1044   */\ntag_32:\n    /* \"#utility.yul\":928:1050   */\n  pop\n  jump\t// out\n    /* \"#utility.yul\":1056:1199   */\ntag_16:\n    /* \"#utility.yul\":1113:1118   */\n  0x00\n    /* \"#utility.yul\":1144:1150   */\n  dup2\n    /* \"#utility.yul\":1138:1151   */\n  mload\n    /* \"#utility.yul\":1129:1151   */\n  swap1\n  pop\n    /* \"#utility.yul\":1160:1193   */\n  tag_34\n    /* \"#utility.yul\":1187:1192   */\n  dup2\n    /* \"#utility.yul\":1160:1193   */\n  tag_15\n  jump\t// in\ntag_34:\n    /* \"#utility.yul\":1056:1199   */\n  swap3\n  swap2\n  pop\n  pop\n  jump\t// out\n    /* \"#utility.yul\":1205:1712   */\ntag_3:\n    /* \"#utility.yul\":1284:1290   */\n  0x00\n    /* \"#utility.yul\":1292:1298   */\n  dup1\n    /* \"#utility.yul\":1341:1343   */\n  0x40\n    /* \"#utility.yul\":1329:1338   */\n  dup4\n    /* \"#utility.yul\":1320:1327   */\n  dup6\n    /* \"#utility.yul\":1316:1339   */\n  sub\n    /* \"#utility.yul\":1312:1344   */\n  slt\n    /* \"#utility.yul\":1309:1428   */\n  iszero\n  tag_36\n  jumpi\n    /* \"#utility.yul\":1347:1426   */\n  tag_37\n  tag_8\n  jump\t// in\ntag_37:\n    /* \"#utility.yul\":1309:1428   */\ntag_36:\n    /* \"#utility.yul\":1467:1468   */\n  0x00\n    /* \"#utility.yul\":1492:1556   */\n  tag_38\n    /* \"#utility.yul\":1548:1555   */\n  dup6\n    /* \"#utility.yul\":1539:1545   */\n  dup3\n    /* \"#utility.yul\":1528:1537   */\n  dup7\n    /* \"#utility.yul\":1524:1546   */\n  add\n    /* \"#utility.yul\":1492:1556   */\n  tag_12\n  jump\t// in\ntag_38:\n    /* \"#utility.yul\":1482:1556   */\n  swap3\n  pop\n    /* \"#utility.yul\":1438:1566   */\n  pop\n    /* \"#utility.yul\":1605:1607   */\n  0x20\n    /* \"#utility.yul\":1631:1695   */\n  tag_39\n    /* \"#utility.yul\":1687:1694   */\n  dup6\n    /* \"#utility.yul\":1678:1684   */\n  dup3\n    /* \"#utility.yul\":1667:1676   */\n  dup7\n    /* \"#utility.yul\":1663:1685   */\n  add\n    /* \"#utility.yul\":1631:1695   */\n  tag_16\n  jump\t// in\ntag_39:\n    /* \"#utility.yul\":1621:1695   */\n  swap2\n  pop\n    /* \"#utility.yul\":1576:1705   */\n  pop\n    /* \"#utility.yul\":1205:1712   */\n  swap3\n  pop\n  swap3\n  swap1\n  pop\n  jump\t// out\n    /* \"Campaigns.sol\":580:3074  contract Campaign {... */\ntag_6:\n  dataSize(sub_0)\n  dup1\n  dataOffset(sub_0)\n  0x00\n  codecopy\n  0x00\n  return\nstop\n\nsub_0: assembly {\n        /* \"Campaigns.sol\":580:3074  contract Campaign {... */\n      mstore(0x40, 0x80)\n      jumpi(tag_1, lt(calldatasize, 0x04))\n      shr(0xe0, calldataload(0x00))\n      dup1\n      0x8a9cfd55\n      gt\n      tag_12\n      jumpi\n      dup1\n      0x8a9cfd55\n      eq\n      tag_7\n      jumpi\n      dup1\n      0xbb54f1b5\n      eq\n      tag_8\n      jumpi\n      dup1\n      0xd7bb99ba\n      eq\n      tag_9\n      jumpi\n      dup1\n      0xd7d1bbdb\n      eq\n      tag_10\n      jumpi\n      dup1\n      0xeccea929\n      eq\n      tag_11\n      jumpi\n      jump(tag_1)\n    tag_12:\n      dup1\n      0x03441006\n      eq\n      tag_2\n      jumpi\n      dup1\n      0x3e610fa6\n      eq\n      tag_3\n      jumpi\n      dup1\n      0x481c6a75\n      eq\n      tag_4\n      jumpi\n      dup1\n      0x4b8cd041\n      eq\n      tag_5\n      jumpi\n      dup1\n      0x81d12c58\n      eq\n      tag_6\n      jumpi\n    tag_1:\n      0x00\n      dup1\n      revert\n        /* \"Campaigns.sol\":2244:2533  function finalizeRequest(uint index) public payable isManager {... */\n    tag_2:\n      tag_13\n      0x04\n      dup1\n      calldatasize\n      sub\n      dup2\n      add\n      swap1\n      tag_14\n      swap2\n      swap1\n      tag_15\n      jump\t// in\n    tag_14:\n      tag_16\n      jump\t// in\n    tag_13:\n      stop\n        /* \"Campaigns.sol\":822:848  uint public Numofapprovers */\n    tag_3:\n      callvalue\n      dup1\n      iszero\n      tag_17\n      jumpi\n      0x00\n      dup1\n      revert\n    tag_17:\n      pop\n      tag_18\n      tag_19\n      jump\t// in\n    tag_18:\n      mload(0x40)\n      tag_20\n      swap2\n      swap1\n      tag_21\n      jump\t// in\n    tag_20:\n      mload(0x40)\n      dup1\n      swap2\n      sub\n      swap1\n      return\n        /* \"Campaigns.sol\":925:947  address public manager */\n    tag_4:\n      callvalue\n      dup1\n      iszero\n      tag_22\n      jumpi\n      0x00\n      dup1\n      revert\n    tag_22:\n      pop\n      tag_23\n      tag_24\n      jump\t// in\n    tag_23:\n      mload(0x40)\n      tag_25\n      swap2\n      swap1\n      tag_26\n      jump\t// in\n    tag_25:\n      mload(0x40)\n      dup1\n      swap2\n      sub\n      swap1\n      return\n        /* \"Campaigns.sol\":2981:3071  function getNumRequests() public view returns (uint) {... */\n    tag_5:\n      callvalue\n      dup1\n      iszero\n      tag_27\n      jumpi\n      0x00\n      dup1\n      revert\n    tag_27:\n      pop\n      tag_28\n      tag_29\n      jump\t// in\n    tag_28:\n      mload(0x40)\n      tag_30\n      swap2\n      swap1\n      tag_21\n      jump\t// in\n    tag_30:\n      mload(0x40)\n      dup1\n      swap2\n      sub\n      swap1\n      return\n        /* \"Campaigns.sol\":878:918  mapping(uint => Request) public requests */\n    tag_6:\n      callvalue\n      dup1\n      iszero\n      tag_31\n      jumpi\n      0x00\n      dup1\n      revert\n    tag_31:\n      pop\n      tag_32\n      0x04\n      dup1\n      calldatasize\n      sub\n      dup2\n      add\n      swap1\n      tag_33\n      swap2\n      swap1\n      tag_15\n      jump\t// in\n    tag_33:\n      tag_34\n      jump\t// in\n    tag_32:\n      mload(0x40)\n      tag_35\n      swap6\n      swap5\n      swap4\n      swap3\n      swap2\n      swap1\n      tag_36\n      jump\t// in\n    tag_35:\n      mload(0x40)\n      dup1\n      swap2\n      sub\n      swap1\n      return\n        /* \"Campaigns.sol\":1556:1889  function createRequest(... */\n    tag_7:\n      callvalue\n      dup1\n      iszero\n      tag_37\n      jumpi\n      0x00\n      dup1\n      revert\n    tag_37:\n      pop\n      tag_38\n      0x04\n      dup1\n      calldatasize\n      sub\n      dup2\n      add\n      swap1\n      tag_39\n      swap2\n      swap1\n      tag_40\n      jump\t// in\n    tag_39:\n      tag_41\n      jump\t// in\n    tag_38:\n      stop\n        /* \"Campaigns.sol\":2541:2836  function SummariseCampaign()... */\n    tag_8:\n      callvalue\n      dup1\n      iszero\n      tag_42\n      jumpi\n      0x00\n      dup1\n      revert\n    tag_42:\n      pop\n      tag_43\n      tag_44\n      jump\t// in\n    tag_43:\n      mload(0x40)\n      tag_45\n      swap6\n      swap5\n      swap4\n      swap3\n      swap2\n      swap1\n      tag_46\n      jump\t// in\n    tag_45:\n      mload(0x40)\n      dup1\n      swap2\n      sub\n      swap1\n      return\n        /* \"Campaigns.sol\":1362:1548  function contribute() public payable restriction {... */\n    tag_9:\n      tag_47\n      tag_48\n      jump\t// in\n    tag_47:\n      stop\n        /* \"Campaigns.sol\":1897:2236  function approveRequest(uint index) public {... */\n    tag_10:\n      callvalue\n      dup1\n      iszero\n      tag_49\n      jumpi\n      0x00\n      dup1\n      revert\n    tag_49:\n      pop\n      tag_50\n      0x04\n      dup1\n      calldatasize\n      sub\n      dup2\n      add\n      swap1\n      tag_51\n      swap2\n      swap1\n      tag_15\n      jump\t// in\n    tag_51:\n      tag_52\n      jump\t// in\n    tag_50:\n      stop\n        /* \"Campaigns.sol\":2844:2973  function alreadyApproved(address approver)external view returns (bool)... */\n    tag_11:\n      callvalue\n      dup1\n      iszero\n      tag_53\n      jumpi\n      0x00\n      dup1\n      revert\n    tag_53:\n      pop\n      tag_54\n      0x04\n      dup1\n      calldatasize\n      sub\n      dup2\n      add\n      swap1\n      tag_55\n      swap2\n      swap1\n      tag_56\n      jump\t// in\n    tag_55:\n      tag_57\n      jump\t// in\n    tag_54:\n      mload(0x40)\n      tag_58\n      swap2\n      swap1\n      tag_59\n      jump\t// in\n    tag_58:\n      mload(0x40)\n      dup1\n      swap2\n      sub\n      swap1\n      return\n        /* \"Campaigns.sol\":2244:2533  function finalizeRequest(uint index) public payable isManager {... */\n    tag_16:\n        /* \"Campaigns.sol\":1326:1333  manager */\n      0x03\n      0x00\n      swap1\n      sload\n      swap1\n      0x0100\n      exp\n      swap1\n      div\n      0xffffffffffffffffffffffffffffffffffffffff\n      and\n        /* \"Campaigns.sol\":1312:1333  msg.sender == manager */\n      0xffffffffffffffffffffffffffffffffffffffff\n      and\n        /* \"Campaigns.sol\":1312:1322  msg.sender */\n      caller\n        /* \"Campaigns.sol\":1312:1333  msg.sender == manager */\n      0xffffffffffffffffffffffffffffffffffffffff\n      and\n      eq\n        /* \"Campaigns.sol\":1304:1334  require(msg.sender == manager) */\n      tag_61\n      jumpi\n      0x00\n      dup1\n      revert\n    tag_61:\n        /* \"Campaigns.sol\":2317:2336  Request storage req */\n      0x00\n        /* \"Campaigns.sol\":2339:2347  requests */\n      0x02\n        /* \"Campaigns.sol\":2339:2354  requests[index] */\n      0x00\n        /* \"Campaigns.sol\":2348:2353  index */\n      dup4\n        /* \"Campaigns.sol\":2339:2354  requests[index] */\n      dup2\n      mstore\n      0x20\n      add\n      swap1\n      dup2\n      mstore\n      0x20\n      add\n      0x00\n      keccak256\n        /* \"Campaigns.sol\":2317:2354  Request storage req = requests[index] */\n      swap1\n      pop\n        /* \"Campaigns.sol\":2374:2377  req */\n      dup1\n        /* \"Campaigns.sol\":2374:2386  req.complete */\n      0x02\n      add\n      0x14\n      swap1\n      sload\n      swap1\n      0x0100\n      exp\n      swap1\n      div\n      0xff\n      and\n        /* \"Campaigns.sol\":2373:2386  !req.complete */\n      iszero\n        /* \"Campaigns.sol\":2365:2387  require(!req.complete) */\n      tag_63\n      jumpi\n      0x00\n      dup1\n      revert\n    tag_63:\n        /* \"Campaigns.sol\":2448:2449  2 */\n      0x02\n        /* \"Campaigns.sol\":2431:2445  Numofapprovers */\n      sload(0x00)\n        /* \"Campaigns.sol\":2431:2449  Numofapprovers / 2 */\n      tag_64\n      swap2\n      swap1\n      tag_65\n      jump\t// in\n    tag_64:\n        /* \"Campaigns.sol\":2406:2409  req */\n      dup2\n        /* \"Campaigns.sol\":2406:2427  req.Numberofapprovals */\n      0x03\n      add\n      sload\n        /* \"Campaigns.sol\":2406:2450  req.Numberofapprovals > (Numofapprovers / 2) */\n      gt\n        /* \"Campaigns.sol\":2398:2451  require(req.Numberofapprovals > (Numofapprovers / 2)) */\n      tag_66\n      jumpi\n      0x00\n      dup1\n      revert\n    tag_66:\n        /* \"Campaigns.sol\":2477:2481  true */\n      0x01\n        /* \"Campaigns.sol\":2462:2465  req */\n      dup2\n        /* \"Campaigns.sol\":2462:2474  req.complete */\n      0x02\n      add\n      0x14\n        /* \"Campaigns.sol\":2462:2481  req.complete = true */\n      0x0100\n      exp\n      dup2\n      sload\n      dup2\n      0xff\n      mul\n      not\n      and\n      swap1\n      dup4\n      iszero\n      iszero\n      mul\n      or\n      swap1\n      sstore\n      pop\n        /* \"Campaigns.sol\":2492:2495  req */\n      dup1\n        /* \"Campaigns.sol\":2492:2505  req.recipient */\n      0x02\n      add\n      0x00\n      swap1\n      sload\n      swap1\n      0x0100\n      exp\n      swap1\n      div\n      0xffffffffffffffffffffffffffffffffffffffff\n      and\n        /* \"Campaigns.sol\":2492:2514  req.recipient.transfer */\n      0xffffffffffffffffffffffffffffffffffffffff\n      and\n        /* \"Campaigns.sol\":2492:2525  req.recipient.transfer(req.value) */\n      0x08fc\n        /* \"Campaigns.sol\":2515:2518  req */\n      dup3\n        /* \"Campaigns.sol\":2515:2524  req.value */\n      0x01\n      add\n      sload\n        /* \"Campaigns.sol\":2492:2525  req.recipient.transfer(req.value) */\n      swap1\n      dup2\n      iszero\n      mul\n      swap1\n      mload(0x40)\n      0x00\n      mload(0x40)\n      dup1\n      dup4\n      sub\n      dup2\n      dup6\n      dup9\n      dup9\n      call\n      swap4\n      pop\n      pop\n      pop\n      pop\n      iszero\n      dup1\n      iszero\n      tag_68\n      jumpi\n      returndatasize\n      0x00\n      dup1\n      returndatacopy\n      revert(0x00, returndatasize)\n    tag_68:\n      pop\n        /* \"Campaigns.sol\":2306:2533  {... */\n      pop\n        /* \"Campaigns.sol\":2244:2533  function finalizeRequest(uint index) public payable isManager {... */\n      pop\n      jump\t// out\n        /* \"Campaigns.sol\":822:848  uint public Numofapprovers */\n    tag_19:\n      sload(0x00)\n      dup2\n      jump\t// out\n        /* \"Campaigns.sol\":925:947  address public manager */\n    tag_24:\n      0x03\n      0x00\n      swap1\n      sload\n      swap1\n      0x0100\n      exp\n      swap1\n      div\n      0xffffffffffffffffffffffffffffffffffffffff\n      and\n      dup2\n      jump\t// out\n        /* \"Campaigns.sol\":2981:3071  function getNumRequests() public view returns (uint) {... */\n    tag_29:\n        /* \"Campaigns.sol\":3028:3032  uint */\n      0x00\n        /* \"Campaigns.sol\":3052:3063  numRequests */\n      sload(0x01)\n        /* \"Campaigns.sol\":3045:3063  return numRequests */\n      swap1\n      pop\n        /* \"Campaigns.sol\":2981:3071  function getNumRequests() public view returns (uint) {... */\n      swap1\n      jump\t// out\n        /* \"Campaigns.sol\":878:918  mapping(uint => Request) public requests */\n    tag_34:\n      mstore(0x20, 0x02)\n      dup1\n      0x00\n      mstore\n      keccak256(0x00, 0x40)\n      0x00\n      swap2\n      pop\n      swap1\n      pop\n      dup1\n      0x00\n      add\n      dup1\n      sload\n      tag_70\n      swap1\n      tag_71\n      jump\t// in\n    tag_70:\n      dup1\n      0x1f\n      add\n      0x20\n      dup1\n      swap2\n      div\n      mul\n      0x20\n      add\n      mload(0x40)\n      swap1\n      dup2\n      add\n      0x40\n      mstore\n      dup1\n      swap3\n      swap2\n      swap1\n      dup2\n      dup2\n      mstore\n      0x20\n      add\n      dup3\n      dup1\n      sload\n      tag_72\n      swap1\n      tag_71\n      jump\t// in\n    tag_72:\n      dup1\n      iszero\n      tag_73\n      jumpi\n      dup1\n      0x1f\n      lt\n      tag_74\n      jumpi\n      0x0100\n      dup1\n      dup4\n      sload\n      div\n      mul\n      dup4\n      mstore\n      swap2\n      0x20\n      add\n      swap2\n      jump(tag_73)\n    tag_74:\n      dup3\n      add\n      swap2\n      swap1\n      0x00\n      mstore\n      keccak256(0x00, 0x20)\n      swap1\n    tag_75:\n      dup2\n      sload\n      dup2\n      mstore\n      swap1\n      0x01\n      add\n      swap1\n      0x20\n      add\n      dup1\n      dup4\n      gt\n      tag_75\n      jumpi\n      dup3\n      swap1\n      sub\n      0x1f\n      and\n      dup3\n      add\n      swap2\n    tag_73:\n      pop\n      pop\n      pop\n      pop\n      pop\n      swap1\n      dup1\n      0x01\n      add\n      sload\n      swap1\n      dup1\n      0x02\n      add\n      0x00\n      swap1\n      sload\n      swap1\n      0x0100\n      exp\n      swap1\n      div\n      0xffffffffffffffffffffffffffffffffffffffff\n      and\n      swap1\n      dup1\n      0x02\n      add\n      0x14\n      swap1\n      sload\n      swap1\n      0x0100\n      exp\n      swap1\n      div\n      0xff\n      and\n      swap1\n      dup1\n      0x03\n      add\n      sload\n      swap1\n      pop\n      dup6\n      jump\t// out\n        /* \"Campaigns.sol\":1556:1889  function createRequest(... */\n    tag_41:\n        /* \"Campaigns.sol\":1326:1333  manager */\n      0x03\n      0x00\n      swap1\n      sload\n      swap1\n      0x0100\n      exp\n      swap1\n      div\n      0xffffffffffffffffffffffffffffffffffffffff\n      and\n        /* \"Campaigns.sol\":1312:1333  msg.sender == manager */\n      0xffffffffffffffffffffffffffffffffffffffff\n      and\n        /* \"Campaigns.sol\":1312:1322  msg.sender */\n      caller\n        /* \"Campaigns.sol\":1312:1333  msg.sender == manager */\n      0xffffffffffffffffffffffffffffffffffffffff\n      and\n      eq\n        /* \"Campaigns.sol\":1304:1334  require(msg.sender == manager) */\n      tag_77\n      jumpi\n      0x00\n      dup1\n      revert\n    tag_77:\n        /* \"Campaigns.sol\":1692:1709  Request storage r */\n      0x00\n        /* \"Campaigns.sol\":1712:1720  requests */\n      0x02\n        /* \"Campaigns.sol\":1712:1735  requests[numRequests++] */\n      0x00\n        /* \"Campaigns.sol\":1721:1732  numRequests */\n      0x01\n      0x00\n        /* \"Campaigns.sol\":1721:1734  numRequests++ */\n      dup2\n      sload\n      dup1\n      swap3\n      swap2\n      swap1\n      tag_79\n      swap1\n      tag_80\n      jump\t// in\n    tag_79:\n      swap2\n      swap1\n      pop\n      sstore\n        /* \"Campaigns.sol\":1712:1735  requests[numRequests++] */\n      dup2\n      mstore\n      0x20\n      add\n      swap1\n      dup2\n      mstore\n      0x20\n      add\n      0x00\n      keccak256\n        /* \"Campaigns.sol\":1692:1735  Request storage r = requests[numRequests++] */\n      swap1\n      pop\n        /* \"Campaigns.sol\":1762:1766  desc */\n      dup4\n        /* \"Campaigns.sol\":1746:1747  r */\n      dup2\n        /* \"Campaigns.sol\":1746:1759  r.description */\n      0x00\n      add\n        /* \"Campaigns.sol\":1746:1766  r.description = desc */\n      swap1\n      dup2\n      tag_81\n      swap2\n      swap1\n      tag_82\n      jump\t// in\n    tag_81:\n      pop\n        /* \"Campaigns.sol\":1787:1790  val */\n      dup3\n        /* \"Campaigns.sol\":1777:1778  r */\n      dup2\n        /* \"Campaigns.sol\":1777:1784  r.value */\n      0x01\n      add\n        /* \"Campaigns.sol\":1777:1790  r.value = val */\n      dup2\n      swap1\n      sstore\n      pop\n        /* \"Campaigns.sol\":1815:1818  rec */\n      dup2\n        /* \"Campaigns.sol\":1801:1802  r */\n      dup2\n        /* \"Campaigns.sol\":1801:1812  r.recipient */\n      0x02\n      add\n      0x00\n        /* \"Campaigns.sol\":1801:1818  r.recipient = rec */\n      0x0100\n      exp\n      dup2\n      sload\n      dup2\n      0xffffffffffffffffffffffffffffffffffffffff\n      mul\n      not\n      and\n      swap1\n      dup4\n      0xffffffffffffffffffffffffffffffffffffffff\n      and\n      mul\n      or\n      swap1\n      sstore\n      pop\n        /* \"Campaigns.sol\":1842:1847  false */\n      0x00\n        /* \"Campaigns.sol\":1829:1830  r */\n      dup2\n        /* \"Campaigns.sol\":1829:1839  r.complete */\n      0x02\n      add\n      0x14\n        /* \"Campaigns.sol\":1829:1847  r.complete = false */\n      0x0100\n      exp\n      dup2\n      sload\n      dup2\n      0xff\n      mul\n      not\n      and\n      swap1\n      dup4\n      iszero\n      iszero\n      mul\n      or\n      swap1\n      sstore\n      pop\n        /* \"Campaigns.sol\":1880:1881  0 */\n      0x00\n        /* \"Campaigns.sol\":1858:1859  r */\n      dup2\n        /* \"Campaigns.sol\":1858:1877  r.Numberofapprovals */\n      0x03\n      add\n        /* \"Campaigns.sol\":1858:1881  r.Numberofapprovals = 0 */\n      dup2\n      swap1\n      sstore\n      pop\n        /* \"Campaigns.sol\":1681:1889  {... */\n      pop\n        /* \"Campaigns.sol\":1556:1889  function createRequest(... */\n      pop\n      pop\n      pop\n      jump\t// out\n        /* \"Campaigns.sol\":2541:2836  function SummariseCampaign()... */\n    tag_44:\n        /* \"Campaigns.sol\":2618:2622  uint */\n      0x00\n        /* \"Campaigns.sol\":2624:2628  uint */\n      dup1\n        /* \"Campaigns.sol\":2630:2634  uint */\n      0x00\n        /* \"Campaigns.sol\":2636:2640  uint */\n      dup1\n        /* \"Campaigns.sol\":2642:2649  address */\n      0x00\n        /* \"Campaigns.sol\":2689:2704  minContribution */\n      sload(0x04)\n        /* \"Campaigns.sol\":2719:2740  address(this).balance */\n      selfbalance\n        /* \"Campaigns.sol\":2755:2766  numRequests */\n      sload(0x01)\n        /* \"Campaigns.sol\":2781:2795  Numofapprovers */\n      sload(0x00)\n        /* \"Campaigns.sol\":2810:2817  manager */\n      0x03\n      0x00\n      swap1\n      sload\n      swap1\n      0x0100\n      exp\n      swap1\n      div\n      0xffffffffffffffffffffffffffffffffffffffff\n      and\n        /* \"Campaigns.sol\":2667:2828  return (... */\n      swap5\n      pop\n      swap5\n      pop\n      swap5\n      pop\n      swap5\n      pop\n      swap5\n      pop\n        /* \"Campaigns.sol\":2541:2836  function SummariseCampaign()... */\n      swap1\n      swap2\n      swap3\n      swap4\n      swap5\n      jump\t// out\n        /* \"Campaigns.sol\":1362:1548  function contribute() public payable restriction {... */\n    tag_48:\n        /* \"Campaigns.sol\":1230:1245  minContribution */\n      sload(0x04)\n        /* \"Campaigns.sol\":1218:1227  msg.value */\n      callvalue\n        /* \"Campaigns.sol\":1218:1245  msg.value > minContribution */\n      gt\n        /* \"Campaigns.sol\":1210:1246  require(msg.value > minContribution) */\n      tag_85\n      jumpi\n      0x00\n      dup1\n      revert\n    tag_85:\n        /* \"Campaigns.sol\":1451:1456  false */\n      0x00\n        /* \"Campaigns.sol\":1426:1456  approvers[msg.sender] == false */\n      iszero\n      iszero\n        /* \"Campaigns.sol\":1426:1435  approvers */\n      0x05\n        /* \"Campaigns.sol\":1426:1447  approvers[msg.sender] */\n      0x00\n        /* \"Campaigns.sol\":1436:1446  msg.sender */\n      caller\n        /* \"Campaigns.sol\":1426:1447  approvers[msg.sender] */\n      0xffffffffffffffffffffffffffffffffffffffff\n      and\n      0xffffffffffffffffffffffffffffffffffffffff\n      and\n      dup2\n      mstore\n      0x20\n      add\n      swap1\n      dup2\n      mstore\n      0x20\n      add\n      0x00\n      keccak256\n      0x00\n      swap1\n      sload\n      swap1\n      0x0100\n      exp\n      swap1\n      div\n      0xff\n      and\n        /* \"Campaigns.sol\":1426:1456  approvers[msg.sender] == false */\n      iszero\n      iszero\n      sub\n        /* \"Campaigns.sol\":1422:1502  if (approvers[msg.sender] == false ) {... */\n      tag_87\n      jumpi\n        /* \"Campaigns.sol\":1474:1488  Numofapprovers */\n      0x00\n      dup1\n        /* \"Campaigns.sol\":1474:1490  Numofapprovers++ */\n      dup2\n      sload\n      dup1\n      swap3\n      swap2\n      swap1\n      tag_88\n      swap1\n      tag_80\n      jump\t// in\n    tag_88:\n      swap2\n      swap1\n      pop\n      sstore\n      pop\n        /* \"Campaigns.sol\":1422:1502  if (approvers[msg.sender] == false ) {... */\n    tag_87:\n        /* \"Campaigns.sol\":1536:1540  true */\n      0x01\n        /* \"Campaigns.sol\":1512:1521  approvers */\n      0x05\n        /* \"Campaigns.sol\":1512:1533  approvers[msg.sender] */\n      0x00\n        /* \"Campaigns.sol\":1522:1532  msg.sender */\n      caller\n        /* \"Campaigns.sol\":1512:1533  approvers[msg.sender] */\n      0xffffffffffffffffffffffffffffffffffffffff\n      and\n      0xffffffffffffffffffffffffffffffffffffffff\n      and\n      dup2\n      mstore\n      0x20\n      add\n      swap1\n      dup2\n      mstore\n      0x20\n      add\n      0x00\n      keccak256\n      0x00\n        /* \"Campaigns.sol\":1512:1540  approvers[msg.sender] = true */\n      0x0100\n      exp\n      dup2\n      sload\n      dup2\n      0xff\n      mul\n      not\n      and\n      swap1\n      dup4\n      iszero\n      iszero\n      mul\n      or\n      swap1\n      sstore\n      pop\n        /* \"Campaigns.sol\":1362:1548  function contribute() public payable restriction {... */\n      jump\t// out\n        /* \"Campaigns.sol\":1897:2236  function approveRequest(uint index) public {... */\n    tag_52:\n        /* \"Campaigns.sol\":1951:1970  Request storage req */\n      0x00\n        /* \"Campaigns.sol\":1973:1981  requests */\n      0x02\n        /* \"Campaigns.sol\":1973:1988  requests[index] */\n      0x00\n        /* \"Campaigns.sol\":1982:1987  index */\n      dup4\n        /* \"Campaigns.sol\":1973:1988  requests[index] */\n      dup2\n      mstore\n      0x20\n      add\n      swap1\n      dup2\n      mstore\n      0x20\n      add\n      0x00\n      keccak256\n        /* \"Campaigns.sol\":1951:1988  Request storage req = requests[index] */\n      swap1\n      pop\n        /* \"Campaigns.sol\":2009:2018  approvers */\n      0x05\n        /* \"Campaigns.sol\":2009:2030  approvers[msg.sender] */\n      0x00\n        /* \"Campaigns.sol\":2019:2029  msg.sender */\n      caller\n        /* \"Campaigns.sol\":2009:2030  approvers[msg.sender] */\n      0xffffffffffffffffffffffffffffffffffffffff\n      and\n      0xffffffffffffffffffffffffffffffffffffffff\n      and\n      dup2\n      mstore\n      0x20\n      add\n      swap1\n      dup2\n      mstore\n      0x20\n      add\n      0x00\n      keccak256\n      0x00\n      swap1\n      sload\n      swap1\n      0x0100\n      exp\n      swap1\n      div\n      0xff\n      and\n        /* \"Campaigns.sol\":2001:2031  require(approvers[msg.sender]) */\n      tag_90\n      jumpi\n      0x00\n      dup1\n      revert\n    tag_90:\n        /* \"Campaigns.sol\":2088:2091  req */\n      dup1\n        /* \"Campaigns.sol\":2088:2101  req.approvals */\n      0x04\n      add\n        /* \"Campaigns.sol\":2088:2113  req.approvals[msg.sender] */\n      0x00\n        /* \"Campaigns.sol\":2102:2112  msg.sender */\n      caller\n        /* \"Campaigns.sol\":2088:2113  req.approvals[msg.sender] */\n      0xffffffffffffffffffffffffffffffffffffffff\n      and\n      0xffffffffffffffffffffffffffffffffffffffff\n      and\n      dup2\n      mstore\n      0x20\n      add\n      swap1\n      dup2\n      mstore\n      0x20\n      add\n      0x00\n      keccak256\n      0x00\n      swap1\n      sload\n      swap1\n      0x0100\n      exp\n      swap1\n      div\n      0xff\n      and\n        /* \"Campaigns.sol\":2087:2113  !req.approvals[msg.sender] */\n      iszero\n        /* \"Campaigns.sol\":2079:2114  require(!req.approvals[msg.sender]) */\n      tag_91\n      jumpi\n      0x00\n      dup1\n      revert\n    tag_91:\n        /* \"Campaigns.sol\":2190:2194  true */\n      0x01\n        /* \"Campaigns.sol\":2162:2165  req */\n      dup2\n        /* \"Campaigns.sol\":2162:2175  req.approvals */\n      0x04\n      add\n        /* \"Campaigns.sol\":2162:2187  req.approvals[msg.sender] */\n      0x00\n        /* \"Campaigns.sol\":2176:2186  msg.sender */\n      caller\n        /* \"Campaigns.sol\":2162:2187  req.approvals[msg.sender] */\n      0xffffffffffffffffffffffffffffffffffffffff\n      and\n      0xffffffffffffffffffffffffffffffffffffffff\n      and\n      dup2\n      mstore\n      0x20\n      add\n      swap1\n      dup2\n      mstore\n      0x20\n      add\n      0x00\n      keccak256\n      0x00\n        /* \"Campaigns.sol\":2162:2194  req.approvals[msg.sender] = true */\n      0x0100\n      exp\n      dup2\n      sload\n      dup2\n      0xff\n      mul\n      not\n      and\n      swap1\n      dup4\n      iszero\n      iszero\n      mul\n      or\n      swap1\n      sstore\n      pop\n        /* \"Campaigns.sol\":2205:2208  req */\n      dup1\n        /* \"Campaigns.sol\":2205:2226  req.Numberofapprovals */\n      0x03\n      add\n      0x00\n        /* \"Campaigns.sol\":2205:2228  req.Numberofapprovals++ */\n      dup2\n      sload\n      dup1\n      swap3\n      swap2\n      swap1\n      tag_92\n      swap1\n      tag_80\n      jump\t// in\n    tag_92:\n      swap2\n      swap1\n      pop\n      sstore\n      pop\n        /* \"Campaigns.sol\":1940:2236  {... */\n      pop\n        /* \"Campaigns.sol\":1897:2236  function approveRequest(uint index) public {... */\n      pop\n      jump\t// out\n        /* \"Campaigns.sol\":2844:2973  function alreadyApproved(address approver)external view returns (bool)... */\n    tag_57:\n        /* \"Campaigns.sol\":2909:2913  bool */\n      0x00\n        /* \"Campaigns.sol\":2960:2964  true */\n      0x01\n        /* \"Campaigns.sol\":2939:2964  approvers[approver]==true */\n      iszero\n      iszero\n        /* \"Campaigns.sol\":2939:2948  approvers */\n      0x05\n        /* \"Campaigns.sol\":2939:2958  approvers[approver] */\n      0x00\n        /* \"Campaigns.sol\":2949:2957  approver */\n      dup5\n        /* \"Campaigns.sol\":2939:2958  approvers[approver] */\n      0xffffffffffffffffffffffffffffffffffffffff\n      and\n      0xffffffffffffffffffffffffffffffffffffffff\n      and\n      dup2\n      mstore\n      0x20\n      add\n      swap1\n      dup2\n      mstore\n      0x20\n      add\n      0x00\n      keccak256\n      0x00\n      swap1\n      sload\n      swap1\n      0x0100\n      exp\n      swap1\n      div\n      0xff\n      and\n        /* \"Campaigns.sol\":2939:2964  approvers[approver]==true */\n      iszero\n      iszero\n      eq\n        /* \"Campaigns.sol\":2931:2965  return (approvers[approver]==true) */\n      swap1\n      pop\n        /* \"Campaigns.sol\":2844:2973  function alreadyApproved(address approver)external view returns (bool)... */\n      swap2\n      swap1\n      pop\n      jump\t// out\n        /* \"#utility.yul\":7:82   */\n    tag_94:\n        /* \"#utility.yul\":40:46   */\n      0x00\n        /* \"#utility.yul\":73:75   */\n      0x40\n        /* \"#utility.yul\":67:76   */\n      mload\n        /* \"#utility.yul\":57:76   */\n      swap1\n      pop\n        /* \"#utility.yul\":7:82   */\n      swap1\n      jump\t// out\n        /* \"#utility.yul\":88:205   */\n    tag_95:\n        /* \"#utility.yul\":197:198   */\n      0x00\n        /* \"#utility.yul\":194:195   */\n      dup1\n        /* \"#utility.yul\":187:199   */\n      revert\n        /* \"#utility.yul\":211:328   */\n    tag_96:\n        /* \"#utility.yul\":320:321   */\n      0x00\n        /* \"#utility.yul\":317:318   */\n      dup1\n        /* \"#utility.yul\":310:322   */\n      revert\n        /* \"#utility.yul\":334:411   */\n    tag_97:\n        /* \"#utility.yul\":371:378   */\n      0x00\n        /* \"#utility.yul\":400:405   */\n      dup2\n        /* \"#utility.yul\":389:405   */\n      swap1\n      pop\n        /* \"#utility.yul\":334:411   */\n      swap2\n      swap1\n      pop\n      jump\t// out\n        /* \"#utility.yul\":417:539   */\n    tag_98:\n        /* \"#utility.yul\":490:514   */\n      tag_150\n        /* \"#utility.yul\":508:513   */\n      dup2\n        /* \"#utility.yul\":490:514   */\n      tag_97\n      jump\t// in\n    tag_150:\n        /* \"#utility.yul\":483:488   */\n      dup2\n        /* \"#utility.yul\":480:515   */\n      eq\n        /* \"#utility.yul\":470:533   */\n      tag_151\n      jumpi\n        /* \"#utility.yul\":529:530   */\n      0x00\n        /* \"#utility.yul\":526:527   */\n      dup1\n        /* \"#utility.yul\":519:531   */\n      revert\n        /* \"#utility.yul\":470:533   */\n    tag_151:\n        /* \"#utility.yul\":417:539   */\n      pop\n      jump\t// out\n        /* \"#utility.yul\":545:684   */\n    tag_99:\n        /* \"#utility.yul\":591:596   */\n      0x00\n        /* \"#utility.yul\":629:635   */\n      dup2\n        /* \"#utility.yul\":616:636   */\n      calldataload\n        /* \"#utility.yul\":607:636   */\n      swap1\n      pop\n        /* \"#utility.yul\":645:678   */\n      tag_153\n        /* \"#utility.yul\":672:677   */\n      dup2\n        /* \"#utility.yul\":645:678   */\n      tag_98\n      jump\t// in\n    tag_153:\n        /* \"#utility.yul\":545:684   */\n      swap3\n      swap2\n      pop\n      pop\n      jump\t// out\n        /* \"#utility.yul\":690:1019   */\n    tag_15:\n        /* \"#utility.yul\":749:755   */\n      0x00\n        /* \"#utility.yul\":798:800   */\n      0x20\n        /* \"#utility.yul\":786:795   */\n      dup3\n        /* \"#utility.yul\":777:784   */\n      dup5\n        /* \"#utility.yul\":773:796   */\n      sub\n        /* \"#utility.yul\":769:801   */\n      slt\n        /* \"#utility.yul\":766:885   */\n      iszero\n      tag_155\n      jumpi\n        /* \"#utility.yul\":804:883   */\n      tag_156\n      tag_95\n      jump\t// in\n    tag_156:\n        /* \"#utility.yul\":766:885   */\n    tag_155:\n        /* \"#utility.yul\":924:925   */\n      0x00\n        /* \"#utility.yul\":949:1002   */\n      tag_157\n        /* \"#utility.yul\":994:1001   */\n      dup5\n        /* \"#utility.yul\":985:991   */\n      dup3\n        /* \"#utility.yul\":974:983   */\n      dup6\n        /* \"#utility.yul\":970:992   */\n      add\n        /* \"#utility.yul\":949:1002   */\n      tag_99\n      jump\t// in\n    tag_157:\n        /* \"#utility.yul\":939:1002   */\n      swap2\n      pop\n        /* \"#utility.yul\":895:1012   */\n      pop\n        /* \"#utility.yul\":690:1019   */\n      swap3\n      swap2\n      pop\n      pop\n      jump\t// out\n        /* \"#utility.yul\":1025:1143   */\n    tag_100:\n        /* \"#utility.yul\":1112:1136   */\n      tag_159\n        /* \"#utility.yul\":1130:1135   */\n      dup2\n        /* \"#utility.yul\":1112:1136   */\n      tag_97\n      jump\t// in\n    tag_159:\n        /* \"#utility.yul\":1107:1110   */\n      dup3\n        /* \"#utility.yul\":1100:1137   */\n      mstore\n        /* \"#utility.yul\":1025:1143   */\n      pop\n      pop\n      jump\t// out\n        /* \"#utility.yul\":1149:1371   */\n    tag_21:\n        /* \"#utility.yul\":1242:1246   */\n      0x00\n        /* \"#utility.yul\":1280:1282   */\n      0x20\n        /* \"#utility.yul\":1269:1278   */\n      dup3\n        /* \"#utility.yul\":1265:1283   */\n      add\n        /* \"#utility.yul\":1257:1283   */\n      swap1\n      pop\n        /* \"#utility.yul\":1293:1364   */\n      tag_161\n        /* \"#utility.yul\":1361:1362   */\n      0x00\n        /* \"#utility.yul\":1350:1359   */\n      dup4\n        /* \"#utility.yul\":1346:1363   */\n      add\n        /* \"#utility.yul\":1337:1343   */\n      dup5\n        /* \"#utility.yul\":1293:1364   */\n      tag_100\n      jump\t// in\n    tag_161:\n        /* \"#utility.yul\":1149:1371   */\n      swap3\n      swap2\n      pop\n      pop\n      jump\t// out\n        /* \"#utility.yul\":1377:1503   */\n    tag_101:\n        /* \"#utility.yul\":1414:1421   */\n      0x00\n        /* \"#utility.yul\":1454:1496   */\n      0xffffffffffffffffffffffffffffffffffffffff\n        /* \"#utility.yul\":1447:1452   */\n      dup3\n        /* \"#utility.yul\":1443:1497   */\n      and\n        /* \"#utility.yul\":1432:1497   */\n      swap1\n      pop\n        /* \"#utility.yul\":1377:1503   */\n      swap2\n      swap1\n      pop\n      jump\t// out\n        /* \"#utility.yul\":1509:1605   */\n    tag_102:\n        /* \"#utility.yul\":1546:1553   */\n      0x00\n        /* \"#utility.yul\":1575:1599   */\n      tag_164\n        /* \"#utility.yul\":1593:1598   */\n      dup3\n        /* \"#utility.yul\":1575:1599   */\n      tag_101\n      jump\t// in\n    tag_164:\n        /* \"#utility.yul\":1564:1599   */\n      swap1\n      pop\n        /* \"#utility.yul\":1509:1605   */\n      swap2\n      swap1\n      pop\n      jump\t// out\n        /* \"#utility.yul\":1611:1729   */\n    tag_103:\n        /* \"#utility.yul\":1698:1722   */\n      tag_166\n        /* \"#utility.yul\":1716:1721   */\n      dup2\n        /* \"#utility.yul\":1698:1722   */\n      tag_102\n      jump\t// in\n    tag_166:\n        /* \"#utility.yul\":1693:1696   */\n      dup3\n        /* \"#utility.yul\":1686:1723   */\n      mstore\n        /* \"#utility.yul\":1611:1729   */\n      pop\n      pop\n      jump\t// out\n        /* \"#utility.yul\":1735:1957   */\n    tag_26:\n        /* \"#utility.yul\":1828:1832   */\n      0x00\n        /* \"#utility.yul\":1866:1868   */\n      0x20\n        /* \"#utility.yul\":1855:1864   */\n      dup3\n        /* \"#utility.yul\":1851:1869   */\n      add\n        /* \"#utility.yul\":1843:1869   */\n      swap1\n      pop\n        /* \"#utility.yul\":1879:1950   */\n      tag_168\n        /* \"#utility.yul\":1947:1948   */\n      0x00\n        /* \"#utility.yul\":1936:1945   */\n      dup4\n        /* \"#utility.yul\":1932:1949   */\n      add\n        /* \"#utility.yul\":1923:1929   */\n      dup5\n        /* \"#utility.yul\":1879:1950   */\n      tag_103\n      jump\t// in\n    tag_168:\n        /* \"#utility.yul\":1735:1957   */\n      swap3\n      swap2\n      pop\n      pop\n      jump\t// out\n        /* \"#utility.yul\":1963:2062   */\n    tag_104:\n        /* \"#utility.yul\":2015:2021   */\n      0x00\n        /* \"#utility.yul\":2049:2054   */\n      dup2\n        /* \"#utility.yul\":2043:2055   */\n      mload\n        /* \"#utility.yul\":2033:2055   */\n      swap1\n      pop\n        /* \"#utility.yul\":1963:2062   */\n      swap2\n      swap1\n      pop\n      jump\t// out\n        /* \"#utility.yul\":2068:2237   */\n    tag_105:\n        /* \"#utility.yul\":2152:2163   */\n      0x00\n        /* \"#utility.yul\":2186:2192   */\n      dup3\n        /* \"#utility.yul\":2181:2184   */\n      dup3\n        /* \"#utility.yul\":2174:2193   */\n      mstore\n        /* \"#utility.yul\":2226:2230   */\n      0x20\n        /* \"#utility.yul\":2221:2224   */\n      dup3\n        /* \"#utility.yul\":2217:2231   */\n      add\n        /* \"#utility.yul\":2202:2231   */\n      swap1\n      pop\n        /* \"#utility.yul\":2068:2237   */\n      swap3\n      swap2\n      pop\n      pop\n      jump\t// out\n        /* \"#utility.yul\":2243:2489   */\n    tag_106:\n        /* \"#utility.yul\":2324:2325   */\n      0x00\n        /* \"#utility.yul\":2334:2447   */\n    tag_172:\n        /* \"#utility.yul\":2348:2354   */\n      dup4\n        /* \"#utility.yul\":2345:2346   */\n      dup2\n        /* \"#utility.yul\":2342:2355   */\n      lt\n        /* \"#utility.yul\":2334:2447   */\n      iszero\n      tag_174\n      jumpi\n        /* \"#utility.yul\":2433:2434   */\n      dup1\n        /* \"#utility.yul\":2428:2431   */\n      dup3\n        /* \"#utility.yul\":2424:2435   */\n      add\n        /* \"#utility.yul\":2418:2436   */\n      mload\n        /* \"#utility.yul\":2414:2415   */\n      dup2\n        /* \"#utility.yul\":2409:2412   */\n      dup5\n        /* \"#utility.yul\":2405:2416   */\n      add\n        /* \"#utility.yul\":2398:2437   */\n      mstore\n        /* \"#utility.yul\":2370:2372   */\n      0x20\n        /* \"#utility.yul\":2367:2368   */\n      dup2\n        /* \"#utility.yul\":2363:2373   */\n      add\n        /* \"#utility.yul\":2358:2373   */\n      swap1\n      pop\n        /* \"#utility.yul\":2334:2447   */\n      jump(tag_172)\n    tag_174:\n        /* \"#utility.yul\":2481:2482   */\n      0x00\n        /* \"#utility.yul\":2472:2478   */\n      dup5\n        /* \"#utility.yul\":2467:2470   */\n      dup5\n        /* \"#utility.yul\":2463:2479   */\n      add\n        /* \"#utility.yul\":2456:2483   */\n      mstore\n        /* \"#utility.yul\":2305:2489   */\n      pop\n        /* \"#utility.yul\":2243:2489   */\n      pop\n      pop\n      pop\n      jump\t// out\n        /* \"#utility.yul\":2495:2597   */\n    tag_107:\n        /* \"#utility.yul\":2536:2542   */\n      0x00\n        /* \"#utility.yul\":2587:2589   */\n      0x1f\n        /* \"#utility.yul\":2583:2590   */\n      not\n        /* \"#utility.yul\":2578:2580   */\n      0x1f\n        /* \"#utility.yul\":2571:2576   */\n      dup4\n        /* \"#utility.yul\":2567:2581   */\n      add\n        /* \"#utility.yul\":2563:2591   */\n      and\n        /* \"#utility.yul\":2553:2591   */\n      swap1\n      pop\n        /* \"#utility.yul\":2495:2597   */\n      swap2\n      swap1\n      pop\n      jump\t// out\n        /* \"#utility.yul\":2603:2980   */\n    tag_108:\n        /* \"#utility.yul\":2691:2694   */\n      0x00\n        /* \"#utility.yul\":2719:2758   */\n      tag_177\n        /* \"#utility.yul\":2752:2757   */\n      dup3\n        /* \"#utility.yul\":2719:2758   */\n      tag_104\n      jump\t// in\n    tag_177:\n        /* \"#utility.yul\":2774:2845   */\n      tag_178\n        /* \"#utility.yul\":2838:2844   */\n      dup2\n        /* \"#utility.yul\":2833:2836   */\n      dup6\n        /* \"#utility.yul\":2774:2845   */\n      tag_105\n      jump\t// in\n    tag_178:\n        /* \"#utility.yul\":2767:2845   */\n      swap4\n      pop\n        /* \"#utility.yul\":2854:2919   */\n      tag_179\n        /* \"#utility.yul\":2912:2918   */\n      dup2\n        /* \"#utility.yul\":2907:2910   */\n      dup6\n        /* \"#utility.yul\":2900:2904   */\n      0x20\n        /* \"#utility.yul\":2893:2898   */\n      dup7\n        /* \"#utility.yul\":2889:2905   */\n      add\n        /* \"#utility.yul\":2854:2919   */\n      tag_106\n      jump\t// in\n    tag_179:\n        /* \"#utility.yul\":2944:2973   */\n      tag_180\n        /* \"#utility.yul\":2966:2972   */\n      dup2\n        /* \"#utility.yul\":2944:2973   */\n      tag_107\n      jump\t// in\n    tag_180:\n        /* \"#utility.yul\":2939:2942   */\n      dup5\n        /* \"#utility.yul\":2935:2974   */\n      add\n        /* \"#utility.yul\":2928:2974   */\n      swap2\n      pop\n        /* \"#utility.yul\":2695:2980   */\n      pop\n        /* \"#utility.yul\":2603:2980   */\n      swap3\n      swap2\n      pop\n      pop\n      jump\t// out\n        /* \"#utility.yul\":2986:3090   */\n    tag_109:\n        /* \"#utility.yul\":3031:3038   */\n      0x00\n        /* \"#utility.yul\":3060:3084   */\n      tag_182\n        /* \"#utility.yul\":3078:3083   */\n      dup3\n        /* \"#utility.yul\":3060:3084   */\n      tag_101\n      jump\t// in\n    tag_182:\n        /* \"#utility.yul\":3049:3084   */\n      swap1\n      pop\n        /* \"#utility.yul\":2986:3090   */\n      swap2\n      swap1\n      pop\n      jump\t// out\n        /* \"#utility.yul\":3096:3238   */\n    tag_110:\n        /* \"#utility.yul\":3199:3231   */\n      tag_184\n        /* \"#utility.yul\":3225:3230   */\n      dup2\n        /* \"#utility.yul\":3199:3231   */\n      tag_109\n      jump\t// in\n    tag_184:\n        /* \"#utility.yul\":3194:3197   */\n      dup3\n        /* \"#utility.yul\":3187:3232   */\n      mstore\n        /* \"#utility.yul\":3096:3238   */\n      pop\n      pop\n      jump\t// out\n        /* \"#utility.yul\":3244:3334   */\n    tag_111:\n        /* \"#utility.yul\":3278:3285   */\n      0x00\n        /* \"#utility.yul\":3321:3326   */\n      dup2\n        /* \"#utility.yul\":3314:3327   */\n      iszero\n        /* \"#utility.yul\":3307:3328   */\n      iszero\n        /* \"#utility.yul\":3296:3328   */\n      swap1\n      pop\n        /* \"#utility.yul\":3244:3334   */\n      swap2\n      swap1\n      pop\n      jump\t// out\n        /* \"#utility.yul\":3340:3449   */\n    tag_112:\n        /* \"#utility.yul\":3421:3442   */\n      tag_187\n        /* \"#utility.yul\":3436:3441   */\n      dup2\n        /* \"#utility.yul\":3421:3442   */\n      tag_111\n      jump\t// in\n    tag_187:\n        /* \"#utility.yul\":3416:3419   */\n      dup3\n        /* \"#utility.yul\":3409:3443   */\n      mstore\n        /* \"#utility.yul\":3340:3449   */\n      pop\n      pop\n      jump\t// out\n        /* \"#utility.yul\":3455:4230   */\n    tag_36:\n        /* \"#utility.yul\":3690:3694   */\n      0x00\n        /* \"#utility.yul\":3728:3731   */\n      0xa0\n        /* \"#utility.yul\":3717:3726   */\n      dup3\n        /* \"#utility.yul\":3713:3732   */\n      add\n        /* \"#utility.yul\":3705:3732   */\n      swap1\n      pop\n        /* \"#utility.yul\":3778:3787   */\n      dup2\n        /* \"#utility.yul\":3772:3776   */\n      dup2\n        /* \"#utility.yul\":3768:3788   */\n      sub\n        /* \"#utility.yul\":3764:3765   */\n      0x00\n        /* \"#utility.yul\":3753:3762   */\n      dup4\n        /* \"#utility.yul\":3749:3766   */\n      add\n        /* \"#utility.yul\":3742:3789   */\n      mstore\n        /* \"#utility.yul\":3806:3884   */\n      tag_189\n        /* \"#utility.yul\":3879:3883   */\n      dup2\n        /* \"#utility.yul\":3870:3876   */\n      dup9\n        /* \"#utility.yul\":3806:3884   */\n      tag_108\n      jump\t// in\n    tag_189:\n        /* \"#utility.yul\":3798:3884   */\n      swap1\n      pop\n        /* \"#utility.yul\":3894:3966   */\n      tag_190\n        /* \"#utility.yul\":3962:3964   */\n      0x20\n        /* \"#utility.yul\":3951:3960   */\n      dup4\n        /* \"#utility.yul\":3947:3965   */\n      add\n        /* \"#utility.yul\":3938:3944   */\n      dup8\n        /* \"#utility.yul\":3894:3966   */\n      tag_100\n      jump\t// in\n    tag_190:\n        /* \"#utility.yul\":3976:4064   */\n      tag_191\n        /* \"#utility.yul\":4060:4062   */\n      0x40\n        /* \"#utility.yul\":4049:4058   */\n      dup4\n        /* \"#utility.yul\":4045:4063   */\n      add\n        /* \"#utility.yul\":4036:4042   */\n      dup7\n        /* \"#utility.yul\":3976:4064   */\n      tag_110\n      jump\t// in\n    tag_191:\n        /* \"#utility.yul\":4074:4140   */\n      tag_192\n        /* \"#utility.yul\":4136:4138   */\n      0x60\n        /* \"#utility.yul\":4125:4134   */\n      dup4\n        /* \"#utility.yul\":4121:4139   */\n      add\n        /* \"#utility.yul\":4112:4118   */\n      dup6\n        /* \"#utility.yul\":4074:4140   */\n      tag_112\n      jump\t// in\n    tag_192:\n        /* \"#utility.yul\":4150:4223   */\n      tag_193\n        /* \"#utility.yul\":4218:4221   */\n      0x80\n        /* \"#utility.yul\":4207:4216   */\n      dup4\n        /* \"#utility.yul\":4203:4222   */\n      add\n        /* \"#utility.yul\":4194:4200   */\n      dup5\n        /* \"#utility.yul\":4150:4223   */\n      tag_100\n      jump\t// in\n    tag_193:\n        /* \"#utility.yul\":3455:4230   */\n      swap7\n      swap6\n      pop\n      pop\n      pop\n      pop\n      pop\n      pop\n      jump\t// out\n        /* \"#utility.yul\":4236:4353   */\n    tag_113:\n        /* \"#utility.yul\":4345:4346   */\n      0x00\n        /* \"#utility.yul\":4342:4343   */\n      dup1\n        /* \"#utility.yul\":4335:4347   */\n      revert\n        /* \"#utility.yul\":4359:4476   */\n    tag_114:\n        /* \"#utility.yul\":4468:4469   */\n      0x00\n        /* \"#utility.yul\":4465:4466   */\n      dup1\n        /* \"#utility.yul\":4458:4470   */\n      revert\n        /* \"#utility.yul\":4482:4662   */\n    tag_115:\n        /* \"#utility.yul\":4530:4607   */\n      0x4e487b7100000000000000000000000000000000000000000000000000000000\n        /* \"#utility.yul\":4527:4528   */\n      0x00\n        /* \"#utility.yul\":4520:4608   */\n      mstore\n        /* \"#utility.yul\":4627:4631   */\n      0x41\n        /* \"#utility.yul\":4624:4625   */\n      0x04\n        /* \"#utility.yul\":4617:4632   */\n      mstore\n        /* \"#utility.yul\":4651:4655   */\n      0x24\n        /* \"#utility.yul\":4648:4649   */\n      0x00\n        /* \"#utility.yul\":4641:4656   */\n      revert\n        /* \"#utility.yul\":4668:4949   */\n    tag_116:\n        /* \"#utility.yul\":4751:4778   */\n      tag_198\n        /* \"#utility.yul\":4773:4777   */\n      dup3\n        /* \"#utility.yul\":4751:4778   */\n      tag_107\n      jump\t// in\n    tag_198:\n        /* \"#utility.yul\":4743:4749   */\n      dup2\n        /* \"#utility.yul\":4739:4779   */\n      add\n        /* \"#utility.yul\":4881:4887   */\n      dup2\n        /* \"#utility.yul\":4869:4879   */\n      dup2\n        /* \"#utility.yul\":4866:4888   */\n      lt\n        /* \"#utility.yul\":4845:4863   */\n      0xffffffffffffffff\n        /* \"#utility.yul\":4833:4843   */\n      dup3\n        /* \"#utility.yul\":4830:4864   */\n      gt\n        /* \"#utility.yul\":4827:4889   */\n      or\n        /* \"#utility.yul\":4824:4912   */\n      iszero\n      tag_199\n      jumpi\n        /* \"#utility.yul\":4892:4910   */\n      tag_200\n      tag_115\n      jump\t// in\n    tag_200:\n        /* \"#utility.yul\":4824:4912   */\n    tag_199:\n        /* \"#utility.yul\":4932:4942   */\n      dup1\n        /* \"#utility.yul\":4928:4930   */\n      0x40\n        /* \"#utility.yul\":4921:4943   */\n      mstore\n        /* \"#utility.yul\":4711:4949   */\n      pop\n        /* \"#utility.yul\":4668:4949   */\n      pop\n      pop\n      jump\t// out\n        /* \"#utility.yul\":4955:5084   */\n    tag_117:\n        /* \"#utility.yul\":4989:4995   */\n      0x00\n        /* \"#utility.yul\":5016:5036   */\n      tag_202\n      tag_94\n      jump\t// in\n    tag_202:\n        /* \"#utility.yul\":5006:5036   */\n      swap1\n      pop\n        /* \"#utility.yul\":5045:5078   */\n      tag_203\n        /* \"#utility.yul\":5073:5077   */\n      dup3\n        /* \"#utility.yul\":5065:5071   */\n      dup3\n        /* \"#utility.yul\":5045:5078   */\n      tag_116\n      jump\t// in\n    tag_203:\n        /* \"#utility.yul\":4955:5084   */\n      swap2\n      swap1\n      pop\n      jump\t// out\n        /* \"#utility.yul\":5090:5398   */\n    tag_118:\n        /* \"#utility.yul\":5152:5156   */\n      0x00\n        /* \"#utility.yul\":5242:5260   */\n      0xffffffffffffffff\n        /* \"#utility.yul\":5234:5240   */\n      dup3\n        /* \"#utility.yul\":5231:5261   */\n      gt\n        /* \"#utility.yul\":5228:5284   */\n      iszero\n      tag_205\n      jumpi\n        /* \"#utility.yul\":5264:5282   */\n      tag_206\n      tag_115\n      jump\t// in\n    tag_206:\n        /* \"#utility.yul\":5228:5284   */\n    tag_205:\n        /* \"#utility.yul\":5302:5331   */\n      tag_207\n        /* \"#utility.yul\":5324:5330   */\n      dup3\n        /* \"#utility.yul\":5302:5331   */\n      tag_107\n      jump\t// in\n    tag_207:\n        /* \"#utility.yul\":5294:5331   */\n      swap1\n      pop\n        /* \"#utility.yul\":5386:5390   */\n      0x20\n        /* \"#utility.yul\":5380:5384   */\n      dup2\n        /* \"#utility.yul\":5376:5391   */\n      add\n        /* \"#utility.yul\":5368:5391   */\n      swap1\n      pop\n        /* \"#utility.yul\":5090:5398   */\n      swap2\n      swap1\n      pop\n      jump\t// out\n        /* \"#utility.yul\":5404:5550   */\n    tag_119:\n        /* \"#utility.yul\":5501:5507   */\n      dup3\n        /* \"#utility.yul\":5496:5499   */\n      dup2\n        /* \"#utility.yul\":5491:5494   */\n      dup4\n        /* \"#utility.yul\":5478:5508   */\n      calldatacopy\n        /* \"#utility.yul\":5542:5543   */\n      0x00\n        /* \"#utility.yul\":5533:5539   */\n      dup4\n        /* \"#utility.yul\":5528:5531   */\n      dup4\n        /* \"#utility.yul\":5524:5540   */\n      add\n        /* \"#utility.yul\":5517:5544   */\n      mstore\n        /* \"#utility.yul\":5404:5550   */\n      pop\n      pop\n      pop\n      jump\t// out\n        /* \"#utility.yul\":5556:5981   */\n    tag_120:\n        /* \"#utility.yul\":5634:5639   */\n      0x00\n        /* \"#utility.yul\":5659:5725   */\n      tag_210\n        /* \"#utility.yul\":5675:5724   */\n      tag_211\n        /* \"#utility.yul\":5717:5723   */\n      dup5\n        /* \"#utility.yul\":5675:5724   */\n      tag_118\n      jump\t// in\n    tag_211:\n        /* \"#utility.yul\":5659:5725   */\n      tag_117\n      jump\t// in\n    tag_210:\n        /* \"#utility.yul\":5650:5725   */\n      swap1\n      pop\n        /* \"#utility.yul\":5748:5754   */\n      dup3\n        /* \"#utility.yul\":5741:5746   */\n      dup2\n        /* \"#utility.yul\":5734:5755   */\n      mstore\n        /* \"#utility.yul\":5786:5790   */\n      0x20\n        /* \"#utility.yul\":5779:5784   */\n      dup2\n        /* \"#utility.yul\":5775:5791   */\n      add\n        /* \"#utility.yul\":5824:5827   */\n      dup5\n        /* \"#utility.yul\":5815:5821   */\n      dup5\n        /* \"#utility.yul\":5810:5813   */\n      dup5\n        /* \"#utility.yul\":5806:5822   */\n      add\n        /* \"#utility.yul\":5803:5828   */\n      gt\n        /* \"#utility.yul\":5800:5912   */\n      iszero\n      tag_212\n      jumpi\n        /* \"#utility.yul\":5831:5910   */\n      tag_213\n      tag_114\n      jump\t// in\n    tag_213:\n        /* \"#utility.yul\":5800:5912   */\n    tag_212:\n        /* \"#utility.yul\":5921:5975   */\n      tag_214\n        /* \"#utility.yul\":5968:5974   */\n      dup5\n        /* \"#utility.yul\":5963:5966   */\n      dup3\n        /* \"#utility.yul\":5958:5961   */\n      dup6\n        /* \"#utility.yul\":5921:5975   */\n      tag_119\n      jump\t// in\n    tag_214:\n        /* \"#utility.yul\":5640:5981   */\n      pop\n        /* \"#utility.yul\":5556:5981   */\n      swap4\n      swap3\n      pop\n      pop\n      pop\n      jump\t// out\n        /* \"#utility.yul\":6001:6341   */\n    tag_121:\n        /* \"#utility.yul\":6057:6062   */\n      0x00\n        /* \"#utility.yul\":6106:6109   */\n      dup3\n        /* \"#utility.yul\":6099:6103   */\n      0x1f\n        /* \"#utility.yul\":6091:6097   */\n      dup4\n        /* \"#utility.yul\":6087:6104   */\n      add\n        /* \"#utility.yul\":6083:6110   */\n      slt\n        /* \"#utility.yul\":6073:6195   */\n      tag_216\n      jumpi\n        /* \"#utility.yul\":6114:6193   */\n      tag_217\n      tag_113\n      jump\t// in\n    tag_217:\n        /* \"#utility.yul\":6073:6195   */\n    tag_216:\n        /* \"#utility.yul\":6231:6237   */\n      dup2\n        /* \"#utility.yul\":6218:6238   */\n      calldataload\n        /* \"#utility.yul\":6256:6335   */\n      tag_218\n        /* \"#utility.yul\":6331:6334   */\n      dup5\n        /* \"#utility.yul\":6323:6329   */\n      dup3\n        /* \"#utility.yul\":6316:6320   */\n      0x20\n        /* \"#utility.yul\":6308:6314   */\n      dup7\n        /* \"#utility.yul\":6304:6321   */\n      add\n        /* \"#utility.yul\":6256:6335   */\n      tag_120\n      jump\t// in\n    tag_218:\n        /* \"#utility.yul\":6247:6335   */\n      swap2\n      pop\n        /* \"#utility.yul\":6063:6341   */\n      pop\n        /* \"#utility.yul\":6001:6341   */\n      swap3\n      swap2\n      pop\n      pop\n      jump\t// out\n        /* \"#utility.yul\":6347:6485   */\n    tag_122:\n        /* \"#utility.yul\":6428:6460   */\n      tag_220\n        /* \"#utility.yul\":6454:6459   */\n      dup2\n        /* \"#utility.yul\":6428:6460   */\n      tag_109\n      jump\t// in\n    tag_220:\n        /* \"#utility.yul\":6421:6426   */\n      dup2\n        /* \"#utility.yul\":6418:6461   */\n      eq\n        /* \"#utility.yul\":6408:6479   */\n      tag_221\n      jumpi\n        /* \"#utility.yul\":6475:6476   */\n      0x00\n        /* \"#utility.yul\":6472:6473   */\n      dup1\n        /* \"#utility.yul\":6465:6477   */\n      revert\n        /* \"#utility.yul\":6408:6479   */\n    tag_221:\n        /* \"#utility.yul\":6347:6485   */\n      pop\n      jump\t// out\n        /* \"#utility.yul\":6491:6646   */\n    tag_123:\n        /* \"#utility.yul\":6545:6550   */\n      0x00\n        /* \"#utility.yul\":6583:6589   */\n      dup2\n        /* \"#utility.yul\":6570:6590   */\n      calldataload\n        /* \"#utility.yul\":6561:6590   */\n      swap1\n      pop\n        /* \"#utility.yul\":6599:6640   */\n      tag_223\n        /* \"#utility.yul\":6634:6639   */\n      dup2\n        /* \"#utility.yul\":6599:6640   */\n      tag_122\n      jump\t// in\n    tag_223:\n        /* \"#utility.yul\":6491:6646   */\n      swap3\n      swap2\n      pop\n      pop\n      jump\t// out\n        /* \"#utility.yul\":6652:7467   */\n    tag_40:\n        /* \"#utility.yul\":6747:6753   */\n      0x00\n        /* \"#utility.yul\":6755:6761   */\n      dup1\n        /* \"#utility.yul\":6763:6769   */\n      0x00\n        /* \"#utility.yul\":6812:6814   */\n      0x60\n        /* \"#utility.yul\":6800:6809   */\n      dup5\n        /* \"#utility.yul\":6791:6798   */\n      dup7\n        /* \"#utility.yul\":6787:6810   */\n      sub\n        /* \"#utility.yul\":6783:6815   */\n      slt\n        /* \"#utility.yul\":6780:6899   */\n      iszero\n      tag_225\n      jumpi\n        /* \"#utility.yul\":6818:6897   */\n      tag_226\n      tag_95\n      jump\t// in\n    tag_226:\n        /* \"#utility.yul\":6780:6899   */\n    tag_225:\n        /* \"#utility.yul\":6966:6967   */\n      0x00\n        /* \"#utility.yul\":6955:6964   */\n      dup5\n        /* \"#utility.yul\":6951:6968   */\n      add\n        /* \"#utility.yul\":6938:6969   */\n      calldataload\n        /* \"#utility.yul\":6996:7014   */\n      0xffffffffffffffff\n        /* \"#utility.yul\":6988:6994   */\n      dup2\n        /* \"#utility.yul\":6985:7015   */\n      gt\n        /* \"#utility.yul\":6982:7099   */\n      iszero\n      tag_227\n      jumpi\n        /* \"#utility.yul\":7018:7097   */\n      tag_228\n      tag_96\n      jump\t// in\n    tag_228:\n        /* \"#utility.yul\":6982:7099   */\n    tag_227:\n        /* \"#utility.yul\":7123:7186   */\n      tag_229\n        /* \"#utility.yul\":7178:7185   */\n      dup7\n        /* \"#utility.yul\":7169:7175   */\n      dup3\n        /* \"#utility.yul\":7158:7167   */\n      dup8\n        /* \"#utility.yul\":7154:7176   */\n      add\n        /* \"#utility.yul\":7123:7186   */\n      tag_121\n      jump\t// in\n    tag_229:\n        /* \"#utility.yul\":7113:7186   */\n      swap4\n      pop\n        /* \"#utility.yul\":6909:7196   */\n      pop\n        /* \"#utility.yul\":7235:7237   */\n      0x20\n        /* \"#utility.yul\":7261:7314   */\n      tag_230\n        /* \"#utility.yul\":7306:7313   */\n      dup7\n        /* \"#utility.yul\":7297:7303   */\n      dup3\n        /* \"#utility.yul\":7286:7295   */\n      dup8\n        /* \"#utility.yul\":7282:7304   */\n      add\n        /* \"#utility.yul\":7261:7314   */\n      tag_99\n      jump\t// in\n    tag_230:\n        /* \"#utility.yul\":7251:7314   */\n      swap3\n      pop\n        /* \"#utility.yul\":7206:7324   */\n      pop\n        /* \"#utility.yul\":7363:7365   */\n      0x40\n        /* \"#utility.yul\":7389:7450   */\n      tag_231\n        /* \"#utility.yul\":7442:7449   */\n      dup7\n        /* \"#utility.yul\":7433:7439   */\n      dup3\n        /* \"#utility.yul\":7422:7431   */\n      dup8\n        /* \"#utility.yul\":7418:7440   */\n      add\n        /* \"#utility.yul\":7389:7450   */\n      tag_123\n      jump\t// in\n    tag_231:\n        /* \"#utility.yul\":7379:7450   */\n      swap2\n      pop\n        /* \"#utility.yul\":7334:7460   */\n      pop\n        /* \"#utility.yul\":6652:7467   */\n      swap3\n      pop\n      swap3\n      pop\n      swap3\n      jump\t// out\n        /* \"#utility.yul\":7473:8137   */\n    tag_46:\n        /* \"#utility.yul\":7678:7682   */\n      0x00\n        /* \"#utility.yul\":7716:7719   */\n      0xa0\n        /* \"#utility.yul\":7705:7714   */\n      dup3\n        /* \"#utility.yul\":7701:7720   */\n      add\n        /* \"#utility.yul\":7693:7720   */\n      swap1\n      pop\n        /* \"#utility.yul\":7730:7801   */\n      tag_233\n        /* \"#utility.yul\":7798:7799   */\n      0x00\n        /* \"#utility.yul\":7787:7796   */\n      dup4\n        /* \"#utility.yul\":7783:7800   */\n      add\n        /* \"#utility.yul\":7774:7780   */\n      dup9\n        /* \"#utility.yul\":7730:7801   */\n      tag_100\n      jump\t// in\n    tag_233:\n        /* \"#utility.yul\":7811:7883   */\n      tag_234\n        /* \"#utility.yul\":7879:7881   */\n      0x20\n        /* \"#utility.yul\":7868:7877   */\n      dup4\n        /* \"#utility.yul\":7864:7882   */\n      add\n        /* \"#utility.yul\":7855:7861   */\n      dup8\n        /* \"#utility.yul\":7811:7883   */\n      tag_100\n      jump\t// in\n    tag_234:\n        /* \"#utility.yul\":7893:7965   */\n      tag_235\n        /* \"#utility.yul\":7961:7963   */\n      0x40\n        /* \"#utility.yul\":7950:7959   */\n      dup4\n        /* \"#utility.yul\":7946:7964   */\n      add\n        /* \"#utility.yul\":7937:7943   */\n      dup7\n        /* \"#utility.yul\":7893:7965   */\n      tag_100\n      jump\t// in\n    tag_235:\n        /* \"#utility.yul\":7975:8047   */\n      tag_236\n        /* \"#utility.yul\":8043:8045   */\n      0x60\n        /* \"#utility.yul\":8032:8041   */\n      dup4\n        /* \"#utility.yul\":8028:8046   */\n      add\n        /* \"#utility.yul\":8019:8025   */\n      dup6\n        /* \"#utility.yul\":7975:8047   */\n      tag_100\n      jump\t// in\n    tag_236:\n        /* \"#utility.yul\":8057:8130   */\n      tag_237\n        /* \"#utility.yul\":8125:8128   */\n      0x80\n        /* \"#utility.yul\":8114:8123   */\n      dup4\n        /* \"#utility.yul\":8110:8129   */\n      add\n        /* \"#utility.yul\":8101:8107   */\n      dup5\n        /* \"#utility.yul\":8057:8130   */\n      tag_103\n      jump\t// in\n    tag_237:\n        /* \"#utility.yul\":7473:8137   */\n      swap7\n      swap6\n      pop\n      pop\n      pop\n      pop\n      pop\n      pop\n      jump\t// out\n        /* \"#utility.yul\":8143:8265   */\n    tag_124:\n        /* \"#utility.yul\":8216:8240   */\n      tag_239\n        /* \"#utility.yul\":8234:8239   */\n      dup2\n        /* \"#utility.yul\":8216:8240   */\n      tag_102\n      jump\t// in\n    tag_239:\n        /* \"#utility.yul\":8209:8214   */\n      dup2\n        /* \"#utility.yul\":8206:8241   */\n      eq\n        /* \"#utility.yul\":8196:8259   */\n      tag_240\n      jumpi\n        /* \"#utility.yul\":8255:8256   */\n      0x00\n        /* \"#utility.yul\":8252:8253   */\n      dup1\n        /* \"#utility.yul\":8245:8257   */\n      revert\n        /* \"#utility.yul\":8196:8259   */\n    tag_240:\n        /* \"#utility.yul\":8143:8265   */\n      pop\n      jump\t// out\n        /* \"#utility.yul\":8271:8410   */\n    tag_125:\n        /* \"#utility.yul\":8317:8322   */\n      0x00\n        /* \"#utility.yul\":8355:8361   */\n      dup2\n        /* \"#utility.yul\":8342:8362   */\n      calldataload\n        /* \"#utility.yul\":8333:8362   */\n      swap1\n      pop\n        /* \"#utility.yul\":8371:8404   */\n      tag_242\n        /* \"#utility.yul\":8398:8403   */\n      dup2\n        /* \"#utility.yul\":8371:8404   */\n      tag_124\n      jump\t// in\n    tag_242:\n        /* \"#utility.yul\":8271:8410   */\n      swap3\n      swap2\n      pop\n      pop\n      jump\t// out\n        /* \"#utility.yul\":8416:8745   */\n    tag_56:\n        /* \"#utility.yul\":8475:8481   */\n      0x00\n        /* \"#utility.yul\":8524:8526   */\n      0x20\n        /* \"#utility.yul\":8512:8521   */\n      dup3\n        /* \"#utility.yul\":8503:8510   */\n      dup5\n        /* \"#utility.yul\":8499:8522   */\n      sub\n        /* \"#utility.yul\":8495:8527   */\n      slt\n        /* \"#utility.yul\":8492:8611   */\n      iszero\n      tag_244\n      jumpi\n        /* \"#utility.yul\":8530:8609   */\n      tag_245\n      tag_95\n      jump\t// in\n    tag_245:\n        /* \"#utility.yul\":8492:8611   */\n    tag_244:\n        /* \"#utility.yul\":8650:8651   */\n      0x00\n        /* \"#utility.yul\":8675:8728   */\n      tag_246\n        /* \"#utility.yul\":8720:8727   */\n      dup5\n        /* \"#utility.yul\":8711:8717   */\n      dup3\n        /* \"#utility.yul\":8700:8709   */\n      dup6\n        /* \"#utility.yul\":8696:8718   */\n      add\n        /* \"#utility.yul\":8675:8728   */\n      tag_125\n      jump\t// in\n    tag_246:\n        /* \"#utility.yul\":8665:8728   */\n      swap2\n      pop\n        /* \"#utility.yul\":8621:8738   */\n      pop\n        /* \"#utility.yul\":8416:8745   */\n      swap3\n      swap2\n      pop\n      pop\n      jump\t// out\n        /* \"#utility.yul\":8751:8961   */\n    tag_59:\n        /* \"#utility.yul\":8838:8842   */\n      0x00\n        /* \"#utility.yul\":8876:8878   */\n      0x20\n        /* \"#utility.yul\":8865:8874   */\n      dup3\n        /* \"#utility.yul\":8861:8879   */\n      add\n        /* \"#utility.yul\":8853:8879   */\n      swap1\n      pop\n        /* \"#utility.yul\":8889:8954   */\n      tag_248\n        /* \"#utility.yul\":8951:8952   */\n      0x00\n        /* \"#utility.yul\":8940:8949   */\n      dup4\n        /* \"#utility.yul\":8936:8953   */\n      add\n        /* \"#utility.yul\":8927:8933   */\n      dup5\n        /* \"#utility.yul\":8889:8954   */\n      tag_112\n      jump\t// in\n    tag_248:\n        /* \"#utility.yul\":8751:8961   */\n      swap3\n      swap2\n      pop\n      pop\n      jump\t// out\n        /* \"#utility.yul\":8967:9147   */\n    tag_126:\n        /* \"#utility.yul\":9015:9092   */\n      0x4e487b7100000000000000000000000000000000000000000000000000000000\n        /* \"#utility.yul\":9012:9013   */\n      0x00\n        /* \"#utility.yul\":9005:9093   */\n      mstore\n        /* \"#utility.yul\":9112:9116   */\n      0x12\n        /* \"#utility.yul\":9109:9110   */\n      0x04\n        /* \"#utility.yul\":9102:9117   */\n      mstore\n        /* \"#utility.yul\":9136:9140   */\n      0x24\n        /* \"#utility.yul\":9133:9134   */\n      0x00\n        /* \"#utility.yul\":9126:9141   */\n      revert\n        /* \"#utility.yul\":9153:9333   */\n    tag_127:\n        /* \"#utility.yul\":9201:9278   */\n      0x4e487b7100000000000000000000000000000000000000000000000000000000\n        /* \"#utility.yul\":9198:9199   */\n      0x00\n        /* \"#utility.yul\":9191:9279   */\n      mstore\n        /* \"#utility.yul\":9298:9302   */\n      0x11\n        /* \"#utility.yul\":9295:9296   */\n      0x04\n        /* \"#utility.yul\":9288:9303   */\n      mstore\n        /* \"#utility.yul\":9322:9326   */\n      0x24\n        /* \"#utility.yul\":9319:9320   */\n      0x00\n        /* \"#utility.yul\":9312:9327   */\n      revert\n        /* \"#utility.yul\":9339:9524   */\n    tag_65:\n        /* \"#utility.yul\":9379:9380   */\n      0x00\n        /* \"#utility.yul\":9396:9416   */\n      tag_252\n        /* \"#utility.yul\":9414:9415   */\n      dup3\n        /* \"#utility.yul\":9396:9416   */\n      tag_97\n      jump\t// in\n    tag_252:\n        /* \"#utility.yul\":9391:9416   */\n      swap2\n      pop\n        /* \"#utility.yul\":9430:9450   */\n      tag_253\n        /* \"#utility.yul\":9448:9449   */\n      dup4\n        /* \"#utility.yul\":9430:9450   */\n      tag_97\n      jump\t// in\n    tag_253:\n        /* \"#utility.yul\":9425:9450   */\n      swap3\n      pop\n        /* \"#utility.yul\":9469:9470   */\n      dup3\n        /* \"#utility.yul\":9459:9494   */\n      tag_254\n      jumpi\n        /* \"#utility.yul\":9474:9492   */\n      tag_255\n      tag_126\n      jump\t// in\n    tag_255:\n        /* \"#utility.yul\":9459:9494   */\n    tag_254:\n        /* \"#utility.yul\":9516:9517   */\n      dup3\n        /* \"#utility.yul\":9513:9514   */\n      dup3\n        /* \"#utility.yul\":9509:9518   */\n      div\n        /* \"#utility.yul\":9504:9518   */\n      swap1\n      pop\n        /* \"#utility.yul\":9339:9524   */\n      swap3\n      swap2\n      pop\n      pop\n      jump\t// out\n        /* \"#utility.yul\":9530:9710   */\n    tag_128:\n        /* \"#utility.yul\":9578:9655   */\n      0x4e487b7100000000000000000000000000000000000000000000000000000000\n        /* \"#utility.yul\":9575:9576   */\n      0x00\n        /* \"#utility.yul\":9568:9656   */\n      mstore\n        /* \"#utility.yul\":9675:9679   */\n      0x22\n        /* \"#utility.yul\":9672:9673   */\n      0x04\n        /* \"#utility.yul\":9665:9680   */\n      mstore\n        /* \"#utility.yul\":9699:9703   */\n      0x24\n        /* \"#utility.yul\":9696:9697   */\n      0x00\n        /* \"#utility.yul\":9689:9704   */\n      revert\n        /* \"#utility.yul\":9716:10036   */\n    tag_71:\n        /* \"#utility.yul\":9760:9766   */\n      0x00\n        /* \"#utility.yul\":9797:9798   */\n      0x02\n        /* \"#utility.yul\":9791:9795   */\n      dup3\n        /* \"#utility.yul\":9787:9799   */\n      div\n        /* \"#utility.yul\":9777:9799   */\n      swap1\n      pop\n        /* \"#utility.yul\":9844:9845   */\n      0x01\n        /* \"#utility.yul\":9838:9842   */\n      dup3\n        /* \"#utility.yul\":9834:9846   */\n      and\n        /* \"#utility.yul\":9865:9883   */\n      dup1\n        /* \"#utility.yul\":9855:9936   */\n      tag_258\n      jumpi\n        /* \"#utility.yul\":9921:9925   */\n      0x7f\n        /* \"#utility.yul\":9913:9919   */\n      dup3\n        /* \"#utility.yul\":9909:9926   */\n      and\n        /* \"#utility.yul\":9899:9926   */\n      swap2\n      pop\n        /* \"#utility.yul\":9855:9936   */\n    tag_258:\n        /* \"#utility.yul\":9983:9985   */\n      0x20\n        /* \"#utility.yul\":9975:9981   */\n      dup3\n        /* \"#utility.yul\":9972:9986   */\n      lt\n        /* \"#utility.yul\":9952:9970   */\n      dup2\n        /* \"#utility.yul\":9949:9987   */\n      sub\n        /* \"#utility.yul\":9946:10030   */\n      tag_259\n      jumpi\n        /* \"#utility.yul\":10002:10020   */\n      tag_260\n      tag_128\n      jump\t// in\n    tag_260:\n        /* \"#utility.yul\":9946:10030   */\n    tag_259:\n        /* \"#utility.yul\":9767:10036   */\n      pop\n        /* \"#utility.yul\":9716:10036   */\n      swap2\n      swap1\n      pop\n      jump\t// out\n        /* \"#utility.yul\":10042:10275   */\n    tag_80:\n        /* \"#utility.yul\":10081:10084   */\n      0x00\n        /* \"#utility.yul\":10104:10128   */\n      tag_262\n        /* \"#utility.yul\":10122:10127   */\n      dup3\n        /* \"#utility.yul\":10104:10128   */\n      tag_97\n      jump\t// in\n    tag_262:\n        /* \"#utility.yul\":10095:10128   */\n      swap2\n      pop\n        /* \"#utility.yul\":10150:10216   */\n      0xffffffffffffffffffffffffffffffffffffffffffffffffffffffffffffffff\n        /* \"#utility.yul\":10143:10148   */\n      dup3\n        /* \"#utility.yul\":10140:10217   */\n      sub\n        /* \"#utility.yul\":10137:10240   */\n      tag_263\n      jumpi\n        /* \"#utility.yul\":10220:10238   */\n      tag_264\n      tag_127\n      jump\t// in\n    tag_264:\n        /* \"#utility.yul\":10137:10240   */\n    tag_263:\n        /* \"#utility.yul\":10267:10268   */\n      0x01\n        /* \"#utility.yul\":10260:10265   */\n      dup3\n        /* \"#utility.yul\":10256:10269   */\n      add\n        /* \"#utility.yul\":10249:10269   */\n      swap1\n      pop\n        /* \"#utility.yul\":10042:10275   */\n      swap2\n      swap1\n      pop\n      jump\t// out\n        /* \"#utility.yul\":10281:10422   */\n    tag_129:\n        /* \"#utility.yul\":10330:10334   */\n      0x00\n        /* \"#utility.yul\":10353:10356   */\n      dup2\n        /* \"#utility.yul\":10345:10356   */\n      swap1\n      pop\n        /* \"#utility.yul\":10376:10379   */\n      dup2\n        /* \"#utility.yul\":10373:10374   */\n      0x00\n        /* \"#utility.yul\":10366:10380   */\n      mstore\n        /* \"#utility.yul\":10410:10414   */\n      0x20\n        /* \"#utility.yul\":10407:10408   */\n      0x00\n        /* \"#utility.yul\":10397:10415   */\n      keccak256\n        /* \"#utility.yul\":10389:10415   */\n      swap1\n      pop\n        /* \"#utility.yul\":10281:10422   */\n      swap2\n      swap1\n      pop\n      jump\t// out\n        /* \"#utility.yul\":10428:10521   */\n    tag_130:\n        /* \"#utility.yul\":10465:10471   */\n      0x00\n        /* \"#utility.yul\":10512:10514   */\n      0x20\n        /* \"#utility.yul\":10507:10509   */\n      0x1f\n        /* \"#utility.yul\":10500:10505   */\n      dup4\n        /* \"#utility.yul\":10496:10510   */\n      add\n        /* \"#utility.yul\":10492:10515   */\n      div\n        /* \"#utility.yul\":10482:10515   */\n      swap1\n      pop\n        /* \"#utility.yul\":10428:10521   */\n      swap2\n      swap1\n      pop\n      jump\t// out\n        /* \"#utility.yul\":10527:10634   */\n    tag_131:\n        /* \"#utility.yul\":10571:10579   */\n      0x00\n        /* \"#utility.yul\":10621:10626   */\n      dup3\n        /* \"#utility.yul\":10615:10619   */\n      dup3\n        /* \"#utility.yul\":10611:10627   */\n      shl\n        /* \"#utility.yul\":10590:10627   */\n      swap1\n      pop\n        /* \"#utility.yul\":10527:10634   */\n      swap3\n      swap2\n      pop\n      pop\n      jump\t// out\n        /* \"#utility.yul\":10640:11033   */\n    tag_132:\n        /* \"#utility.yul\":10709:10715   */\n      0x00\n        /* \"#utility.yul\":10759:10760   */\n      0x08\n        /* \"#utility.yul\":10747:10757   */\n      dup4\n        /* \"#utility.yul\":10743:10761   */\n      mul\n        /* \"#utility.yul\":10782:10879   */\n      tag_269\n        /* \"#utility.yul\":10812:10878   */\n      0xffffffffffffffffffffffffffffffffffffffffffffffffffffffffffffffff\n        /* \"#utility.yul\":10801:10810   */\n      dup3\n        /* \"#utility.yul\":10782:10879   */\n      tag_131\n      jump\t// in\n    tag_269:\n        /* \"#utility.yul\":10900:10939   */\n      tag_270\n        /* \"#utility.yul\":10930:10938   */\n      dup7\n        /* \"#utility.yul\":10919:10928   */\n      dup4\n        /* \"#utility.yul\":10900:10939   */\n      tag_131\n      jump\t// in\n    tag_270:\n        /* \"#utility.yul\":10888:10939   */\n      swap6\n      pop\n        /* \"#utility.yul\":10972:10976   */\n      dup1\n        /* \"#utility.yul\":10968:10977   */\n      not\n        /* \"#utility.yul\":10961:10966   */\n      dup5\n        /* \"#utility.yul\":10957:10978   */\n      and\n        /* \"#utility.yul\":10948:10978   */\n      swap4\n      pop\n        /* \"#utility.yul\":11021:11025   */\n      dup1\n        /* \"#utility.yul\":11011:11019   */\n      dup7\n        /* \"#utility.yul\":11007:11026   */\n      and\n        /* \"#utility.yul\":11000:11005   */\n      dup5\n        /* \"#utility.yul\":10997:11027   */\n      or\n        /* \"#utility.yul\":10987:11027   */\n      swap3\n      pop\n        /* \"#utility.yul\":10716:11033   */\n      pop\n      pop\n        /* \"#utility.yul\":10640:11033   */\n      swap4\n      swap3\n      pop\n      pop\n      pop\n      jump\t// out\n        /* \"#utility.yul\":11039:11099   */\n    tag_133:\n        /* \"#utility.yul\":11067:11070   */\n      0x00\n        /* \"#utility.yul\":11088:11093   */\n      dup2\n        /* \"#utility.yul\":11081:11093   */\n      swap1\n      pop\n        /* \"#utility.yul\":11039:11099   */\n      swap2\n      swap1\n      pop\n      jump\t// out\n        /* \"#utility.yul\":11105:11247   */\n    tag_134:\n        /* \"#utility.yul\":11155:11164   */\n      0x00\n        /* \"#utility.yul\":11188:11241   */\n      tag_273\n        /* \"#utility.yul\":11206:11240   */\n      tag_274\n        /* \"#utility.yul\":11215:11239   */\n      tag_275\n        /* \"#utility.yul\":11233:11238   */\n      dup5\n        /* \"#utility.yul\":11215:11239   */\n      tag_97\n      jump\t// in\n    tag_275:\n        /* \"#utility.yul\":11206:11240   */\n      tag_133\n      jump\t// in\n    tag_274:\n        /* \"#utility.yul\":11188:11241   */\n      tag_97\n      jump\t// in\n    tag_273:\n        /* \"#utility.yul\":11175:11241   */\n      swap1\n      pop\n        /* \"#utility.yul\":11105:11247   */\n      swap2\n      swap1\n      pop\n      jump\t// out\n        /* \"#utility.yul\":11253:11328   */\n    tag_135:\n        /* \"#utility.yul\":11296:11299   */\n      0x00\n        /* \"#utility.yul\":11317:11322   */\n      dup2\n        /* \"#utility.yul\":11310:11322   */\n      swap1\n      pop\n        /* \"#utility.yul\":11253:11328   */\n      swap2\n      swap1\n      pop\n      jump\t// out\n        /* \"#utility.yul\":11334:11603   */\n    tag_136:\n        /* \"#utility.yul\":11444:11483   */\n      tag_278\n        /* \"#utility.yul\":11475:11482   */\n      dup4\n        /* \"#utility.yul\":11444:11483   */\n      tag_134\n      jump\t// in\n    tag_278:\n        /* \"#utility.yul\":11505:11596   */\n      tag_279\n        /* \"#utility.yul\":11554:11595   */\n      tag_280\n        /* \"#utility.yul\":11578:11594   */\n      dup3\n        /* \"#utility.yul\":11554:11595   */\n      tag_135\n      jump\t// in\n    tag_280:\n        /* \"#utility.yul\":11546:11552   */\n      dup5\n        /* \"#utility.yul\":11539:11543   */\n      dup5\n        /* \"#utility.yul\":11533:11544   */\n      sload\n        /* \"#utility.yul\":11505:11596   */\n      tag_132\n      jump\t// in\n    tag_279:\n        /* \"#utility.yul\":11499:11503   */\n      dup3\n        /* \"#utility.yul\":11492:11597   */\n      sstore\n        /* \"#utility.yul\":11410:11603   */\n      pop\n        /* \"#utility.yul\":11334:11603   */\n      pop\n      pop\n      pop\n      jump\t// out\n        /* \"#utility.yul\":11609:11682   */\n    tag_137:\n        /* \"#utility.yul\":11654:11657   */\n      0x00\n        /* \"#utility.yul\":11609:11682   */\n      swap1\n      jump\t// out\n        /* \"#utility.yul\":11688:11877   */\n    tag_138:\n        /* \"#utility.yul\":11765:11797   */\n      tag_283\n      tag_137\n      jump\t// in\n    tag_283:\n        /* \"#utility.yul\":11806:11871   */\n      tag_284\n        /* \"#utility.yul\":11864:11870   */\n      dup2\n        /* \"#utility.yul\":11856:11862   */\n      dup5\n        /* \"#utility.yul\":11850:11854   */\n      dup5\n        /* \"#utility.yul\":11806:11871   */\n      tag_136\n      jump\t// in\n    tag_284:\n        /* \"#utility.yul\":11741:11877   */\n      pop\n        /* \"#utility.yul\":11688:11877   */\n      pop\n      pop\n      jump\t// out\n        /* \"#utility.yul\":11883:12069   */\n    tag_139:\n        /* \"#utility.yul\":11943:12063   */\n    tag_286:\n        /* \"#utility.yul\":11960:11963   */\n      dup2\n        /* \"#utility.yul\":11953:11958   */\n      dup2\n        /* \"#utility.yul\":11950:11964   */\n      lt\n        /* \"#utility.yul\":11943:12063   */\n      iszero\n      tag_288\n      jumpi\n        /* \"#utility.yul\":12014:12053   */\n      tag_289\n        /* \"#utility.yul\":12051:12052   */\n      0x00\n        /* \"#utility.yul\":12044:12049   */\n      dup3\n        /* \"#utility.yul\":12014:12053   */\n      tag_138\n      jump\t// in\n    tag_289:\n        /* \"#utility.yul\":11987:11988   */\n      0x01\n        /* \"#utility.yul\":11980:11985   */\n      dup2\n        /* \"#utility.yul\":11976:11989   */\n      add\n        /* \"#utility.yul\":11967:11989   */\n      swap1\n      pop\n        /* \"#utility.yul\":11943:12063   */\n      jump(tag_286)\n    tag_288:\n        /* \"#utility.yul\":11883:12069   */\n      pop\n      pop\n      jump\t// out\n        /* \"#utility.yul\":12075:12618   */\n    tag_140:\n        /* \"#utility.yul\":12176:12178   */\n      0x1f\n        /* \"#utility.yul\":12171:12174   */\n      dup3\n        /* \"#utility.yul\":12168:12179   */\n      gt\n        /* \"#utility.yul\":12165:12611   */\n      iszero\n      tag_291\n      jumpi\n        /* \"#utility.yul\":12210:12248   */\n      tag_292\n        /* \"#utility.yul\":12242:12247   */\n      dup2\n        /* \"#utility.yul\":12210:12248   */\n      tag_129\n      jump\t// in\n    tag_292:\n        /* \"#utility.yul\":12294:12323   */\n      tag_293\n        /* \"#utility.yul\":12312:12322   */\n      dup5\n        /* \"#utility.yul\":12294:12323   */\n      tag_130\n      jump\t// in\n    tag_293:\n        /* \"#utility.yul\":12284:12292   */\n      dup2\n        /* \"#utility.yul\":12280:12324   */\n      add\n        /* \"#utility.yul\":12477:12479   */\n      0x20\n        /* \"#utility.yul\":12465:12475   */\n      dup6\n        /* \"#utility.yul\":12462:12480   */\n      lt\n        /* \"#utility.yul\":12459:12508   */\n      iszero\n      tag_294\n      jumpi\n        /* \"#utility.yul\":12498:12506   */\n      dup2\n        /* \"#utility.yul\":12483:12506   */\n      swap1\n      pop\n        /* \"#utility.yul\":12459:12508   */\n    tag_294:\n        /* \"#utility.yul\":12521:12601   */\n      tag_295\n        /* \"#utility.yul\":12577:12599   */\n      tag_296\n        /* \"#utility.yul\":12595:12598   */\n      dup6\n        /* \"#utility.yul\":12577:12599   */\n      tag_130\n      jump\t// in\n    tag_296:\n        /* \"#utility.yul\":12567:12575   */\n      dup4\n        /* \"#utility.yul\":12563:12600   */\n      add\n        /* \"#utility.yul\":12550:12561   */\n      dup3\n        /* \"#utility.yul\":12521:12601   */\n      tag_139\n      jump\t// in\n    tag_295:\n        /* \"#utility.yul\":12180:12611   */\n      pop\n      pop\n        /* \"#utility.yul\":12165:12611   */\n    tag_291:\n        /* \"#utility.yul\":12075:12618   */\n      pop\n      pop\n      pop\n      jump\t// out\n        /* \"#utility.yul\":12624:12741   */\n    tag_141:\n        /* \"#utility.yul\":12678:12686   */\n      0x00\n        /* \"#utility.yul\":12728:12733   */\n      dup3\n        /* \"#utility.yul\":12722:12726   */\n      dup3\n        /* \"#utility.yul\":12718:12734   */\n      shr\n        /* \"#utility.yul\":12697:12734   */\n      swap1\n      pop\n        /* \"#utility.yul\":12624:12741   */\n      swap3\n      swap2\n      pop\n      pop\n      jump\t// out\n        /* \"#utility.yul\":12747:12916   */\n    tag_142:\n        /* \"#utility.yul\":12791:12797   */\n      0x00\n        /* \"#utility.yul\":12824:12875   */\n      tag_299\n        /* \"#utility.yul\":12872:12873   */\n      0x00\n        /* \"#utility.yul\":12868:12874   */\n      not\n        /* \"#utility.yul\":12860:12865   */\n      dup5\n        /* \"#utility.yul\":12857:12858   */\n      0x08\n        /* \"#utility.yul\":12853:12866   */\n      mul\n        /* \"#utility.yul\":12824:12875   */\n      tag_141\n      jump\t// in\n    tag_299:\n        /* \"#utility.yul\":12820:12876   */\n      not\n        /* \"#utility.yul\":12905:12909   */\n      dup1\n        /* \"#utility.yul\":12899:12903   */\n      dup4\n        /* \"#utility.yul\":12895:12910   */\n      and\n        /* \"#utility.yul\":12885:12910   */\n      swap2\n      pop\n        /* \"#utility.yul\":12798:12916   */\n      pop\n        /* \"#utility.yul\":12747:12916   */\n      swap3\n      swap2\n      pop\n      pop\n      jump\t// out\n        /* \"#utility.yul\":12921:13216   */\n    tag_143:\n        /* \"#utility.yul\":12997:13001   */\n      0x00\n        /* \"#utility.yul\":13143:13172   */\n      tag_301\n        /* \"#utility.yul\":13168:13171   */\n      dup4\n        /* \"#utility.yul\":13162:13166   */\n      dup4\n        /* \"#utility.yul\":13143:13172   */\n      tag_142\n      jump\t// in\n    tag_301:\n        /* \"#utility.yul\":13135:13172   */\n      swap2\n      pop\n        /* \"#utility.yul\":13205:13208   */\n      dup3\n        /* \"#utility.yul\":13202:13203   */\n      0x02\n        /* \"#utility.yul\":13198:13209   */\n      mul\n        /* \"#utility.yul\":13192:13196   */\n      dup3\n        /* \"#utility.yul\":13189:13210   */\n      or\n        /* \"#utility.yul\":13181:13210   */\n      swap1\n      pop\n        /* \"#utility.yul\":12921:13216   */\n      swap3\n      swap2\n      pop\n      pop\n      jump\t// out\n        /* \"#utility.yul\":13221:14616   */\n    tag_82:\n        /* \"#utility.yul\":13338:13375   */\n      tag_303\n        /* \"#utility.yul\":13371:13374   */\n      dup3\n        /* \"#utility.yul\":13338:13375   */\n      tag_104\n      jump\t// in\n    tag_303:\n        /* \"#utility.yul\":13440:13458   */\n      0xffffffffffffffff\n        /* \"#utility.yul\":13432:13438   */\n      dup2\n        /* \"#utility.yul\":13429:13459   */\n      gt\n        /* \"#utility.yul\":13426:13482   */\n      iszero\n      tag_304\n      jumpi\n        /* \"#utility.yul\":13462:13480   */\n      tag_305\n      tag_115\n      jump\t// in\n    tag_305:\n        /* \"#utility.yul\":13426:13482   */\n    tag_304:\n        /* \"#utility.yul\":13506:13544   */\n      tag_306\n        /* \"#utility.yul\":13538:13542   */\n      dup3\n        /* \"#utility.yul\":13532:13543   */\n      sload\n        /* \"#utility.yul\":13506:13544   */\n      tag_71\n      jump\t// in\n    tag_306:\n        /* \"#utility.yul\":13591:13658   */\n      tag_307\n        /* \"#utility.yul\":13651:13657   */\n      dup3\n        /* \"#utility.yul\":13643:13649   */\n      dup3\n        /* \"#utility.yul\":13637:13641   */\n      dup6\n        /* \"#utility.yul\":13591:13658   */\n      tag_140\n      jump\t// in\n    tag_307:\n        /* \"#utility.yul\":13685:13686   */\n      0x00\n        /* \"#utility.yul\":13709:13713   */\n      0x20\n        /* \"#utility.yul\":13696:13713   */\n      swap1\n      pop\n        /* \"#utility.yul\":13741:13743   */\n      0x1f\n        /* \"#utility.yul\":13733:13739   */\n      dup4\n        /* \"#utility.yul\":13730:13744   */\n      gt\n        /* \"#utility.yul\":13758:13759   */\n      0x01\n        /* \"#utility.yul\":13753:14371   */\n      dup2\n      eq\n      tag_309\n      jumpi\n        /* \"#utility.yul\":14415:14416   */\n      0x00\n        /* \"#utility.yul\":14432:14438   */\n      dup5\n        /* \"#utility.yul\":14429:14506   */\n      iszero\n      tag_310\n      jumpi\n        /* \"#utility.yul\":14481:14490   */\n      dup3\n        /* \"#utility.yul\":14476:14479   */\n      dup8\n        /* \"#utility.yul\":14472:14491   */\n      add\n        /* \"#utility.yul\":14466:14492   */\n      mload\n        /* \"#utility.yul\":14457:14492   */\n      swap1\n      pop\n        /* \"#utility.yul\":14429:14506   */\n    tag_310:\n        /* \"#utility.yul\":14532:14599   */\n      tag_311\n        /* \"#utility.yul\":14592:14598   */\n      dup6\n        /* \"#utility.yul\":14585:14590   */\n      dup3\n        /* \"#utility.yul\":14532:14599   */\n      tag_143\n      jump\t// in\n    tag_311:\n        /* \"#utility.yul\":14526:14530   */\n      dup7\n        /* \"#utility.yul\":14519:14600   */\n      sstore\n        /* \"#utility.yul\":14388:14610   */\n      pop\n        /* \"#utility.yul\":13723:14610   */\n      jump(tag_308)\n        /* \"#utility.yul\":13753:14371   */\n    tag_309:\n        /* \"#utility.yul\":13805:13809   */\n      0x1f\n        /* \"#utility.yul\":13801:13810   */\n      not\n        /* \"#utility.yul\":13793:13799   */\n      dup5\n        /* \"#utility.yul\":13789:13811   */\n      and\n        /* \"#utility.yul\":13839:13876   */\n      tag_312\n        /* \"#utility.yul\":13871:13875   */\n      dup7\n        /* \"#utility.yul\":13839:13876   */\n      tag_129\n      jump\t// in\n    tag_312:\n        /* \"#utility.yul\":13898:13899   */\n      0x00\n        /* \"#utility.yul\":13912:14120   */\n    tag_313:\n        /* \"#utility.yul\":13926:13933   */\n      dup3\n        /* \"#utility.yul\":13923:13924   */\n      dup2\n        /* \"#utility.yul\":13920:13934   */\n      lt\n        /* \"#utility.yul\":13912:14120   */\n      iszero\n      tag_315\n      jumpi\n        /* \"#utility.yul\":14005:14014   */\n      dup5\n        /* \"#utility.yul\":14000:14003   */\n      dup10\n        /* \"#utility.yul\":13996:14015   */\n      add\n        /* \"#utility.yul\":13990:14016   */\n      mload\n        /* \"#utility.yul\":13982:13988   */\n      dup3\n        /* \"#utility.yul\":13975:14017   */\n      sstore\n        /* \"#utility.yul\":14056:14057   */\n      0x01\n        /* \"#utility.yul\":14048:14054   */\n      dup3\n        /* \"#utility.yul\":14044:14058   */\n      add\n        /* \"#utility.yul\":14034:14058   */\n      swap2\n      pop\n        /* \"#utility.yul\":14103:14105   */\n      0x20\n        /* \"#utility.yul\":14092:14101   */\n      dup6\n        /* \"#utility.yul\":14088:14106   */\n      add\n        /* \"#utility.yul\":14075:14106   */\n      swap5\n      pop\n        /* \"#utility.yul\":13949:13953   */\n      0x20\n        /* \"#utility.yul\":13946:13947   */\n      dup2\n        /* \"#utility.yul\":13942:13954   */\n      add\n        /* \"#utility.yul\":13937:13954   */\n      swap1\n      pop\n        /* \"#utility.yul\":13912:14120   */\n      jump(tag_313)\n    tag_315:\n        /* \"#utility.yul\":14148:14154   */\n      dup7\n        /* \"#utility.yul\":14139:14146   */\n      dup4\n        /* \"#utility.yul\":14136:14155   */\n      lt\n        /* \"#utility.yul\":14133:14312   */\n      iszero\n      tag_316\n      jumpi\n        /* \"#utility.yul\":14206:14215   */\n      dup5\n        /* \"#utility.yul\":14201:14204   */\n      dup10\n        /* \"#utility.yul\":14197:14216   */\n      add\n        /* \"#utility.yul\":14191:14217   */\n      mload\n        /* \"#utility.yul\":14249:14297   */\n      tag_317\n        /* \"#utility.yul\":14291:14295   */\n      0x1f\n        /* \"#utility.yul\":14283:14289   */\n      dup10\n        /* \"#utility.yul\":14279:14296   */\n      and\n        /* \"#utility.yul\":14268:14277   */\n      dup3\n        /* \"#utility.yul\":14249:14297   */\n      tag_142\n      jump\t// in\n    tag_317:\n        /* \"#utility.yul\":14241:14247   */\n      dup4\n        /* \"#utility.yul\":14234:14298   */\n      sstore\n        /* \"#utility.yul\":14156:14312   */\n      pop\n        /* \"#utility.yul\":14133:14312   */\n    tag_316:\n        /* \"#utility.yul\":14358:14359   */\n      0x01\n        /* \"#utility.yul\":14354:14355   */\n      0x02\n        /* \"#utility.yul\":14346:14352   */\n      dup9\n        /* \"#utility.yul\":14342:14356   */\n      mul\n        /* \"#utility.yul\":14338:14360   */\n      add\n        /* \"#utility.yul\":14332:14336   */\n      dup9\n        /* \"#utility.yul\":14325:14361   */\n      sstore\n        /* \"#utility.yul\":13760:14371   */\n      pop\n      pop\n      pop\n        /* \"#utility.yul\":13723:14610   */\n    tag_308:\n      pop\n        /* \"#utility.yul\":13313:14616   */\n      pop\n      pop\n      pop\n        /* \"#utility.yul\":13221:14616   */\n      pop\n      pop\n      jump\t// out\n\n    auxdata: 0xa2646970667358221220be0d648614949a82b9a15b11a498b1f1b39bf1ef58676e19804dfc8212e5bc5164736f6c63430008110033\n}\n","bytecode":{"linkReferences":{},"object":"60806040523480156200001157600080fd5b506040516200129238038062001292833981810160405281019062000037919062000133565b8160048190555080600360006101000a81548173ffffffffffffffffffffffffffffffffffffffff021916908373ffffffffffffffffffffffffffffffffffffffff1602179055506000808190555050506200017a565b600080fd5b6000819050919050565b620000a88162000093565b8114620000b457600080fd5b50565b600081519050620000c8816200009d565b92915050565b600073ffffffffffffffffffffffffffffffffffffffff82169050919050565b6000620000fb82620000ce565b9050919050565b6200010d81620000ee565b81146200011957600080fd5b50565b6000815190506200012d8162000102565b92915050565b600080604083850312156200014d576200014c6200008e565b5b60006200015d85828601620000b7565b925050602062000170858286016200011c565b9150509250929050565b611108806200018a6000396000f3fe6080604052600436106100915760003560e01c80638a9cfd55116100595780638a9cfd5514610174578063bb54f1b51461019d578063d7bb99ba146101cc578063d7d1bbdb146101d6578063eccea929146101ff57610091565b806303441006146100965780633e610fa6146100b2578063481c6a75146100dd5780634b8cd0411461010857806381d12c5814610133575b600080fd5b6100b060048036038101906100ab91906108ad565b61023c565b005b3480156100be57600080fd5b506100c7610377565b6040516100d491906108e9565b60405180910390f35b3480156100e957600080fd5b506100f261037d565b6040516100ff9190610945565b60405180910390f35b34801561011457600080fd5b5061011d6103a3565b60405161012a91906108e9565b60405180910390f35b34801561013f57600080fd5b5061015a600480360381019061015591906108ad565b6103ad565b60405161016b959493929190610a2c565b60405180910390f35b34801561018057600080fd5b5061019b60048036038101906101969190610be7565b610498565b005b3480156101a957600080fd5b506101b26105aa565b6040516101c3959493929190610c56565b60405180910390f35b6101d46105f0565b005b3480156101e257600080fd5b506101fd60048036038101906101f891906108ad565b6106c8565b005b34801561020b57600080fd5b5061022660048036038101906102219190610cd5565b610806565b6040516102339190610d02565b60405180910390f35b600360009054906101000a900473ffffffffffffffffffffffffffffffffffffffff1673ffffffffffffffffffffffffffffffffffffffff163373ffffffffffffffffffffffffffffffffffffffff161461029657600080fd5b60006002600083815260200190815260200160002090508060020160149054906101000a900460ff16156102c957600080fd5b60026000546102d89190610d7b565b8160030154116102e757600080fd5b60018160020160146101000a81548160ff0219169083151502179055508060020160009054906101000a900473ffffffffffffffffffffffffffffffffffffffff1673ffffffffffffffffffffffffffffffffffffffff166108fc82600101549081150290604051600060405180830381858888f19350505050158015610372573d6000803e3d6000fd5b505050565b60005481565b600360009054906101000a900473ffffffffffffffffffffffffffffffffffffffff1681565b6000600154905090565b60026020528060005260406000206000915090508060000180546103d090610ddb565b80601f01602080910402602001604051908101604052809291908181526020018280546103fc90610ddb565b80156104495780601f1061041e57610100808354040283529160200191610449565b820191906000526020600020905b81548152906001019060200180831161042c57829003601f168201915b5050505050908060010154908060020160009054906101000a900473ffffffffffffffffffffffffffffffffffffffff16908060020160149054906101000a900460ff16908060030154905085565b600360009054906101000a900473ffffffffffffffffffffffffffffffffffffffff1673ffffffffffffffffffffffffffffffffffffffff163373ffffffffffffffffffffffffffffffffffffffff16146104f257600080fd5b6000600260006001600081548092919061050b90610e0c565b9190505581526020019081526020016000209050838160000190816105309190611000565b50828160010181905550818160020160006101000a81548173ffffffffffffffffffffffffffffffffffffffff021916908373ffffffffffffffffffffffffffffffffffffffff16021790555060008160020160146101000a81548160ff0219169083151502179055506000816003018190555050505050565b600080600080600060045447600154600054600360009054906101000a900473ffffffffffffffffffffffffffffffffffffffff16945094509450945094509091929394565b60045434116105fe57600080fd5b60001515600560003373ffffffffffffffffffffffffffffffffffffffff1673ffffffffffffffffffffffffffffffffffffffff16815260200190815260200160002060009054906101000a900460ff1615150361066e5760008081548092919061066890610e0c565b91905055505b6001600560003373ffffffffffffffffffffffffffffffffffffffff1673ffffffffffffffffffffffffffffffffffffffff16815260200190815260200160002060006101000a81548160ff021916908315150217905550565b6000600260008381526020019081526020016000209050600560003373ffffffffffffffffffffffffffffffffffffffff1673ffffffffffffffffffffffffffffffffffffffff16815260200190815260200160002060009054906101000a900460ff1661073557600080fd5b8060040160003373ffffffffffffffffffffffffffffffffffffffff1673ffffffffffffffffffffffffffffffffffffffff16815260200190815260200160002060009054906101000a900460ff161561078e57600080fd5b60018160040160003373ffffffffffffffffffffffffffffffffffffffff1673ffffffffffffffffffffffffffffffffffffffff16815260200190815260200160002060006101000a81548160ff0219169083151502179055508060030160008154809291906107fd90610e0c565b91905055505050565b600060011515600560008473ffffffffffffffffffffffffffffffffffffffff1673ffffffffffffffffffffffffffffffffffffffff16815260200190815260200160002060009054906101000a900460ff161515149050919050565b6000604051905090565b600080fd5b600080fd5b6000819050919050565b61088a81610877565b811461089557600080fd5b50565b6000813590506108a781610881565b92915050565b6000602082840312156108c3576108c261086d565b5b60006108d184828501610898565b91505092915050565b6108e381610877565b82525050565b60006020820190506108fe60008301846108da565b92915050565b600073ffffffffffffffffffffffffffffffffffffffff82169050919050565b600061092f82610904565b9050919050565b61093f81610924565b82525050565b600060208201905061095a6000830184610936565b92915050565b600081519050919050565b600082825260208201905092915050565b60005b8381101561099a57808201518184015260208101905061097f565b60008484015250505050565b6000601f19601f8301169050919050565b60006109c282610960565b6109cc818561096b565b93506109dc81856020860161097c565b6109e5816109a6565b840191505092915050565b60006109fb82610904565b9050919050565b610a0b816109f0565b82525050565b60008115159050919050565b610a2681610a11565b82525050565b600060a0820190508181036000830152610a4681886109b7565b9050610a5560208301876108da565b610a626040830186610a02565b610a6f6060830185610a1d565b610a7c60808301846108da565b9695505050505050565b600080fd5b600080fd5b7f4e487b7100000000000000000000000000000000000000000000000000000000600052604160045260246000fd5b610ac8826109a6565b810181811067ffffffffffffffff82111715610ae757610ae6610a90565b5b80604052505050565b6000610afa610863565b9050610b068282610abf565b919050565b600067ffffffffffffffff821115610b2657610b25610a90565b5b610b2f826109a6565b9050602081019050919050565b82818337600083830152505050565b6000610b5e610b5984610b0b565b610af0565b905082815260208101848484011115610b7a57610b79610a8b565b5b610b85848285610b3c565b509392505050565b600082601f830112610ba257610ba1610a86565b5b8135610bb2848260208601610b4b565b91505092915050565b610bc4816109f0565b8114610bcf57600080fd5b50565b600081359050610be181610bbb565b92915050565b600080600060608486031215610c0057610bff61086d565b5b600084013567ffffffffffffffff811115610c1e57610c1d610872565b5b610c2a86828701610b8d565b9350506020610c3b86828701610898565b9250506040610c4c86828701610bd2565b9150509250925092565b600060a082019050610c6b60008301886108da565b610c7860208301876108da565b610c8560408301866108da565b610c9260608301856108da565b610c9f6080830184610936565b9695505050505050565b610cb281610924565b8114610cbd57600080fd5b50565b600081359050610ccf81610ca9565b92915050565b600060208284031215610ceb57610cea61086d565b5b6000610cf984828501610cc0565b91505092915050565b6000602082019050610d176000830184610a1d565b92915050565b7f4e487b7100000000000000000000000000000000000000000000000000000000600052601260045260246000fd5b7f4e487b7100000000000000000000000000000000000000000000000000000000600052601160045260246000fd5b6000610d8682610877565b9150610d9183610877565b925082610da157610da0610d1d565b5b828204905092915050565b7f4e487b7100000000000000000000000000000000000000000000000000000000600052602260045260246000fd5b60006002820490506001821680610df357607f821691505b602082108103610e0657610e05610dac565b5b50919050565b6000610e1782610877565b91507fffffffffffffffffffffffffffffffffffffffffffffffffffffffffffffffff8203610e4957610e48610d4c565b5b600182019050919050565b60008190508160005260206000209050919050565b60006020601f8301049050919050565b600082821b905092915050565b600060088302610eb67fffffffffffffffffffffffffffffffffffffffffffffffffffffffffffffffff82610e79565b610ec08683610e79565b95508019841693508086168417925050509392505050565b6000819050919050565b6000610efd610ef8610ef384610877565b610ed8565b610877565b9050919050565b6000819050919050565b610f1783610ee2565b610f2b610f2382610f04565b848454610e86565b825550505050565b600090565b610f40610f33565b610f4b818484610f0e565b505050565b5b81811015610f6f57610f64600082610f38565b600181019050610f51565b5050565b601f821115610fb457610f8581610e54565b610f8e84610e69565b81016020851015610f9d578190505b610fb1610fa985610e69565b830182610f50565b50505b505050565b600082821c905092915050565b6000610fd760001984600802610fb9565b1980831691505092915050565b6000610ff08383610fc6565b9150826002028217905092915050565b61100982610960565b67ffffffffffffffff81111561102257611021610a90565b5b61102c8254610ddb565b611037828285610f73565b600060209050601f83116001811461106a5760008415611058578287015190505b6110628582610fe4565b8655506110ca565b601f19841661107886610e54565b60005b828110156110a05784890151825560018201915060208501945060208101905061107b565b868310156110bd57848901516110b9601f891682610fc6565b8355505b6001600288020188555050505b50505050505056fea2646970667358221220be0d648614949a82b9a15b11a498b1f1b39bf1ef58676e19804dfc8212e5bc5164736f6c63430008110033","opcodes":"PUSH1 0x80 PUSH1 0x40 MSTORE CALLVALUE DUP1 ISZERO PUSH3 0x11 JUMPI PUSH1 0x0 DUP1 REVERT JUMPDEST POP PUSH1 0x40 MLOAD PUSH3 0x1292 CODESIZE SUB DUP1 PUSH3 0x1292 DUP4 CODECOPY DUP2 DUP2 ADD PUSH1 0x40 MSTORE DUP2 ADD SWAP1 PUSH3 0x37 SWAP2 SWAP1 PUSH3 0x133 JUMP JUMPDEST DUP2 PUSH1 0x4 DUP2 SWAP1 SSTORE POP DUP1 PUSH1 0x3 PUSH1 0x0 PUSH2 0x100 EXP DUP2 SLOAD DUP2 PUSH20 0xFFFFFFFFFFFFFFFFFFFFFFFFFFFFFFFFFFFFFFFF MUL NOT AND SWAP1 DUP4 PUSH20 0xFFFFFFFFFFFFFFFFFFFFFFFFFFFFFFFFFFFFFFFF AND MUL OR SWAP1 SSTORE POP PUSH1 0x0 DUP1 DUP2 SWAP1 SSTORE POP POP POP PUSH3 0x17A JUMP JUMPDEST PUSH1 0x0 DUP1 REVERT JUMPDEST PUSH1 0x0 DUP2 SWAP1 POP SWAP2 SWAP1 POP JUMP JUMPDEST PUSH3 0xA8 DUP2 PUSH3 0x93 JUMP JUMPDEST DUP2 EQ PUSH3 0xB4 JUMPI PUSH1 0x0 DUP1 REVERT JUMPDEST POP JUMP JUMPDEST PUSH1 0x0 DUP2 MLOAD SWAP1 POP PUSH3 0xC8 DUP2 PUSH3 0x9D JUMP JUMPDEST SWAP3 SWAP2 POP POP JUMP JUMPDEST PUSH1 0x0 PUSH20 0xFFFFFFFFFFFFFFFFFFFFFFFFFFFFFFFFFFFFFFFF DUP3 AND SWAP1 POP SWAP2 SWAP1 POP JUMP JUMPDEST PUSH1 0x0 PUSH3 0xFB DUP3 PUSH3 0xCE JUMP JUMPDEST SWAP1 POP SWAP2 SWAP1 POP JUMP JUMPDEST PUSH3 0x10D DUP2 PUSH3 0xEE JUMP JUMPDEST DUP2 EQ PUSH3 0x119 JUMPI PUSH1 0x0 DUP1 REVERT JUMPDEST POP JUMP JUMPDEST PUSH1 0x0 DUP2 MLOAD SWAP1 POP PUSH3 0x12D DUP2 PUSH3 0x102 JUMP JUMPDEST SWAP3 SWAP2 POP POP JUMP JUMPDEST PUSH1 0x0 DUP1 PUSH1 0x40 DUP4 DUP6 SUB SLT ISZERO PUSH3 0x14D JUMPI PUSH3 0x14C PUSH3 0x8E JUMP JUMPDEST JUMPDEST PUSH1 0x0 PUSH3 0x15D DUP6 DUP3 DUP7 ADD PUSH3 0xB7 JUMP JUMPDEST SWAP3 POP POP PUSH1 0x20 PUSH3 0x170 DUP6 DUP3 DUP7 ADD PUSH3 0x11C JUMP JUMPDEST SWAP2 POP POP SWAP3 POP SWAP3 SWAP1 POP JUMP JUMPDEST PUSH2 0x1108 DUP1 PUSH3 0x18A PUSH1 0x0 CODECOPY PUSH1 0x0 RETURN INVALID PUSH1 0x80 PUSH1 0x40 MSTORE PUSH1 0x4 CALLDATASIZE LT PUSH2 0x91 JUMPI PUSH1 0x0 CALLDATALOAD PUSH1 0xE0 SHR DUP1 PUSH4 0x8A9CFD55 GT PUSH2 0x59 JUMPI DUP1 PUSH4 0x8A9CFD55 EQ PUSH2 0x174 JUMPI DUP1 PUSH4 0xBB54F1B5 EQ PUSH2 0x19D JUMPI DUP1 PUSH4 0xD7BB99BA EQ PUSH2 0x1CC JUMPI DUP1 PUSH4 0xD7D1BBDB EQ PUSH2 0x1D6 JUMPI DUP1 PUSH4 0xECCEA929 EQ PUSH2 0x1FF JUMPI PUSH2 0x91 JUMP JUMPDEST DUP1 PUSH4 0x3441006 EQ PUSH2 0x96 JUMPI DUP1 PUSH4 0x3E610FA6 EQ PUSH2 0xB2 JUMPI DUP1 PUSH4 0x481C6A75 EQ PUSH2 0xDD JUMPI DUP1 PUSH4 0x4B8CD041 EQ PUSH2 0x108 JUMPI DUP1 PUSH4 0x81D12C58 EQ PUSH2 0x133 JUMPI JUMPDEST PUSH1 0x0 DUP1 REVERT JUMPDEST PUSH2 0xB0 PUSH1 0x4 DUP1 CALLDATASIZE SUB DUP2 ADD SWAP1 PUSH2 0xAB SWAP2 SWAP1 PUSH2 0x8AD JUMP JUMPDEST PUSH2 0x23C JUMP JUMPDEST STOP JUMPDEST CALLVALUE DUP1 ISZERO PUSH2 0xBE JUMPI PUSH1 0x0 DUP1 REVERT JUMPDEST POP PUSH2 0xC7 PUSH2 0x377 JUMP JUMPDEST PUSH1 0x40 MLOAD PUSH2 0xD4 SWAP2 SWAP1 PUSH2 0x8E9 JUMP JUMPDEST PUSH1 0x40 MLOAD DUP1 SWAP2 SUB SWAP1 RETURN JUMPDEST CALLVALUE DUP1 ISZERO PUSH2 0xE9 JUMPI PUSH1 0x0 DUP1 REVERT JUMPDEST POP PUSH2 0xF2 PUSH2 0x37D JUMP JUMPDEST PUSH1 0x40 MLOAD PUSH2 0xFF SWAP2 SWAP1 PUSH2 0x945 JUMP JUMPDEST PUSH1 0x40 MLOAD DUP1 SWAP2 SUB SWAP1 RETURN JUMPDEST CALLVALUE DUP1 ISZERO PUSH2 0x114 JUMPI PUSH1 0x0 DUP1 REVERT JUMPDEST POP PUSH2 0x11D PUSH2 0x3A3 JUMP JUMPDEST PUSH1 0x40 MLOAD PUSH2 0x12A SWAP2 SWAP1 PUSH2 0x8E9 JUMP JUMPDEST PUSH1 0x40 MLOAD DUP1 SWAP2 SUB SWAP1 RETURN JUMPDEST CALLVALUE DUP1 ISZERO PUSH2 0x13F JUMPI PUSH1 0x0 DUP1 REVERT JUMPDEST POP PUSH2 0x15A PUSH1 0x4 DUP1 CALLDATASIZE SUB DUP2 ADD SWAP1 PUSH2 0x155 SWAP2 SWAP1 PUSH2 0x8AD JUMP JUMPDEST PUSH2 0x3AD JUMP JUMPDEST PUSH1 0x40 MLOAD PUSH2 0x16B SWAP6 SWAP5 SWAP4 SWAP3 SWAP2 SWAP1 PUSH2 0xA2C JUMP JUMPDEST PUSH1 0x40 MLOAD DUP1 SWAP2 SUB SWAP1 RETURN JUMPDEST CALLVALUE DUP1 ISZERO PUSH2 0x180 JUMPI PUSH1 0x0 DUP1 REVERT JUMPDEST POP PUSH2 0x19B PUSH1 0x4 DUP1 CALLDATASIZE SUB DUP2 ADD SWAP1 PUSH2 0x196 SWAP2 SWAP1 PUSH2 0xBE7 JUMP JUMPDEST PUSH2 0x498 JUMP JUMPDEST STOP JUMPDEST CALLVALUE DUP1 ISZERO PUSH2 0x1A9 JUMPI PUSH1 0x0 DUP1 REVERT JUMPDEST POP PUSH2 0x1B2 PUSH2 0x5AA JUMP JUMPDEST PUSH1 0x40 MLOAD PUSH2 0x1C3 SWAP6 SWAP5 SWAP4 SWAP3 SWAP2 SWAP1 PUSH2 0xC56 JUMP JUMPDEST PUSH1 0x40 MLOAD DUP1 SWAP2 SUB SWAP1 RETURN JUMPDEST PUSH2 0x1D4 PUSH2 0x5F0 JUMP JUMPDEST STOP JUMPDEST CALLVALUE DUP1 ISZERO PUSH2 0x1E2 JUMPI PUSH1 0x0 DUP1 REVERT JUMPDEST POP PUSH2 0x1FD PUSH1 0x4 DUP1 CALLDATASIZE SUB DUP2 ADD SWAP1 PUSH2 0x1F8 SWAP2 SWAP1 PUSH2 0x8AD JUMP JUMPDEST PUSH2 0x6C8 JUMP JUMPDEST STOP JUMPDEST CALLVALUE DUP1 ISZERO PUSH2 0x20B JUMPI PUSH1 0x0 DUP1 REVERT JUMPDEST POP PUSH2 0x226 PUSH1 0x4 DUP1 CALLDATASIZE SUB DUP2 ADD SWAP1 PUSH2 0x221 SWAP2 SWAP1 PUSH2 0xCD5 JUMP JUMPDEST PUSH2 0x806 JUMP JUMPDEST PUSH1 0x40 MLOAD PUSH2 0x233 SWAP2 SWAP1 PUSH2 0xD02 JUMP JUMPDEST PUSH1 0x40 MLOAD DUP1 SWAP2 SUB SWAP1 RETURN JUMPDEST PUSH1 0x3 PUSH1 0x0 SWAP1 SLOAD SWAP1 PUSH2 0x100 EXP SWAP1 DIV PUSH20 0xFFFFFFFFFFFFFFFFFFFFFFFFFFFFFFFFFFFFFFFF AND PUSH20 0xFFFFFFFFFFFFFFFFFFFFFFFFFFFFFFFFFFFFFFFF AND CALLER PUSH20 0xFFFFFFFFFFFFFFFFFFFFFFFFFFFFFFFFFFFFFFFF AND EQ PUSH2 0x296 JUMPI PUSH1 0x0 DUP1 REVERT JUMPDEST PUSH1 0x0 PUSH1 0x2 PUSH1 0x0 DUP4 DUP2 MSTORE PUSH1 0x20 ADD SWAP1 DUP2 MSTORE PUSH1 0x20 ADD PUSH1 0x0 KECCAK256 SWAP1 POP DUP1 PUSH1 0x2 ADD PUSH1 0x14 SWAP1 SLOAD SWAP1 PUSH2 0x100 EXP SWAP1 DIV PUSH1 0xFF AND ISZERO PUSH2 0x2C9 JUMPI PUSH1 0x0 DUP1 REVERT JUMPDEST PUSH1 0x2 PUSH1 0x0 SLOAD PUSH2 0x2D8 SWAP2 SWAP1 PUSH2 0xD7B JUMP JUMPDEST DUP2 PUSH1 0x3 ADD SLOAD GT PUSH2 0x2E7 JUMPI PUSH1 0x0 DUP1 REVERT JUMPDEST PUSH1 0x1 DUP2 PUSH1 0x2 ADD PUSH1 0x14 PUSH2 0x100 EXP DUP2 SLOAD DUP2 PUSH1 0xFF MUL NOT AND SWAP1 DUP4 ISZERO ISZERO MUL OR SWAP1 SSTORE POP DUP1 PUSH1 0x2 ADD PUSH1 0x0 SWAP1 SLOAD SWAP1 PUSH2 0x100 EXP SWAP1 DIV PUSH20 0xFFFFFFFFFFFFFFFFFFFFFFFFFFFFFFFFFFFFFFFF AND PUSH20 0xFFFFFFFFFFFFFFFFFFFFFFFFFFFFFFFFFFFFFFFF AND PUSH2 0x8FC DUP3 PUSH1 0x1 ADD SLOAD SWAP1 DUP2 ISZERO MUL SWAP1 PUSH1 0x40 MLOAD PUSH1 0x0 PUSH1 0x40 MLOAD DUP1 DUP4 SUB DUP2 DUP6 DUP9 DUP9 CALL SWAP4 POP POP POP POP ISZERO DUP1 ISZERO PUSH2 0x372 JUMPI RETURNDATASIZE PUSH1 0x0 DUP1 RETURNDATACOPY RETURNDATASIZE PUSH1 0x0 REVERT JUMPDEST POP POP POP JUMP JUMPDEST PUSH1 0x0 SLOAD DUP2 JUMP JUMPDEST PUSH1 0x3 PUSH1 0x0 SWAP1 SLOAD SWAP1 PUSH2 0x100 EXP SWAP1 DIV PUSH20 0xFFFFFFFFFFFFFFFFFFFFFFFFFFFFFFFFFFFFFFFF AND DUP2 JUMP JUMPDEST PUSH1 0x0 PUSH1 0x1 SLOAD SWAP1 POP SWAP1 JUMP JUMPDEST PUSH1 0x2 PUSH1 0x20 MSTORE DUP1 PUSH1 0x0 MSTORE PUSH1 0x40 PUSH1 0x0 KECCAK256 PUSH1 0x0 SWAP2 POP SWAP1 POP DUP1 PUSH1 0x0 ADD DUP1 SLOAD PUSH2 0x3D0 SWAP1 PUSH2 0xDDB JUMP JUMPDEST DUP1 PUSH1 0x1F ADD PUSH1 0x20 DUP1 SWAP2 DIV MUL PUSH1 0x20 ADD PUSH1 0x40 MLOAD SWAP1 DUP2 ADD PUSH1 0x40 MSTORE DUP1 SWAP3 SWAP2 SWAP1 DUP2 DUP2 MSTORE PUSH1 0x20 ADD DUP3 DUP1 SLOAD PUSH2 0x3FC SWAP1 PUSH2 0xDDB JUMP JUMPDEST DUP1 ISZERO PUSH2 0x449 JUMPI DUP1 PUSH1 0x1F LT PUSH2 0x41E JUMPI PUSH2 0x100 DUP1 DUP4 SLOAD DIV MUL DUP4 MSTORE SWAP2 PUSH1 0x20 ADD SWAP2 PUSH2 0x449 JUMP JUMPDEST DUP3 ADD SWAP2 SWAP1 PUSH1 0x0 MSTORE PUSH1 0x20 PUSH1 0x0 KECCAK256 SWAP1 JUMPDEST DUP2 SLOAD DUP2 MSTORE SWAP1 PUSH1 0x1 ADD SWAP1 PUSH1 0x20 ADD DUP1 DUP4 GT PUSH2 0x42C JUMPI DUP3 SWAP1 SUB PUSH1 0x1F AND DUP3 ADD SWAP2 JUMPDEST POP POP POP POP POP SWAP1 DUP1 PUSH1 0x1 ADD SLOAD SWAP1 DUP1 PUSH1 0x2 ADD PUSH1 0x0 SWAP1 SLOAD SWAP1 PUSH2 0x100 EXP SWAP1 DIV PUSH20 0xFFFFFFFFFFFFFFFFFFFFFFFFFFFFFFFFFFFFFFFF AND SWAP1 DUP1 PUSH1 0x2 ADD PUSH1 0x14 SWAP1 SLOAD SWAP1 PUSH2 0x100 EXP SWAP1 DIV PUSH1 0xFF AND SWAP1 DUP1 PUSH1 0x3 ADD SLOAD SWAP1 POP DUP6 JUMP JUMPDEST PUSH1 0x3 PUSH1 0x0 SWAP1 SLOAD SWAP1 PUSH2 0x100 EXP SWAP1 DIV PUSH20 0xFFFFFFFFFFFFFFFFFFFFFFFFFFFFFFFFFFFFFFFF AND PUSH20 0xFFFFFFFFFFFFFFFFFFFFFFFFFFFFFFFFFFFFFFFF AND CALLER PUSH20 0xFFFFFFFFFFFFFFFFFFFFFFFFFFFFFFFFFFFFFFFF AND EQ PUSH2 0x4F2 JUMPI PUSH1 0x0 DUP1 REVERT JUMPDEST PUSH1 0x0 PUSH1 0x2 PUSH1 0x0 PUSH1 0x1 PUSH1 0x0 DUP2 SLOAD DUP1 SWAP3 SWAP2 SWAP1 PUSH2 0x50B SWAP1 PUSH2 0xE0C JUMP JUMPDEST SWAP2 SWAP1 POP SSTORE DUP2 MSTORE PUSH1 0x20 ADD SWAP1 DUP2 MSTORE PUSH1 0x20 ADD PUSH1 0x0 KECCAK256 SWAP1 POP DUP4 DUP2 PUSH1 0x0 ADD SWAP1 DUP2 PUSH2 0x530 SWAP2 SWAP1 PUSH2 0x1000 JUMP JUMPDEST POP DUP3 DUP2 PUSH1 0x1 ADD DUP2 SWAP1 SSTORE POP DUP2 DUP2 PUSH1 0x2 ADD PUSH1 0x0 PUSH2 0x100 EXP DUP2 SLOAD DUP2 PUSH20 0xFFFFFFFFFFFFFFFFFFFFFFFFFFFFFFFFFFFFFFFF MUL NOT AND SWAP1 DUP4 PUSH20 0xFFFFFFFFFFFFFFFFFFFFFFFFFFFFFFFFFFFFFFFF AND MUL OR SWAP1 SSTORE POP PUSH1 0x0 DUP2 PUSH1 0x2 ADD PUSH1 0x14 PUSH2 0x100 EXP DUP2 SLOAD DUP2 PUSH1 0xFF MUL NOT AND SWAP1 DUP4 ISZERO ISZERO MUL OR SWAP1 SSTORE POP PUSH1 0x0 DUP2 PUSH1 0x3 ADD DUP2 SWAP1 SSTORE POP POP POP POP POP JUMP JUMPDEST PUSH1 0x0 DUP1 PUSH1 0x0 DUP1 PUSH1 0x0 PUSH1 0x4 SLOAD SELFBALANCE PUSH1 0x1 SLOAD PUSH1 0x0 SLOAD PUSH1 0x3 PUSH1 0x0 SWAP1 SLOAD SWAP1 PUSH2 0x100 EXP SWAP1 DIV PUSH20 0xFFFFFFFFFFFFFFFFFFFFFFFFFFFFFFFFFFFFFFFF AND SWAP5 POP SWAP5 POP SWAP5 POP SWAP5 POP SWAP5 POP SWAP1 SWAP2 SWAP3 SWAP4 SWAP5 JUMP JUMPDEST PUSH1 0x4 SLOAD CALLVALUE GT PUSH2 0x5FE JUMPI PUSH1 0x0 DUP1 REVERT JUMPDEST PUSH1 0x0 ISZERO ISZERO PUSH1 0x5 PUSH1 0x0 CALLER PUSH20 0xFFFFFFFFFFFFFFFFFFFFFFFFFFFFFFFFFFFFFFFF AND PUSH20 0xFFFFFFFFFFFFFFFFFFFFFFFFFFFFFFFFFFFFFFFF AND DUP2 MSTORE PUSH1 0x20 ADD SWAP1 DUP2 MSTORE PUSH1 0x20 ADD PUSH1 0x0 KECCAK256 PUSH1 0x0 SWAP1 SLOAD SWAP1 PUSH2 0x100 EXP SWAP1 DIV PUSH1 0xFF AND ISZERO ISZERO SUB PUSH2 0x66E JUMPI PUSH1 0x0 DUP1 DUP2 SLOAD DUP1 SWAP3 SWAP2 SWAP1 PUSH2 0x668 SWAP1 PUSH2 0xE0C JUMP JUMPDEST SWAP2 SWAP1 POP SSTORE POP JUMPDEST PUSH1 0x1 PUSH1 0x5 PUSH1 0x0 CALLER PUSH20 0xFFFFFFFFFFFFFFFFFFFFFFFFFFFFFFFFFFFFFFFF AND PUSH20 0xFFFFFFFFFFFFFFFFFFFFFFFFFFFFFFFFFFFFFFFF AND DUP2 MSTORE PUSH1 0x20 ADD SWAP1 DUP2 MSTORE PUSH1 0x20 ADD PUSH1 0x0 KECCAK256 PUSH1 0x0 PUSH2 0x100 EXP DUP2 SLOAD DUP2 PUSH1 0xFF MUL NOT AND SWAP1 DUP4 ISZERO ISZERO MUL OR SWAP1 SSTORE POP JUMP JUMPDEST PUSH1 0x0 PUSH1 0x2 PUSH1 0x0 DUP4 DUP2 MSTORE PUSH1 0x20 ADD SWAP1 DUP2 MSTORE PUSH1 0x20 ADD PUSH1 0x0 KECCAK256 SWAP1 POP PUSH1 0x5 PUSH1 0x0 CALLER PUSH20 0xFFFFFFFFFFFFFFFFFFFFFFFFFFFFFFFFFFFFFFFF AND PUSH20 0xFFFFFFFFFFFFFFFFFFFFFFFFFFFFFFFFFFFFFFFF AND DUP2 MSTORE PUSH1 0x20 ADD SWAP1 DUP2 MSTORE PUSH1 0x20 ADD PUSH1 0x0 KECCAK256 PUSH1 0x0 SWAP1 SLOAD SWAP1 PUSH2 0x100 EXP SWAP1 DIV PUSH1 0xFF AND PUSH2 0x735 JUMPI PUSH1 0x0 DUP1 REVERT JUMPDEST DUP1 PUSH1 0x4 ADD PUSH1 0x0 CALLER PUSH20 0xFFFFFFFFFFFFFFFFFFFFFFFFFFFFFFFFFFFFFFFF AND PUSH20 0xFFFFFFFFFFFFFFFFFFFFFFFFFFFFFFFFFFFFFFFF AND DUP2 MSTORE PUSH1 0x20 ADD SWAP1 DUP2 MSTORE PUSH1 0x20 ADD PUSH1 0x0 KECCAK256 PUSH1 0x0 SWAP1 SLOAD SWAP1 PUSH2 0x100 EXP SWAP1 DIV PUSH1 0xFF AND ISZERO PUSH2 0x78E JUMPI PUSH1 0x0 DUP1 REVERT JUMPDEST PUSH1 0x1 DUP2 PUSH1 0x4 ADD PUSH1 0x0 CALLER PUSH20 0xFFFFFFFFFFFFFFFFFFFFFFFFFFFFFFFFFFFFFFFF AND PUSH20 0xFFFFFFFFFFFFFFFFFFFFFFFFFFFFFFFFFFFFFFFF AND DUP2 MSTORE PUSH1 0x20 ADD SWAP1 DUP2 MSTORE PUSH1 0x20 ADD PUSH1 0x0 KECCAK256 PUSH1 0x0 PUSH2 0x100 EXP DUP2 SLOAD DUP2 PUSH1 0xFF MUL NOT AND SWAP1 DUP4 ISZERO ISZERO MUL OR SWAP1 SSTORE POP DUP1 PUSH1 0x3 ADD PUSH1 0x0 DUP2 SLOAD DUP1 SWAP3 SWAP2 SWAP1 PUSH2 0x7FD SWAP1 PUSH2 0xE0C JUMP JUMPDEST SWAP2 SWAP1 POP SSTORE POP POP POP JUMP JUMPDEST PUSH1 0x0 PUSH1 0x1 ISZERO ISZERO PUSH1 0x5 PUSH1 0x0 DUP5 PUSH20 0xFFFFFFFFFFFFFFFFFFFFFFFFFFFFFFFFFFFFFFFF AND PUSH20 0xFFFFFFFFFFFFFFFFFFFFFFFFFFFFFFFFFFFFFFFF AND DUP2 MSTORE PUSH1 0x20 ADD SWAP1 DUP2 MSTORE PUSH1 0x20 ADD PUSH1 0x0 KECCAK256 PUSH1 0x0 SWAP1 SLOAD SWAP1 PUSH2 0x100 EXP SWAP1 DIV PUSH1 0xFF AND ISZERO ISZERO EQ SWAP1 POP SWAP2 SWAP1 POP JUMP JUMPDEST PUSH1 0x0 PUSH1 0x40 MLOAD SWAP1 POP SWAP1 JUMP JUMPDEST PUSH1 0x0 DUP1 REVERT JUMPDEST PUSH1 0x0 DUP1 REVERT JUMPDEST PUSH1 0x0 DUP2 SWAP1 POP SWAP2 SWAP1 POP JUMP JUMPDEST PUSH2 0x88A DUP2 PUSH2 0x877 JUMP JUMPDEST DUP2 EQ PUSH2 0x895 JUMPI PUSH1 0x0 DUP1 REVERT JUMPDEST POP JUMP JUMPDEST PUSH1 0x0 DUP2 CALLDATALOAD SWAP1 POP PUSH2 0x8A7 DUP2 PUSH2 0x881 JUMP JUMPDEST SWAP3 SWAP2 POP POP JUMP JUMPDEST PUSH1 0x0 PUSH1 0x20 DUP3 DUP5 SUB SLT ISZERO PUSH2 0x8C3 JUMPI PUSH2 0x8C2 PUSH2 0x86D JUMP JUMPDEST JUMPDEST PUSH1 0x0 PUSH2 0x8D1 DUP5 DUP3 DUP6 ADD PUSH2 0x898 JUMP JUMPDEST SWAP2 POP POP SWAP3 SWAP2 POP POP JUMP JUMPDEST PUSH2 0x8E3 DUP2 PUSH2 0x877 JUMP JUMPDEST DUP3 MSTORE POP POP JUMP JUMPDEST PUSH1 0x0 PUSH1 0x20 DUP3 ADD SWAP1 POP PUSH2 0x8FE PUSH1 0x0 DUP4 ADD DUP5 PUSH2 0x8DA JUMP JUMPDEST SWAP3 SWAP2 POP POP JUMP JUMPDEST PUSH1 0x0 PUSH20 0xFFFFFFFFFFFFFFFFFFFFFFFFFFFFFFFFFFFFFFFF DUP3 AND SWAP1 POP SWAP2 SWAP1 POP JUMP JUMPDEST PUSH1 0x0 PUSH2 0x92F DUP3 PUSH2 0x904 JUMP JUMPDEST SWAP1 POP SWAP2 SWAP1 POP JUMP JUMPDEST PUSH2 0x93F DUP2 PUSH2 0x924 JUMP JUMPDEST DUP3 MSTORE POP POP JUMP JUMPDEST PUSH1 0x0 PUSH1 0x20 DUP3 ADD SWAP1 POP PUSH2 0x95A PUSH1 0x0 DUP4 ADD DUP5 PUSH2 0x936 JUMP JUMPDEST SWAP3 SWAP2 POP POP JUMP JUMPDEST PUSH1 0x0 DUP2 MLOAD SWAP1 POP SWAP2 SWAP1 POP JUMP JUMPDEST PUSH1 0x0 DUP3 DUP3 MSTORE PUSH1 0x20 DUP3 ADD SWAP1 POP SWAP3 SWAP2 POP POP JUMP JUMPDEST PUSH1 0x0 JUMPDEST DUP4 DUP2 LT ISZERO PUSH2 0x99A JUMPI DUP1 DUP3 ADD MLOAD DUP2 DUP5 ADD MSTORE PUSH1 0x20 DUP2 ADD SWAP1 POP PUSH2 0x97F JUMP JUMPDEST PUSH1 0x0 DUP5 DUP5 ADD MSTORE POP POP POP POP JUMP JUMPDEST PUSH1 0x0 PUSH1 0x1F NOT PUSH1 0x1F DUP4 ADD AND SWAP1 POP SWAP2 SWAP1 POP JUMP JUMPDEST PUSH1 0x0 PUSH2 0x9C2 DUP3 PUSH2 0x960 JUMP JUMPDEST PUSH2 0x9CC DUP2 DUP6 PUSH2 0x96B JUMP JUMPDEST SWAP4 POP PUSH2 0x9DC DUP2 DUP6 PUSH1 0x20 DUP7 ADD PUSH2 0x97C JUMP JUMPDEST PUSH2 0x9E5 DUP2 PUSH2 0x9A6 JUMP JUMPDEST DUP5 ADD SWAP2 POP POP SWAP3 SWAP2 POP POP JUMP JUMPDEST PUSH1 0x0 PUSH2 0x9FB DUP3 PUSH2 0x904 JUMP JUMPDEST SWAP1 POP SWAP2 SWAP1 POP JUMP JUMPDEST PUSH2 0xA0B DUP2 PUSH2 0x9F0 JUMP JUMPDEST DUP3 MSTORE POP POP JUMP JUMPDEST PUSH1 0x0 DUP2 ISZERO ISZERO SWAP1 POP SWAP2 SWAP1 POP JUMP JUMPDEST PUSH2 0xA26 DUP2 PUSH2 0xA11 JUMP JUMPDEST DUP3 MSTORE POP POP JUMP JUMPDEST PUSH1 0x0 PUSH1 0xA0 DUP3 ADD SWAP1 POP DUP2 DUP2 SUB PUSH1 0x0 DUP4 ADD MSTORE PUSH2 0xA46 DUP2 DUP9 PUSH2 0x9B7 JUMP JUMPDEST SWAP1 POP PUSH2 0xA55 PUSH1 0x20 DUP4 ADD DUP8 PUSH2 0x8DA JUMP JUMPDEST PUSH2 0xA62 PUSH1 0x40 DUP4 ADD DUP7 PUSH2 0xA02 JUMP JUMPDEST PUSH2 0xA6F PUSH1 0x60 DUP4 ADD DUP6 PUSH2 0xA1D JUMP JUMPDEST PUSH2 0xA7C PUSH1 0x80 DUP4 ADD DUP5 PUSH2 0x8DA JUMP JUMPDEST SWAP7 SWAP6 POP POP POP POP POP POP JUMP JUMPDEST PUSH1 0x0 DUP1 REVERT JUMPDEST PUSH1 0x0 DUP1 REVERT JUMPDEST PUSH32 0x4E487B7100000000000000000000000000000000000000000000000000000000 PUSH1 0x0 MSTORE PUSH1 0x41 PUSH1 0x4 MSTORE PUSH1 0x24 PUSH1 0x0 REVERT JUMPDEST PUSH2 0xAC8 DUP3 PUSH2 0x9A6 JUMP JUMPDEST DUP2 ADD DUP2 DUP2 LT PUSH8 0xFFFFFFFFFFFFFFFF DUP3 GT OR ISZERO PUSH2 0xAE7 JUMPI PUSH2 0xAE6 PUSH2 0xA90 JUMP JUMPDEST JUMPDEST DUP1 PUSH1 0x40 MSTORE POP POP POP JUMP JUMPDEST PUSH1 0x0 PUSH2 0xAFA PUSH2 0x863 JUMP JUMPDEST SWAP1 POP PUSH2 0xB06 DUP3 DUP3 PUSH2 0xABF JUMP JUMPDEST SWAP2 SWAP1 POP JUMP JUMPDEST PUSH1 0x0 PUSH8 0xFFFFFFFFFFFFFFFF DUP3 GT ISZERO PUSH2 0xB26 JUMPI PUSH2 0xB25 PUSH2 0xA90 JUMP JUMPDEST JUMPDEST PUSH2 0xB2F DUP3 PUSH2 0x9A6 JUMP JUMPDEST SWAP1 POP PUSH1 0x20 DUP2 ADD SWAP1 POP SWAP2 SWAP1 POP JUMP JUMPDEST DUP3 DUP2 DUP4 CALLDATACOPY PUSH1 0x0 DUP4 DUP4 ADD MSTORE POP POP POP JUMP JUMPDEST PUSH1 0x0 PUSH2 0xB5E PUSH2 0xB59 DUP5 PUSH2 0xB0B JUMP JUMPDEST PUSH2 0xAF0 JUMP JUMPDEST SWAP1 POP DUP3 DUP2 MSTORE PUSH1 0x20 DUP2 ADD DUP5 DUP5 DUP5 ADD GT ISZERO PUSH2 0xB7A JUMPI PUSH2 0xB79 PUSH2 0xA8B JUMP JUMPDEST JUMPDEST PUSH2 0xB85 DUP5 DUP3 DUP6 PUSH2 0xB3C JUMP JUMPDEST POP SWAP4 SWAP3 POP POP POP JUMP JUMPDEST PUSH1 0x0 DUP3 PUSH1 0x1F DUP4 ADD SLT PUSH2 0xBA2 JUMPI PUSH2 0xBA1 PUSH2 0xA86 JUMP JUMPDEST JUMPDEST DUP2 CALLDATALOAD PUSH2 0xBB2 DUP5 DUP3 PUSH1 0x20 DUP7 ADD PUSH2 0xB4B JUMP JUMPDEST SWAP2 POP POP SWAP3 SWAP2 POP POP JUMP JUMPDEST PUSH2 0xBC4 DUP2 PUSH2 0x9F0 JUMP JUMPDEST DUP2 EQ PUSH2 0xBCF JUMPI PUSH1 0x0 DUP1 REVERT JUMPDEST POP JUMP JUMPDEST PUSH1 0x0 DUP2 CALLDATALOAD SWAP1 POP PUSH2 0xBE1 DUP2 PUSH2 0xBBB JUMP JUMPDEST SWAP3 SWAP2 POP POP JUMP JUMPDEST PUSH1 0x0 DUP1 PUSH1 0x0 PUSH1 0x60 DUP5 DUP7 SUB SLT ISZERO PUSH2 0xC00 JUMPI PUSH2 0xBFF PUSH2 0x86D JUMP JUMPDEST JUMPDEST PUSH1 0x0 DUP5 ADD CALLDATALOAD PUSH8 0xFFFFFFFFFFFFFFFF DUP2 GT ISZERO PUSH2 0xC1E JUMPI PUSH2 0xC1D PUSH2 0x872 JUMP JUMPDEST JUMPDEST PUSH2 0xC2A DUP7 DUP3 DUP8 ADD PUSH2 0xB8D JUMP JUMPDEST SWAP4 POP POP PUSH1 0x20 PUSH2 0xC3B DUP7 DUP3 DUP8 ADD PUSH2 0x898 JUMP JUMPDEST SWAP3 POP POP PUSH1 0x40 PUSH2 0xC4C DUP7 DUP3 DUP8 ADD PUSH2 0xBD2 JUMP JUMPDEST SWAP2 POP POP SWAP3 POP SWAP3 POP SWAP3 JUMP JUMPDEST PUSH1 0x0 PUSH1 0xA0 DUP3 ADD SWAP1 POP PUSH2 0xC6B PUSH1 0x0 DUP4 ADD DUP9 PUSH2 0x8DA JUMP JUMPDEST PUSH2 0xC78 PUSH1 0x20 DUP4 ADD DUP8 PUSH2 0x8DA JUMP JUMPDEST PUSH2 0xC85 PUSH1 0x40 DUP4 ADD DUP7 PUSH2 0x8DA JUMP JUMPDEST PUSH2 0xC92 PUSH1 0x60 DUP4 ADD DUP6 PUSH2 0x8DA JUMP JUMPDEST PUSH2 0xC9F PUSH1 0x80 DUP4 ADD DUP5 PUSH2 0x936 JUMP JUMPDEST SWAP7 SWAP6 POP POP POP POP POP POP JUMP JUMPDEST PUSH2 0xCB2 DUP2 PUSH2 0x924 JUMP JUMPDEST DUP2 EQ PUSH2 0xCBD JUMPI PUSH1 0x0 DUP1 REVERT JUMPDEST POP JUMP JUMPDEST PUSH1 0x0 DUP2 CALLDATALOAD SWAP1 POP PUSH2 0xCCF DUP2 PUSH2 0xCA9 JUMP JUMPDEST SWAP3 SWAP2 POP POP JUMP JUMPDEST PUSH1 0x0 PUSH1 0x20 DUP3 DUP5 SUB SLT ISZERO PUSH2 0xCEB JUMPI PUSH2 0xCEA PUSH2 0x86D JUMP JUMPDEST JUMPDEST PUSH1 0x0 PUSH2 0xCF9 DUP5 DUP3 DUP6 ADD PUSH2 0xCC0 JUMP JUMPDEST SWAP2 POP POP SWAP3 SWAP2 POP POP JUMP JUMPDEST PUSH1 0x0 PUSH1 0x20 DUP3 ADD SWAP1 POP PUSH2 0xD17 PUSH1 0x0 DUP4 ADD DUP5 PUSH2 0xA1D JUMP JUMPDEST SWAP3 SWAP2 POP POP JUMP JUMPDEST PUSH32 0x4E487B7100000000000000000000000000000000000000000000000000000000 PUSH1 0x0 MSTORE PUSH1 0x12 PUSH1 0x4 MSTORE PUSH1 0x24 PUSH1 0x0 REVERT JUMPDEST PUSH32 0x4E487B7100000000000000000000000000000000000000000000000000000000 PUSH1 0x0 MSTORE PUSH1 0x11 PUSH1 0x4 MSTORE PUSH1 0x24 PUSH1 0x0 REVERT JUMPDEST PUSH1 0x0 PUSH2 0xD86 DUP3 PUSH2 0x877 JUMP JUMPDEST SWAP2 POP PUSH2 0xD91 DUP4 PUSH2 0x877 JUMP JUMPDEST SWAP3 POP DUP3 PUSH2 0xDA1 JUMPI PUSH2 0xDA0 PUSH2 0xD1D JUMP JUMPDEST JUMPDEST DUP3 DUP3 DIV SWAP1 POP SWAP3 SWAP2 POP POP JUMP JUMPDEST PUSH32 0x4E487B7100000000000000000000000000000000000000000000000000000000 PUSH1 0x0 MSTORE PUSH1 0x22 PUSH1 0x4 MSTORE PUSH1 0x24 PUSH1 0x0 REVERT JUMPDEST PUSH1 0x0 PUSH1 0x2 DUP3 DIV SWAP1 POP PUSH1 0x1 DUP3 AND DUP1 PUSH2 0xDF3 JUMPI PUSH1 0x7F DUP3 AND SWAP2 POP JUMPDEST PUSH1 0x20 DUP3 LT DUP2 SUB PUSH2 0xE06 JUMPI PUSH2 0xE05 PUSH2 0xDAC JUMP JUMPDEST JUMPDEST POP SWAP2 SWAP1 POP JUMP JUMPDEST PUSH1 0x0 PUSH2 0xE17 DUP3 PUSH2 0x877 JUMP JUMPDEST SWAP2 POP PUSH32 0xFFFFFFFFFFFFFFFFFFFFFFFFFFFFFFFFFFFFFFFFFFFFFFFFFFFFFFFFFFFFFFFF DUP3 SUB PUSH2 0xE49 JUMPI PUSH2 0xE48 PUSH2 0xD4C JUMP JUMPDEST JUMPDEST PUSH1 0x1 DUP3 ADD SWAP1 POP SWAP2 SWAP1 POP JUMP JUMPDEST PUSH1 0x0 DUP2 SWAP1 POP DUP2 PUSH1 0x0 MSTORE PUSH1 0x20 PUSH1 0x0 KECCAK256 SWAP1 POP SWAP2 SWAP1 POP JUMP JUMPDEST PUSH1 0x0 PUSH1 0x20 PUSH1 0x1F DUP4 ADD DIV SWAP1 POP SWAP2 SWAP1 POP JUMP JUMPDEST PUSH1 0x0 DUP3 DUP3 SHL SWAP1 POP SWAP3 SWAP2 POP POP JUMP JUMPDEST PUSH1 0x0 PUSH1 0x8 DUP4 MUL PUSH2 0xEB6 PUSH32 0xFFFFFFFFFFFFFFFFFFFFFFFFFFFFFFFFFFFFFFFFFFFFFFFFFFFFFFFFFFFFFFFF DUP3 PUSH2 0xE79 JUMP JUMPDEST PUSH2 0xEC0 DUP7 DUP4 PUSH2 0xE79 JUMP JUMPDEST SWAP6 POP DUP1 NOT DUP5 AND SWAP4 POP DUP1 DUP7 AND DUP5 OR SWAP3 POP POP POP SWAP4 SWAP3 POP POP POP JUMP JUMPDEST PUSH1 0x0 DUP2 SWAP1 POP SWAP2 SWAP1 POP JUMP JUMPDEST PUSH1 0x0 PUSH2 0xEFD PUSH2 0xEF8 PUSH2 0xEF3 DUP5 PUSH2 0x877 JUMP JUMPDEST PUSH2 0xED8 JUMP JUMPDEST PUSH2 0x877 JUMP JUMPDEST SWAP1 POP SWAP2 SWAP1 POP JUMP JUMPDEST PUSH1 0x0 DUP2 SWAP1 POP SWAP2 SWAP1 POP JUMP JUMPDEST PUSH2 0xF17 DUP4 PUSH2 0xEE2 JUMP JUMPDEST PUSH2 0xF2B PUSH2 0xF23 DUP3 PUSH2 0xF04 JUMP JUMPDEST DUP5 DUP5 SLOAD PUSH2 0xE86 JUMP JUMPDEST DUP3 SSTORE POP POP POP POP JUMP JUMPDEST PUSH1 0x0 SWAP1 JUMP JUMPDEST PUSH2 0xF40 PUSH2 0xF33 JUMP JUMPDEST PUSH2 0xF4B DUP2 DUP5 DUP5 PUSH2 0xF0E JUMP JUMPDEST POP POP POP JUMP JUMPDEST JUMPDEST DUP2 DUP2 LT ISZERO PUSH2 0xF6F JUMPI PUSH2 0xF64 PUSH1 0x0 DUP3 PUSH2 0xF38 JUMP JUMPDEST PUSH1 0x1 DUP2 ADD SWAP1 POP PUSH2 0xF51 JUMP JUMPDEST POP POP JUMP JUMPDEST PUSH1 0x1F DUP3 GT ISZERO PUSH2 0xFB4 JUMPI PUSH2 0xF85 DUP2 PUSH2 0xE54 JUMP JUMPDEST PUSH2 0xF8E DUP5 PUSH2 0xE69 JUMP JUMPDEST DUP2 ADD PUSH1 0x20 DUP6 LT ISZERO PUSH2 0xF9D JUMPI DUP2 SWAP1 POP JUMPDEST PUSH2 0xFB1 PUSH2 0xFA9 DUP6 PUSH2 0xE69 JUMP JUMPDEST DUP4 ADD DUP3 PUSH2 0xF50 JUMP JUMPDEST POP POP JUMPDEST POP POP POP JUMP JUMPDEST PUSH1 0x0 DUP3 DUP3 SHR SWAP1 POP SWAP3 SWAP2 POP POP JUMP JUMPDEST PUSH1 0x0 PUSH2 0xFD7 PUSH1 0x0 NOT DUP5 PUSH1 0x8 MUL PUSH2 0xFB9 JUMP JUMPDEST NOT DUP1 DUP4 AND SWAP2 POP POP SWAP3 SWAP2 POP POP JUMP JUMPDEST PUSH1 0x0 PUSH2 0xFF0 DUP4 DUP4 PUSH2 0xFC6 JUMP JUMPDEST SWAP2 POP DUP3 PUSH1 0x2 MUL DUP3 OR SWAP1 POP SWAP3 SWAP2 POP POP JUMP JUMPDEST PUSH2 0x1009 DUP3 PUSH2 0x960 JUMP JUMPDEST PUSH8 0xFFFFFFFFFFFFFFFF DUP2 GT ISZERO PUSH2 0x1022 JUMPI PUSH2 0x1021 PUSH2 0xA90 JUMP JUMPDEST JUMPDEST PUSH2 0x102C DUP3 SLOAD PUSH2 0xDDB JUMP JUMPDEST PUSH2 0x1037 DUP3 DUP3 DUP6 PUSH2 0xF73 JUMP JUMPDEST PUSH1 0x0 PUSH1 0x20 SWAP1 POP PUSH1 0x1F DUP4 GT PUSH1 0x1 DUP2 EQ PUSH2 0x106A JUMPI PUSH1 0x0 DUP5 ISZERO PUSH2 0x1058 JUMPI DUP3 DUP8 ADD MLOAD SWAP1 POP JUMPDEST PUSH2 0x1062 DUP6 DUP3 PUSH2 0xFE4 JUMP JUMPDEST DUP7 SSTORE POP PUSH2 0x10CA JUMP JUMPDEST PUSH1 0x1F NOT DUP5 AND PUSH2 0x1078 DUP7 PUSH2 0xE54 JUMP JUMPDEST PUSH1 0x0 JUMPDEST DUP3 DUP2 LT ISZERO PUSH2 0x10A0 JUMPI DUP5 DUP10 ADD MLOAD DUP3 SSTORE PUSH1 0x1 DUP3 ADD SWAP2 POP PUSH1 0x20 DUP6 ADD SWAP5 POP PUSH1 0x20 DUP2 ADD SWAP1 POP PUSH2 0x107B JUMP JUMPDEST DUP7 DUP4 LT ISZERO PUSH2 0x10BD JUMPI DUP5 DUP10 ADD MLOAD PUSH2 0x10B9 PUSH1 0x1F DUP10 AND DUP3 PUSH2 0xFC6 JUMP JUMPDEST DUP4 SSTORE POP JUMPDEST PUSH1 0x1 PUSH1 0x2 DUP9 MUL ADD DUP9 SSTORE POP POP POP JUMPDEST POP POP POP POP POP POP JUMP INVALID LOG2 PUSH5 0x6970667358 0x22 SLT KECCAK256 0xBE 0xD PUSH5 0x8614949A82 0xB9 LOG1 JUMPDEST GT LOG4 SWAP9 0xB1 CALL 0xB3 SWAP12 CALL 0xEF PC PUSH8 0x6E19804DFC8212E5 0xBC MLOAD PUSH5 0x736F6C6343 STOP ADDMOD GT STOP CALLER "},"gasEstimates":{"creation":{"codeDepositCost":"872000","executionCost":"infinite","totalCost":"infinite"},"external":{"Numofapprovers()":"2452","SummariseCampaign()":"infinite","alreadyApproved(address)":"2989","approveRequest(uint256)":"infinite","contribute()":"53259","createRequest(string,uint256,address)":"infinite","finalizeRequest(uint256)":"infinite","getNumRequests()":"2504","manager()":"2559","requests(uint256)":"infinite"}},"methodIdentifiers":{"Numofapprovers()":"3e610fa6","SummariseCampaign()":"bb54f1b5","alreadyApproved(address)":"eccea929","approveRequest(uint256)":"d7d1bbdb","contribute()":"d7bb99ba","createRequest(string,uint256,address)":"8a9cfd55","finalizeRequest(uint256)":"03441006","getNumRequests()":"4b8cd041","manager()":"481c6a75","requests(uint256)":"81d12c58"}},"storageLayout":{"storage":[{"astId":57,"contract":"Campaigns.sol:Campaign","label":"Numofapprovers","offset":0,"slot":"0","type":"t_uint256"},{"astId":59,"contract":"Campaigns.sol:Campaign","label":"numRequests","offset":0,"slot":"1","type":"t_uint256"},{"astId":64,"contract":"Campaigns.sol:Campaign","label":"requests","offset":0,"slot":"2","type":"t_mapping(t_uint256,t_struct(Request)55_storage)"},{"astId":66,"contract":"Campaigns.sol:Campaign","label":"manager","offset":0,"slot":"3","type":"t_address"},{"astId":68,"contract":"Campaigns.sol:Campaign","label":"minContribution","offset":0,"slot":"4","type":"t_uint256"},{"astId":72,"contract":"Campaigns.sol:Campaign","label":"approvers","offset":0,"slot":"5","type":"t_mapping(t_address,t_bool)"}],"types":{"t_address":{"encoding":"inplace","label":"address","numberOfBytes":"20"},"t_address_payable":{"encoding":"inplace","label":"address payable","numberOfBytes":"20"},"t_bool":{"encoding":"inplace","label":"bool","numberOfBytes":"1"},"t_mapping(t_address,t_bool)":{"encoding":"mapping","key":"t_address","label":"mapping(address => bool)","numberOfBytes":"32","value":"t_bool"},"t_mapping(t_uint256,t_struct(Request)55_storage)":{"encoding":"mapping","key":"t_uint256","label":"mapping(uint256 => struct Campaign.Request)","numberOfBytes":"32","value":"t_struct(Request)55_storage"},"t_string_storage":{"encoding":"bytes","label":"string","numberOfBytes":"32"},"t_struct(Request)55_storage":{"encoding":"inplace","label":"struct Campaign.Request","members":[{"astId":42,"contract":"Campaigns.sol:Campaign","label":"description","offset":0,"slot":"0","type":"t_string_storage"},{"astId":44,"contract":"Campaigns.sol:Campaign","label":"value","offset":0,"slot":"1","type":"t_uint256"},{"astId":46,"contract":"Campaigns.sol:Campaign","label":"recipient","offset":0,"slot":"2","type":"t_address_payable"},{"astId":48,"contract":"Campaigns.sol:Campaign","label":"complete","offset":20,"slot":"2","type":"t_bool"},{"astId":50,"contract":"Campaigns.sol:Campaign","label":"Numberofapprovals","offset":0,"slot":"3","type":"t_uint256"},{"astId":54,"contract":"Campaigns.sol:Campaign","label":"approvals","offset":0,"slot":"4","type":"t_mapping(t_address,t_bool)"}],"numberOfBytes":"160"},"t_uint256":{"encoding":"inplace","label":"uint256","numberOfBytes":"32"}}},"userdoc":{"kind":"user","methods":{},"version":1}}